:0200000480007A
:100000006F00801A6F0000726F0000196F00C01837
:100010006F0080186F0040186F0000186F00C01745
:100020006F0080176F0040176F0000176F00C01639
:100030006F0080166F0040166F0000166F00C0152D
:100040006F0080156F0040156F0000156F00C01421
:100050006F0080146F0040146F0000146F00C01315
:100060006F0080136F0040136F0000136F00C01209
:100070006F0080126F0040126F0000126F000023AB
:1000800097F100009381013F17010300130181F7ED
:1000900017050000130505F713651500731055309B
:1000A000138541F3138641243306A64093050000CF
:1000B000EF20503717350000130545B1EF10907B46
:1000C000EF20D02613050000930500001306000062
:0C00D000EF00C0006F10507B6780000044
:1000DC00130101FF130500002326110023248100C6
:1000EC002322910023202101EF204070EF10D07BC0
:1000FC0017E500001305C523EF204047130410003B
:10010C00930400001309500613050400EF10403649
:10011C0013041400B384A400E31824FF9385040093
:10012C001306400617E500001305C521EF20004417
:10013C0017E5000013058523EF204043130410003E
:10014C00930400001309500613050400EF10401629
:10015C0013041400B384A400E31824FF9385040053
:10016C001306400617E5000013058521EF2000401B
:10017C008320C10003248100832441000329010052
:10018C0013050000130101016780000017E5000052
:10019C001305D5F6EF20004F6FF05FFF130101FC44
:1001AC00232011002322A1002324B1002326C10007
:1001BC002328D100232AE100232CF100232E010156
:1001CC0023201103232251022324610223267102CE
:1001DC002328C103232AD103232CE103232EF1036B
:1001EC00F322203413032000638862021303B0004F
:1001FC006388620013033000638862006F00C002E2
:10020C00EF0000346F00400317E500001305C5EA4A
:10021C00EF2040476F00400217E500001305C5E4CE
:10022C00EF2040466F00400117E500001305E5EA9A
:10023C00EF2040456F004002F3221034038302008C
:10024C00130530003373A3006314A30093822200C0
:10025C009382220073901234832001000325410005
:10026C00832581000326C100832601010327410158
:10027C00832781010328C1018328010283224102C3
:10028C00032381028323C102032E0103832E410326
:10029C00032F8103832FC10313010104730020304A
:1002AC00730020303305A04023AEA1F21305F0FFFC
:1002BC006780000017E70000130787E693075005D7
:1002CC00B70600101307170023A0F600834707009A
:1002DC00E39A07FE678000009307800523AEF1F2D6
:1002EC001305F0FF678000009307800523AEF1F241
:1002FC001305F0FF678000009307800523AEF1F231
:10030C001305F0FF678000009307800523AEF1F220
:10031C001305F0FF678000009307800523AEF1F210
:10032C001305F0FF678000001305F0FF67800000E5
:10033C009307C00023AEF1F21305F0FF67800000B5
:10034C00B707048023A0A700730050106F000000B3
:10035C009307800523AEF1F21305F0FF67800000D0
:10036C009307B00023AEF1F21305F0FF6780000095
:10037C00B727000023A2F5001305000067800000DA
:10038C009307800523AEF1F21305F0FF67800000A0
:10039C009307800523AEF1F21305F0FF6780000090
:1003AC00930780FA23AEF1F213050000678000007A
:1003BC001305100067800000930780FA23AEF1F25A
:1003CC001305F0FF678000001305F5FF13351500CA
:1003DC00678000009307600123AEF1F21305F0FF74
:1003EC00678000009307F00123AEF1F21305F0FFD4
:1003FC0067800000130500006780000093078005EC
:10040C0023AEF1F21305F0FF678000001305F0FF37
:10041C00678000009307800523AEF1F21305F0FF0F
:10042C00678000001305000067800000B7270000FC
:10043C0023A2F50013050000678000001305F0FFF0
:10044C00678000001305F0FF678000009307200011
:10045C0023AEF1F21305F0FF6780000093078005CF
:10046C0023AEF1F21305F0FF678000009307A000A4
:10047C0023AEF1F21305F0FF67800000130101FFBA
:10048C0023202101138941F38327090023248100B0
:10049C0023229100232611009384050013040600E7
:1004AC00638A0702130604009385040017E5000015
:1004BC001305857BEF00C06B8320C100130504007E
:1004CC00032481008324410003290100130101014D
:1004DC0067800000B7C50100130630009385052026
:1004EC0017E5000013054578EF00405B93071000FB
:1004FC002320F9006FF01FFB23A2A1F213050000CB
:10050C0067800000138741F2832707003385A7001B
:10051C002320A700637C2500170703001307C7AD32
:10052C006376E50013850700678000009307C00021
:10053C0023AEF1F29307F0FF1385070067800000EC
:10054C00130101FF23229100232611002324810093
:10055C0023202101930710089384050063C8170911
:10056C009307F00263C0170793071001639AF80210
:10057C00930780FA23AEF1F28320C100032481009B
:10058C00832441000329010013010101678000004D
:10059C0093079009E382F8FE9307900AE38AF8FC2C
:1005AC001307500597E70000938787B7B70600102D
:1005BC009387170023A0E60003C70700E31A07FE82
:1005CC006FF09FFB938808FD93071005E3EA17FD76
:1005DC0017E70000130707B793982800B388E800C3
:1005EC0083A70800B387E700678007009307F040F4
:1005FC00E3C817FB9307F03F63D61703938808C033
:10060C009307F000E3EE17F917E70000130707C88C
:10061C0093982800B388E80083A70800B387E70005
:10062C00678007009307C00AE388F8F4E3D217F752
:10063C009307600DE396F8F623A2A1F26FF0DFF3B7
:10064C008320C100032481009307800523AEF1F2BF
:10065C00832441000329010013010101678000007C
:10066C008320C10003248100B727000023A2F400DB
:10067C00032901008324410013010101678000005C
:10068C009307F00123AEF1F26FF01FEF93072000F8
:10069C0023AEF1F26FF05FEEB707048023A0A70042
:1006AC00730050106F0000009307600123AEF1F24D
:1006BC006FF09FEC138941F38327090013040600A4
:1006CC006386070213060400032481008320C10003
:1006DC0003290100938504008324410017E50000E1
:1006EC0013058558130101016F008048B7C501003F
:1006FC00130630009385052017E500001305C55639
:10070C00EF00C039930710002320F9006FF09FFB16
:10071C0013050000678000001305000067800000CF
:10072C0013050000678000001305000067800000BF
:10073C0013050000678000001305000067800000AF
:10074C00130500006780000013050000678000009F
:10075C00130500006780000013050000678000008F
:10076C00130500006780000013050000678000007F
:10077C00130500006780000013050000678000006F
:10078C00130500006780000013050000678000005F
:10079C00130500006780000013050000678000004F
:1007AC00130500006780000013050000678000003F
:1007BC00130500006780000013050000678000002F
:1007CC00130500006780000013050000678000001F
:1007DC00130500006780000013050000678000000F
:1007EC0013050000678000001305000067800000FF
:1007FC0013050000678000001305000067800000EF
:10080C0013050000678000001305000067800000DE
:10081C008327C5006380070C03280501630C080AB5
:10082C0083250500034695008326450103C7450132
:10083C001377F70F3366C700A304C50013770702BD
:10084C00630807083306D8401307F0006368C70A2B
:10085C00630406083387D700034307009388160008
:10086C001307100023806500232A1501630CE6048E
:10087C0033871701034E070013872600130320004C
:10088C002380C501232AE500630E66023387E70047
:10089C00034E070013873600130330002380C50175
:1008AC00232AE500630066023387E7000343070051
:1008BC00938646001307400023806500232AD50049
:1008CC006318E6089306000063140602B38616014B
:1008DC006304D8006780000083C745002328050007
:1008EC0093F7D70F2382F500678000001306F00002
:1008FC009306F6FFB38616016FF09FFD3387D70082
:10090C000346070093881600338717012380C50020
:10091C00232A150103430700138726003386E700BB
:10092C0023806500232AE500034306001387360065
:10093C003386E70023806500232AE5000347060081
:10094C0093864600130600012380E500232AD50078
:10095C003387D700034E070013871600130350008C
:10096C002380C501232AE500E30E66F43387E700F4
:10097C00034E070013872600130360002380C50174
:10098C00232AE500E30066F43387E700034E0700F3
:10099C0013873600130370002380C501232AE5005A
:1009AC00E30266F23387E700034E07001387460025
:1009BC00130380002380C501232AE500E30466F0BD
:1009CC003387E700034E070013875600130390008C
:1009DC002380C501232AE500E30666EE3387E70092
:1009EC00034E0700138766001303A0002380C50184
:1009FC00232AE500E30866EC3387E700034E070083
:100A0C00138776001303B0002380C501232AE50069
:100A1C00E30A66EA3387E700034E07001387860074
:100A2C001303C0002380C501232AE500E30C66E80C
:100A3C003387E700034E0700138796001303D0009B
:100A4C002380C501232AE500E30E66E63387E70021
:100A5C00034E07001387A6001303E0002380C50193
:100A6C00232AE500E30066E63387E700034E070020
:100A7C001387B600130300012380C501232AE50068
:100A8C00E31666E6B387E70083C707009386C600C4
:100A9C002380F500232AD5006FF0DFE2130101FE5D
:100AAC00232A910083240500232C81002328210173
:100ABC0023263101232E11002382040023840400F9
:100ACC00930770FC2384F400238804002322B500D0
:100ADC00130405003785D717138905009309060001
:100AEC0093060000138605001305054093050000CE
:100AFC00EF10800DB70780006374F5029357F50073
:100B0C00130700F82386E40093F7F70F13557500CD
:100B1C002382F4001375F50F2380A40023860400B0
:100B2C002386340123043401A30404009707000036
:100B3C00938747CE232224018320C101232804005C
:100B4C0023260400232A0400232E0400232C040053
:100B5C00232204022320F402032481018324410173
:100B6C00032901018329C1001301010267800000E0
:100B7C00130101FF23260100638A05086308060898
:100B8C00032505003386C500130710038346450172
:100B9C00232601008327C10093F6F60F636CF70040
:100BAC008327C100938717002326F1008327C100F8
:100BBC00E378F7FE93F60602E38A06FC232601008F
:100BCC008327C100636CF7008327C100938717004C
:100BDC002326F1008327C100E378F7FE83C70500C5
:100BEC002300F500232601008327C100636CF70066
:100BFC008327C100938717002326F1008327C100A8
:100C0C00E378F7FE93851500E312B6F813010101A2
:100C1C00678000006384050403C6050063000604B6
:100C2C0003270500130101FF938615008347470135
:100C3C0093F7F70FA307F1008347F10093F707022F
:100C4C00E38607FE2300C70003C606009386160042
:100C5C00E31E06FC130101016780000067800000A1
:100C6C00630E0602638C050203270500970600003D
:100C7C00938646BA2326B500834747002328C50030
:100C8C00232A050093F7F70F2320D50293E72700BB
:100C9C002302F700F32740F163840700678000000C
:100CAC003727000C97E70000938707FC8326070083
:100CBC003305F54013351500930710003395A70045
:100CCC003365D5002320A70067800000832705002B
:100CDC00034795008326050183C7470193F7F70F58
:100CEC0033E7E700A304E5006398060013D567001B
:100CFC001375150067800000130500006780000065
:100D0C001307050063840506630206060328050025
:100D1C00834695008347480193F7F70FB3E6D70056
:100D2C00A304D50093F71700638207041305000092
:100D3C006F008000630AA60283460800B387A500F3
:100D4C00130515002380D70003280700834697005E
:100D5C008347480193F7F70FB3E6D700A304D700F6
:100D6C0093F71700E39807FC678000001305000059
:100D7C0067800000F32740F163960702B726000C4A
:100D8C0097E70000938747EE03A60600B307F540EC
:100D9C0013B7170093071000B397E700B3E7C7002A
:100DAC0023A0F600B70701009387F7FF638EF500C9
:100DBC000327050093F5F5008347470093F7F70FDA
:100DCC00B3E5F5002302B7006780000063800504DB
:100DDC009307000C63ECC70203270500232EB50014
:100DEC008347870093F7F70333E6C7001376F60FB4
:100DFC002304C7008347470093F7F70F93E71700C7
:100E0C002302F700F32740F163840700678000009A
:100E1C003727000C97E70000938707E58326070028
:100E2C003305F54013351500930710003395A700D3
:100E3C003365D5002320A700678000006386050278
:100E4C00032705002320B50223260500834747000E
:100E5C002328050093F7F70F93E727002302F700E9
:100E6C00F32740F163840700678000003727000CEC
:100E7C0097E70000938747DF832607003305F5408B
:100E8C0013351500930710003395A7003365D50073
:100E9C002320A7006780000063820502032705005A
:100EAC002322B5028347470093F7F70F93E7870098
:100EBC002302F700F32740F16384070067800000EA
:100ECC003727000C97E70000938707DA8326070083
:100EDC003305F54013351500930710003395A70023
:100EEC003365D5002320A7006780000063880510B8
:100EFC0063060610032705008346950083474701C8
:100F0C0093F7F70FB3E6D700A304D50093F70702C6
:100F1C006386070E9307F00063F6C70E83C70500C0
:100F2C00130500012300F70083C715002300F70009
:100F3C0083C725002300F70083C735002300F70083
:100F4C0083C64500930750002300D700630CF50CB3
:100F5C0083C65500930760002300D7006304F50C8B
:100F6C0083C66500930770002300D700630CF50A55
:100F7C0083C67500930780002300D7006304F50A2D
:100F8C0083C68500930790002300D700630CF508F7
:100F9C0083C695009307A0002300D7006304F508CF
:100FAC0083C6A5009307B0002300D700630CF50699
:100FBC0083C6B5009307C0002300D7006304F50671
:100FCC0083C6C5009307D0002300D700630CF5043B
:100FDC0083C6D5009307E0002300D7006304F50413
:100FEC0083C6E500930700012300D7006312F506C2
:100FFC0083C7F5002300F70067800000130500008D
:10100C006780000083C70500130510002300F7005C
:10101C00630AA60083C71500130520002300F70000
:10102C006314A6006780000083C7250013053000F9
:10103C002300F700E308A6FE83C735001305400024
:10104C002300F700E300A6FE130506006FF05FEF28
:10105C001305F00067800000832705000347950007
:10106C0083C74701A304050033E5E7001375E509C1
:10107C00678000008327050003C587011375F50FF2
:10108C0067800000832705000347950083C747014D
:10109C0093F7F70F33E7E700A304E50013F5070612
:1010AC0067800000032705008347C70093F7F70FFD
:1010BC0093E707042306F700678000000327050069
:1010CC008347C70093F7F70B2306F70067800000F0
:1010DC00130101FF2320210193F5F50013090500ED
:1010EC001315050123229100135505419384F5FF37
:1010FC00335595402326110023248100EF00003343
:10110C00130405001355094133559540EF00003287
:10111C0013051500130414001355154013541440F3
:10112C001315050113140401135505018320C10087
:10113C003365A400032481008324410003290100AA
:10114C001301010167800000130101FD2326110228
:10115C00232481022322910223202103232E3101F7
:10116C0093090500EF005075930405009394040156
:10117C00EF009074B3E4A400EF0010749358F541A1
:10118C0093D8B80133091501139504011355054182
:10119C001379F9011355954033091941EF000029D2
:1011AC001304050013D59441EF00402813071500D4
:1011BC00130414001357174013541440131707014A
:1011CC009317040113570701B3E7E7007787A4705F
:1011DC002326E1000327C10097D600009386860FD3
:1011EC003304F740133414006306F70097D600005D
:1011FC009386C60D0327C1009378F90F138804005A
:10120C009385090017D600001306460D17D500006C
:10121C001305450DEF1080358320C1021305040022
:10122C000324810283244102032901028329C10181
:10123C001301010367800000130101FF232021012A
:10124C0093F5F500130905001315050123229100F0
:10125C00135505419384F5FF335595402326110012
:10126C0023248100EF00801C130405001355094151
:10127C0033559540EF00801B130414001305150023
:10128C001354144013551540131404011354040142
:10129C00131505018320C1003365850003248100EB
:1012AC008324410003290100130101016780000020
:1012BC00130101F4232E110A232C810A232A910AEB
:1012CC002328210B2326310B2324410B130A050061
:1012DC00EF00905E9304050093940401EF00D05D41
:1012EC00B3E4A400EF00505DEF00105D9379F500BE
:1012FC00139504011384F9FF1355054133558540AB
:10130C00EF00C0121309050013D504413355854075
:10131C00EF00C011130919001304150013591940DB
:10132C00135414401319090113590901131404011E
:10133C0033642401F787346113850400930501019C
:10134C002326F100EF0040099305410313850900A2
:10135C00EF0080080325C10093058105EF00C0074D
:10136C009305C10713050400EF0000078327C10094
:10137C0097D60000938606F6B384874093B4140086
:10138C006386870097D60000938646F493880900FD
:10139C00130801019307C1071307810593050A0080
:1013AC0017D600001306460017D50000130545009C
:1013BC00EF10C01B8320C10B0324810B0329010BED
:1013CC008329C10A032A810A138504008324410B53
:1013DC001301010C67800000938605009307F00150
:1013EC0013061000130310031308F0FF93080003F7
:1013FC003317F6003377A700631E0700238016010E
:10140C009387F7FF93861600E39407FF238005026A
:10141C0067800000238066009387F7FF9386160091
:10142C00E39807FD2380050267800000B7070100E1
:10143C00B377F50063860700B707FEFF3365F50049
:10144C0067800000935705411315050193F5F500CE
:10145C00135505413355B540B3D7B74013150501A6
:10146C00939707011355050133E5A700678000002A
:10147C00130101F4232E110A232C810A232A910A29
:10148C002328210B2326310B93090500EF00D042B2
:10149C001304050013140401EF0010423364A4007C
:1014AC00EF009041EF005041931704011379F500C0
:1014BC0093D7074193540441B3D72741B3D4244164
:1014CC009397070193D7070193940401B3E4F400B5
:1014DC00F707245113050400930501012326F1009D
:1014EC00EFF09FEF9305410313050900EFF0DFEEDA
:1014FC000325C10093058105EFF01FEE9305C1078D
:10150C0013850400EFF05FED8327C10097D6000030
:10151C00938646DC3384974013341400638697001B
:10152C0097D60000938686DA930809001308010108
:10153C009307C107130781059385090017D600008F
:10154C00130686EB17D50000130585E6EF10000295
:10155C008320C10B130504000324810B8324410B4E
:10156C000329010B8329C10A1301010C67800000B8
:10157C00130101FF2320210193F5F5001309050048
:10158C001315050123229100135505419384F5FF92
:10159C00335595402326110023248100EFF01FE9D9
:1015AC00130405001355094133559540EFF01FE81E
:1015BC00130414001305150013541440135515404F
:1015CC001314040113540401131505018320C100E5
:1015DC003365850003248100832441000329010025
:1015EC001301010167800000130101FD2326110284
:1015FC00232481022322910223202103232E310153
:10160C0093090500EF00502B9304050093940401FB
:10161C00EF00902AB3E4A400EF00102A1354F54114
:10162C009357B4013304F500139504011355054188
:10163C001374F401135595403304F440EFF01FDF9D
:10164C001309050013D59441EFF05FDE130919005F
:10165C00930715001359194093D717401319090113
:10166C0013590901939707011374F40FB3E727017A
:10167C007784A471232681000327C10097D600002C
:10168C00938646C53304F740133414006306F70001
:10169C0097D60000938686C30327C10013880400E5
:1016AC00938509009308A00017D60000130646D5B1
:1016BC0017D50000130585D5EF00506B8320C102B0
:1016CC00130504000324810283244102032901022F
:1016DC008329C1011301010367800000930E0500EB
:1016EC001308000063C6051263DC0600B337C000A4
:1016FC00B306D0401348F8FFB386F6403306C0401B
:10170C009387060013030600138E0E0093880500C2
:10171C006398060E63F0C516370701006360E62474
:10172C00B7070001636AF64493568601930780015C
:10173C0037E700801307C7453307D7000347070077
:10174C0093060002B307F7003387F640638CF6006C
:10175C00B395E500B3D7FE003313E600B3E8B7004A
:10176C00339EEE0093550301B3D7B8021316030151
:10177C001356060113570E01B3F6B8023305F602E1
:10178C0093960601B3E8E60063FCA800B3886800F2
:10179C001387F7FF63E4680063ECA8409307070026
:1017AC00B388A840B3D6B802131E0E01135E0E0107
:1017BC00B3F8B8023306D60293980801B3E8C8010F
:1017CC0063FEC800B30813011387F6FF63E66800D5
:1017DC009386E6FF63E4C8009306070013950701A0
:1017EC003365D50093050000630A0800B337A000E9
:1017FC00B305B040B385F5403305A04067800000C9
:10180C0063F4D50293050000130500006FF0DFFDB3
:10181C00B337A000B305B040B385F540B30EA0407C
:10182C001308F0FF6FF05FECB707010063E4F614E8
:10183C00B707000163E0F63213D586011307800168
:10184C00B7E700809387C745B387A70083C8070015
:10185C0093070002B388E800338317416398171D80
:10186C0063E2B63233B5CE00134515009305000084
:10187C006FF09FF763160600130310003353D30267
:10188C00370701006360E30CB70700016360F32EB8
:10189C00935683019307800137E700801307C745F0
:1018AC003307D7000347070093060002B307F7007E
:1018BC003387F640639AF60C131F0301B386654019
:1018CC00935F0301135F0F019305100013570E0173
:1018DC00B3D7F603B3F6F6033386E7039396060104
:1018EC0033E7E600637CC700330767009386F7FF96
:1018FC00636467006364C72C938706003307C74093
:10190C00B356F703131E0E01135E0E013377F70364
:10191C00338FE603131707013367C701637EE701B3
:10192C003307E3001386F6FF636667009386E6FFD2
:10193C006364E70193060600139507013365D50030
:10194C006FF09FEA1307F00F93060300E37667F43A
:10195C0093568300930780006FF01FF41307F00F6A
:10196C0093060600E376C7DC935686009307800047
:10197C006FF01FDC9307F00F63F4D71E13D58600AE
:10198C00130780006FF0DFEB3313E30033D6F50061
:10199C00935F0301B358F603B395E500B3D7FE008C
:1019AC00B3E6B700131F0301135F0F0113D5060134
:1019BC00339EEE00B377F603B3051F03939707012D
:1019CC00B3E7A70063FEB700B38767001387F8FF80
:1019DC0063EC671C63FAB71C9388E8FFB387670056
:1019EC00B387B74033D7F7039395060193D5050119
:1019FC00B3F7F7033306EF0293960701B3E5B6008E
:101A0C0063FEC500B38565009307F7FF63E66518B1
:101A1C0063F4C5181307E7FFB385650093980801B5
:101A2C00B386C540B3E5E8006FF05FEAB357160123
:101A3C00B3966600B3E6D70033D7150193DF0601E2
:101A4C00335FF703139E0601135E0E01B395650019
:101A5C00B3D81E01B3E5B80093D705013316660061
:101A6C003377F7033305EE0313170701B367F7005A
:101A7C0063FEA700B387D7001307FFFF63E2D712FB
:101A8C0063F0A712130FEFFFB387D700B387A740FC
:101A9C0033D7F7039395050193D50501B3F7F703F6
:101AAC00B308EE0293970701B3E5B70063FE150187
:101ABC00B385D5009307F7FF63ECD50C63FA150DCE
:101ACC001307E7FFB385D50013150F01B70F0100FE
:101ADC003365E5009387FFFF3377F500135E05014F
:101AEC00B377F60013560601330FF702B385154191
:101AFC003307C70293560F01B307FE023307F700F3
:101B0C003387E6003306CE026374F7003306F60122
:101B1C00135E07013306CE0063E8C5026386C50079
:101B2C00930500006FF05FCCB70601009386F6FFBB
:101B3C003377D70093170701337FDF00B39E6E0016
:101B4C00B387E701E3FEFEFC1305F5FF93050000E8
:101B5C006FF09FC913D50601130700016FF05FCE1C
:101B6C0013850600130700006FF09FCD93560301F9
:101B7C00930700016FF05FD29356060193070001A3
:101B8C006FF01FBB93050000130510006FF0DFC54D
:101B9C00138707006FF05FF3138707006FF01FE8E0
:101BAC00130F07006FF09FEE930807006FF05FE3D1
:101BBC009387E7FFB38868006FF09FBE9387E7FFBA
:101BCC00330767006FF09FD3138E0600930806004F
:101BDC001303050013880500639E060C63FAC512F7
:101BEC00B7070100636AF620B70700016366F64287
:101BFC0013578601130E8001B7E700809387C74502
:101C0C00B387E70083C7070013070002338EC701B1
:101C1C00B307C741630CC7013398F500335EC501A8
:101C2C00B318F60033680E013313F50093D5080191
:101C3C003355B8029396080193D6060193570301C6
:101C4C003377B8023386A602131707013368F700FF
:101C5C00637CC800330818019307F5FF636418010F
:101C6C006368C83E138507003308C8403356B80272
:101C7C0013130301135303013378B802B386C6025E
:101C8C001318080133686800637ED8003388080194
:101C9C009307F6FF636618011306E6FF6364D8002A
:101CAC0013860700131505013365C5009305000065
:101CBC006780000063F8D500930500001305000051
:101CCC0067800000B707010063E4F614B707000152
:101CDC0063E2F63213D8860113078001B7E7008060
:101CEC009387C745B387070103CE0700930700020C
:101CFC00330EEE00B38EC7416398C71D63E4B63252
:101D0C003336C500134516009305000067800000AC
:101D1C006316060093071000B3D8C702B70701007B
:101D2C0063E0F80CB707000163E2F82E13D78801C3
:101D3C00130E8001B7E700809387C745B387E70090
:101D4C0083C6070093070002338EC601B382C741D6
:101D5C00639AC70D139F08013387154193DF080160
:101D6C00135F0F0193051000935703013355F703CD
:101D7C003377F703B306E50313170701B367F700CF
:101D8C0063FCD700B38717011307F5FF63E4170152
:101D9C0063E6D72C13050700B387D74033D6F70378
:101DAC001313030113530301B3F7F703330FE603C4
:101DBC0093970701B3E7670063FEE701B387F80069
:101DCC001307F6FF63E617011306E6FF63E4E7016A
:101DDC0013060700131505013365C5006780000065
:101DEC009307F00F13870800E3F617F513D7880055
:101DFC00130E80006FF01FF49307F00F130706000B
:101E0C00E3FCC7DE13578600130E80006FF0DFDE95
:101E1C009307F00F63F6D71E13D8860013078000C4
:101E2C006FF0DFEBB398580033D6C50193DF080190
:101E3C00B35EF603139F0801135F0F013397550030
:101E4C00335EC5013367EE0093550701331355001C
:101E5C00B376F603B307DF0393960601B3E6B60039
:101E6C0063FEF600B38616011386FEFF63EE161DA5
:101E7C0063FCF61C938EEEFFB3861601B386F64018
:101E8C00B3D7F603131E0701135E0E01B3F6F60368
:101E9C003306FF02139706013367C701637EC70041
:101EAC00330717019386F7FF636817196376C71812
:101EBC009387E7FF3307170193950E013307C7404C
:101ECC00B3E5F5006FF05FEAB357C601B396D601E0
:101EDC00B3E6D70033D3C50113DF0601B358E303D0
:101EEC0013970601135707013398D501335EC501CB
:101EFC0033680E01935708013316D6013373E3038D
:101F0C00B305170313130301B367F30063FEB700A4
:101F1C00B387D7001383F8FF63E4D71263F2B712C9
:101F2C009388E8FFB387D700B387B74033D3E70371
:101F3C001318080113580801B3F7E703B305670238
:101F4C009397070133E80701637EB8003308D80084
:101F5C009307F3FF636ED80C637CB80C1303E3FF99
:101F6C003308D80093980801370F0100B3E86800D4
:101F7C009307FFFF33F7F80013D30801B377F6008C
:101F8C0013560601330EF7023308B8403307C70265
:101F9C0093560E01B307F3023307F7003387E600BD
:101FAC003306C3026374F7003306E60113530701CB
:101FBC003306C300636AC8026308C80013850800AF
:101FCC009305000067800000B70601009386F6FFBA
:101FDC003377D70093170701337EDE003315D50115
:101FEC00B387C701E37CF5FC1385F8FF930500006C
:101FFC006780000013D80601130700016FF01FCE95
:10200C0013880600130700006FF05FCD13D708018B
:10201C00130E00016FF01FD213570601130E0001AF
:10202C006FF09FBD93050000130510006780000042
:10203C00138307006FF01FF3938706006FF0DFE741
:10204C00930803006FF05FEE930E06006FF01FE332
:10205C001305E5FF330818016FF01FC11305E5FFE9
:10206C00B38717016FF05FD393050500930600004B
:10207C0013060000130500006F009050130101FFC0
:10208C00930500002324810023261100130405006E
:10209C00EF00905883A781F363840700E780070063
:1020AC0013050400EFE0CFA983A781F223ACA708A6
:1020BC0023AE07086780000003A881F2B785954C12
:1020CC009385D5F2832688090327C809B387B602FE
:1020DC0013861700B337F600232CC80837F651586F
:1020EC001306D6423386C6023307B702B3B6B6021E
:1020FC003307C7003307D700B387E70013951700E2
:10210C00232EF808135515006780000013050000F6
:10211C0067800000B775008037F5008013868182D8
:10212C00938545B3130585CA6F000035130101FF74
:10213C0083254500232481002322910023261100AE
:10214C00138441F59304050063848500EF40D01D92
:10215C0083A58400930784066386F5001385040029
:10216C00EF40901C83A5C4001304040D638E8500FE
:10217C00032481008320C1001385040083244100C3
:10218C00130101016F40501A8320C1000324810008
:10219C008324410013010101678000001305000036
:1021AC0067800000130101FE232C8100B7270080FB
:1021BC00138441F59387071223ACF1F213068000C8
:1021CC0093074000930500001305C405232E11004E
:1021DC00232A9100232821012326310123244101A4
:1021EC002326F400232204062320040023220400C7
:1021FC002324040023280400232A0400232C040095
:10220C00EF009021372A0080B72900803729008001
:10221C00B7240080B7070100130ACA6993890970B3
:10222C00130989789384047F9387970013068000A1
:10223C00930500001305440C23204403232234038C
:10224C002324240323269402232AF406232E840019
:10225C002326040C23240406232604062328040620
:10226C00232C0406232E040623200408EF00D01A86
:10227C00930784062322F408B707020093872701EB
:10228C001305C4121306800093050000232444098F
:10229C002326340923282409232A9408232EF40CFA
:1022AC00232A04122328040C232A040C232C040CA8
:1022BC002320040E2322040E2324040EEF00D01539
:1022CC009307040D2328440F232A340F232C240FA7
:1022DC00232E940E8320C1012326F40E03248101A6
:1022EC0083244101032901018329C100032A8100B0
:1022FC00130101026780000083A781F3130101FE23
:10230C0023263101232E1100232C8100232A910036
:10231C002328210123244101930905006388070E1A
:10232C00138981829304F0FF130A4000832749002C
:10233C00032489009387F7FF63D807006F004008D8
:10234C0013048406638E97060317C4009387F7FF64
:10235C00E31807FEB707FFFF938717002322040635
:10236C002320040023220400232404002326F40049
:10237C0023280400232A0400232C040013068000C5
:10238C00930500001305C405EF001009232804026F
:10239C00232A040223220404232404048320C101DD
:1023AC001305040003248101832441010329010145
:1023BC008329C100032A81001301010267800000F8
:1023CC000324090063060400130904006FF01FF6D0
:1023DC009305C01A13850900EF00D079130405008A
:1023EC00630A05021305C5002320040023224401BF
:1023FC002324A4001306001A93050000EF00D0015B
:10240C0023208900130904006FF05FF2EFF09FD9CD
:10241C006FF01FF1232009009307C00023A0F900DF
:10242C006FF0DFF7832745036384070067800000A4
:10243C0003A781F3B727008093878713232AF5021C
:10244C00E31607FE6FF01FD6678000006780000060
:10245C00B7250080138681829385851113050000B2
:10246C006F008001B7250080138681829385851AC1
:10247C00130500006F004000130101FD2320210310
:10248C00232E3101232C4101232A510123286101E0
:10249C002326710123261102232481022322910277
:1024AC00930B0500138B0500930A0600130A00001A
:1024BC00930910001309F0FF83A44A0003A48A00B7
:1024CC009384F4FF63C804028357C4009384F4FF1D
:1024DC0063FEF9008317E4009305040013850B00D9
:1024EC0063862701E7000B00336AAA0013048406F5
:1024FC00E39C24FD83AA0A00E3900AFC8320C1021A
:10250C000324810283244102032901028329C1018E
:10251C00832A4101032B0101832BC10013050A00FF
:10252C00032A81011301010367800000130101FCE0
:10253C002324C1022326D1022328E102232AF102FB
:10254C00232C0103232E11031386050083258500FC
:10255C0093068102232E11002326D100EF10805BFD
:10256C008320C101130101046780000003A381F2E1
:10257C00130101FC2324C1022326D1022322B10220
:10258C002328E102232AF102232C0103232E110319
:10259C0083258300930641021306050013050300EF
:1025AC00232E11002326D100EF10C0568320C10129
:1025BC001301010467800000130101FC232C81022C
:1025CC001304050013850500232A9102232E110202
:1025DC0093840500EF000072B7E700809387C7551E
:1025EC002324F102930710002326F102032744034E
:1025FC009307010293061500232AF100930720008C
:10260C00232091022322A102232ED100232CF1009E
:10261C0083258400630E07048397C5001397270155
:10262C006342070203A74506B7260000B3E7D700AD
:10263C00B7E6FFFF9386F6FF3377D7002396F500B6
:10264C0023A2E5061306410113050400EF40500FC9
:10265C008320C103032481033335A0003305A0403C
:10266C00832441031365A500130101046780000056
:10267C00130504002326B100EFF0DFDA8325C10037
:10268C006FF09FF99305050003A581F26FF0DFF25F
:10269C00130101FF23248100138405008395E500B9
:1026AC0023261100EF00C03A63400502832704057E
:1026BC008320C100B387A7002328F40403248100DE
:1026CC0013010101678000008357C40037F7FFFF37
:1026DC001307F7FFB3F7E7008320C1002316F400BC
:1026EC000324810013010101678000001305000021
:1026FC00678000008397C500130101FE232C810025
:10270C00232A91002328210123263101232E110095
:10271C0013F7071013840500930405008395E50057
:10272C001309060093890600631E070237F7FFFFA3
:10273C001307F7FFB3F7E7002316F4000324810116
:10274C008320C10193860900130609008329C10067
:10275C0003290101138504008324410113010102A3
:10276C006F0080359306200013060000EF00C02791
:10277C008317C4008315E4006FF05FFB130101FFA6
:10278C0023248100138405008395E5002326110082
:10279C00EF0080259307F0FF6304F5028357C40014
:1027AC00371700008320C100B3E7E7002328A404F7
:1027BC002316F4000324810013010101678000003B
:1027CC008357C40037F7FFFF1307F7FFB3F7E70092
:1027DC008320C1002316F40003248100130101019E
:1027EC00678000008395E5006F000007130101FE70
:1027FC00232C81001304050003A581F21307F0FFBD
:10280C009307F0FF1306000093050100232E11001F
:10281C002320E1002322F100EF00C01663480502DB
:10282C000327010083274100630604002320E400F2
:10283C002322F4008320C101032481011305070026
:10284C009385070013010102678000001307F0FF56
:10285C009307F0FF6FF05FFD130101FF232481004C
:10286C002322910013040500138505002326110073
:10287C0023AE01F2EFD05FAB9307F0FF630CF500D2
:10288C008320C10003248100832441001301010132
:10289C006780000083A7C1F3E38407FE8320C10097
:1028AC002320F4000324810083244100130101013F
:1028BC006780000083A781F26384A70C83254504FD
:1028CC00130101FE232A9100232E1100232C8100D9
:1028DC00232821012326310193040500638005047C
:1028EC001309000093090008B387250103A407000E
:1028FC00630E0400930504000324040013850400F4
:10290C00EF008076E31804FE83A544041309490004
:10291C00E31C39FD13850400EF00007583A58403C7
:10292C006386050013850400EF00007483A5C404BE
:10293C006386050013850400EF00007383A744032E
:10294C0063820702032481018320C1010329010151
:10295C008329C10013850400832441011301010262
:10296C00678007008320C101032481018324410176
:10297C00032901018329C1001301010267800000B2
:10298C0067800000130101FF1387050023248100D9
:10299C00232291001304050093050600130507007C
:1029AC002326110023AE01F2EFD01FA19307F0FFF5
:1029BC00630CF5008320C1000324810083244100B3
:1029CC00130101016780000083A7C1F3E38407FEB4
:1029DC008320C1002320F4000324810083244100C0
:1029EC001301010167800000130101FF138705002B
:1029FC002324810023229100930506001304050073
:102A0C0013860600130507002326110023AE01F2DE
:102A1C00EFD05F9E9307F0FF630CF5008320C1009D
:102A2C00032481008324410013010101678000000D
:102A3C0083A7C1F3E38407FE8320C1002320F400A5
:102A4C0003248100832441001301010167800000ED
:102A5C00130101FF13870500232481002322910019
:102A6C0093050600130405001386060013050700E2
:102A7C002326110023AE01F2EFD0DF9A9307F0FF6B
:102A8C00630CF5008320C1000324810083244100E2
:102A9C00130101016780000083A7C1F3E38407FEE3
:102AAC008320C1002320F4000324810083244100EF
:102ABC001301010167800000130101FF138705005A
:102ACC0023248100232291009305060013040500A2
:102ADC0013860600130507002326110023AE01F20E
:102AEC00EFD0DF999307F0FF630CF5008320C10052
:102AFC00032481008324410013010101678000003D
:102B0C0083A7C1F3E38407FE8320C1002320F400D4
:102B1C00032481008324410013010101678000001C
:102B2C00130101FF232481002320210137F40080AD
:102B3C0037F90080930704C7130909C73309F94013
:102B4C002326110023229100135929406300090206
:102B5C00130404C793040000832704009384140017
:102B6C0013044400E7800700E31899FE37F4008053
:102B7C0037F90080930704C7130909C73309F940D3
:102B8C001359294063000902130404C7930400007D
:102B9C00832704009384140013044400E780070087
:102BAC00E31899FE8320C100032481008324410093
:102BBC00032901001301010167800000130101FFCB
:102BCC0023248100B7F7008037F40080130404C776
:102BDC00938707C7B38787402322910023261100D0
:102BEC0093D42740638004029387C7FF3384870004
:102BFC00832704009384F4FF1304C4FFE7800700C9
:102C0C00E39804FE8320C100032481008324410047
:102C1C0013010101678000001303F0001307050086
:102C2C00637EC3029377F7006390070A63920508EB
:102C3C00937606FF1376F600B386E6002320B700E2
:102C4C002322B7002324B7002326B700130707015C
:102C5C00E366D7FE6314060067800000B306C3402A
:102C6C009396260097020000B38656006780C60034
:102C7C002307B700A306B7002306B700A305B700C8
:102C8C002305B700A304B7002304B700A303B700C0
:102C9C002303B700A302B7002302B700A301B700B8
:102CAC002301B700A300B7002300B7006780000022
:102CBC0093F5F50F93968500B3E5D5009396050132
:102CCC00B3E5D5006FF0DFF693962700970200006E
:102CDC00B386560093820000E78006FA93800200C8
:102CEC00938707FF3307F7403306F600E378C3F604
:102CFC006FF0DFF39377350013070500639C07042F
:102D0C00B7867F7F9386F6F79305F0FF03260700BF
:102D1C0013074700B377D600B387D700B3E7C700D4
:102D2C00B3E7D700E384B7FE8346C7FF0346D7FF5C
:102D3C008347E7FF3307A74063800604630A060254
:102D4C003335F0003305E5001305E5FF678000001F
:102D5C00E38806FA834707001307170093763700BA
:102D6C00E39807FE3307A7401305F7FF67800000C1
:102D7C001305D7FF678000001305C7FF67800000AD
:102D8C0083A701F4638C070403A747001308F00121
:102D9C006340E80813182700630605023383070114
:102DAC002324C30883A88718130610003316E600E3
:102DBC00B3E8C80023A417192324D31093062000CA
:102DCC006306D5021307170023A2E700B387070198
:102DDC0023A4B70013050000678000001388C10806
:102DEC0023A001F59387C1086FF01FFA83A6C718BB
:102DFC001307170023A2E70033E6C60023A6C71863
:102E0C00B387070123A4B7001305000067800000F7
:102E1C001305F0FF67800000130101FD232C410115
:102E2C002320210303A901F4232611022324810268
:102E3C0023229102232E3101232A510123286101DF
:102E4C00232671012324810163000904130B05005F
:102E5C00938B0500930A10009309F0FF832449001B
:102E6C001384F4FF6342040293942400B304990086
:102E7C0063840B0483A74410638077051304F4FF69
:102E8C009384C4FFE31634FF8320C1020324810220
:102E9C0083244102032901028329C101032A8101F0
:102EAC00832A4101032B0101832BC100032C8100D8
:102EBC0013010103678000008327490083A64400A7
:102ECC009387F7FF638E870423A20400E38806FA36
:102EDC008327891833978A00032C4900B377F700AE
:102EEC0063920702E78006000327490083A701F4D9
:102EFC0063148701E38427F9E38807F81389070033
:102F0C006FF0DFF58327C91883A544083377F700E2
:102F1C00631C070013050B00E78006006FF0DFFC55
:102F2C00232289006FF09FFA13850500E7800600C5
:102F3C006FF09FFB130101FE23263101B7F90080CE
:102F4C00232C8100232A91002328210123244101D1
:102F5C00232E1100138A050013090500938989DCBF
:102F6C00EF00D03A03A78900B71700001384F7FECF
:102F7C00832447003304444193F4C4FF3304940086
:102F8C001354C4001304F4FF1314C400634EF40070
:102F9C009305000013050900EF40D01483A78900A6
:102FAC00B38797006308F50213050900EF0050364C
:102FBC008320C101032481018324410103290101E0
:102FCC008329C100032A81001305000013010102AB
:102FDC0067800000B305804013050900EF40901096
:102FEC009307F0FF6308F5049387C12103A707003B
:102FFC0083A68900B384844093E41400330487408F
:10300C001305090023A2960023A08700EF0050307F
:10301C008320C1010324810183244101032901017F
:10302C008329C100032A810013051000130101023A
:10303C00678000009305000013050900EF40900A1B
:10304C0003A789009306F000B307E540E3DEF6F42E
:10305C0083A6C1F293E717002322F7003305D5406E
:10306C0023AEA1206FF05FF4638A0512130101FFF8
:10307C00232481002322910013840500930405006E
:10308C0023261100EF0090280328C4FF130784FFA8
:10309C00B7F500809377E8FF3306F700938585DC5E
:1030AC008326460003A5850093F6C6FF630AC51A5E
:1030BC002322D600137818003305D6006310080AB3
:1030CC00032384FF0328450037F50080330767404E
:1030DC0083288700130505DDB38767001378180074
:1030EC006380A8140323C70023A6680023241301BC
:1030FC006300081E93E617002322D7002320F60056
:10310C009306F01F63E8F60A93F687FF9386860012
:10311C0003A54500B386D50003A6060013D85700B7
:10312C0093071000B3970701B3E7A700138586FF39
:10313C002326A7002324C70023A2F50023A0E60022
:10314C002326E600032481008320C100138504009C
:10315C0083244100130101016F00901B03254500DE
:10316C0013751500631E050237F50080B387D70071
:10317C00130505DD8326860093E817003308F70056
:10318C006384A6160326C60023A6C6002324D600F5
:10319C00232217012320F8006FF09FF667800000B0
:1031AC0093E61700232ED4FE2320F6009306F01F7F
:1031BC00E3FCF6F493D69700130640006368D60E32
:1031CC0093D667001388960313868603131838006A
:1031DC003388050183260800130888FF6304D8127E
:1031EC0003A646001376C6FF63F6C70083A68600C7
:1031FC00E318D8FE03A8C600232607012324D70012
:10320C00032481008320C1002324E80013850400DB
:10321C008324410023A6E600130101016F00500F27
:10322C00631208148325C60003268600B387F600B4
:10323C00032481002326B60023A4C50093E61700BF
:10324C008320C1002322D700138504003307F70025
:10325C00832441002320F700130101016F00500B60
:10326C0013781800B387D70063100802032584FF76
:10327C003307A7408326C70003268700B387A70020
:10328C002326D60023A4C60013E6170083A601F359
:10329C002322C70023A4E500E3E6D7EA83A5C1F403
:1032AC0013850400EFF01FC96FF0DFE9130640012E
:1032BC006374D602130640056364D60693D6C70022
:1032CC001388F6061386E606131838006FF05FF0C5
:1032DC00B387D7006FF01FEA1388C6051386B605AF
:1032EC00131838006FF0DFEE23AAE50023A8E500E1
:1032FC002326A7002324A700232217012320F8004C
:10330C006FF05FE403A545001356264093071000A9
:10331C003396C7003366A60023A2C5006FF0DFED1D
:10332C0013064015636CD60093D6F70013888607F6
:10333C0013867607131838006FF09FE91306405573
:10334C00636CD60093D627011388D6071386C6075D
:10335C00131838006FF0DFE71308803F1306E007FF
:10336C006FF01FE793E617002322D7002320F60007
:10337C006FF05FDD130101FD232E310123261102B5
:10338C00232481022322910223202103232C410197
:10339C00232A510123286101232671012324810151
:1033AC00232291019387B50013076001930905004F
:1033BC006364F7069307000163E2B71EEF00007524
:1033CC009304000193078001130620001389819553
:1033DC00B307F90003A44700138787FF6308E420B1
:1033EC00832744008326C4000326840093F7C7FF79
:1033FC00B307F40003A747002326D60023A4C60076
:10340C00136717001385090023A2E700EF00407033
:10341C00130584006F00401993F487FF63C00718ED
:10342C0063EEB416EF00806E9307701F63FA974437
:10343C0093D794006384071A130740006360F73C2A
:10344C0093D764001386970313858703931636006E
:10345C0013898195B306D90003A44600938686FF91
:10346C00638686029305F0006F00000163520732F9
:10347C000324C400638C86008327440093F7C7FFA2
:10348C0033879740E3D4E5FE1306050003240901B6
:10349C009308890063081417032544009306F00071
:1034AC001375C5FFB307954063C2F640232A190173
:1034BC002328190163DC073C9307F01F63E0A72E58
:1034CC00937785FF9387870083254900B307F9001D
:1034DC0083A6070013555500130710003317A700D8
:1034EC003367B700938587FF2326B4002324D400C9
:1034FC002322E90023A0870023A6860093572640A9
:10350C0093051000B395F5006368B710B3F7E500A9
:10351C0063940702939515001376C6FFB3F7E50085
:10352C0013064600639A070093951500B3F7E50060
:10353C0013064600E38A07FE1308F0001313360047
:10354C0033036900130503008327C500130E06001F
:10355C006308F52C03A747001384070083A7C70053
:10356C001377C7FFB30697406348D82CE3C206FE17
:10357C003307E400832647000326840013850900E3
:10358C0093E616002322D7002326F60023A4C700B7
:10359C00EF000058130584006F0000019307C00072
:1035AC0023A0F900130500008320C102032481022B
:1035BC0083244102032901028329C101032A8101C9
:1035CC00832A4101032B0101832BC100032C8100B1
:1035DC00832C410013010103678000009306002037
:1035EC00130600041305F0036FF09FE603A4C70055
:1035FC0013062600E39687DE03240901930889004D
:10360C00E31C14E903274900935726409305100047
:10361C00B395F500E37CB7EE03248900832A4400BC
:10362C0013FBCAFF63689B00B3079B401307F000B2
:10363C00634CF71283AAC1F403A7C1F29307F0FFFE
:10364C00330A6401B38A54016304F734B7170000DA
:10365C009387F700B38AFA00B7F7FFFFB3FAFA00C3
:10366C0093850A0013850900EF40C0279307F0FFEC
:10367C00930B05006306F52863624529138CC12161
:10368C0083250C00B385BA002320BC00938705006A
:10369C00630EAA3883A6C1F21307F0FF6386E63ADD
:1036AC00338A4B41B307FA002320FC0093FC7B00C8
:1036BC0063820C30B7170000B38B9B419385870056
:1036CC00938B8B00B3859541B38A5B019387F7FF8E
:1036DC00B385554133FAF50093050A0013850900AB
:1036EC00EF4040209307F0FF630AF53A330575412C
:1036FC00B30A450183250C002324790193EA1A00AF
:10370C00B305BA002320BC0023A25B01630224355D
:10371C009306F00063F266350327440093074BFFD2
:10372C0093F787FF137717003367F7002322E40022
:10373C00130650003307F4002322C7002324C700CC
:10374C0063E8F63683AA4B0013840B0003A781F4BD
:10375C006374B70023A4B1F403A741F46376B71ADA
:10376C0023A2B1F46F00401A13E714002322E400E3
:10377C00B30494002324990093E7170013850900E0
:10378C0023A2F400EF00C038130584006FF0DFE1D2
:10379C008326C400032684006FF09FC593579500C1
:1037AC00130740006372F71413074001636AF72292
:1037BC009386C7059385B70593963600B306D90053
:1037CC0083A70600938686FF6388F61C03A7470031
:1037DC001377C7FF6376E50083A78700E398F6FEAF
:1037EC0083A6C700032749002326D4002324F40012
:1037FC0023A4860023A687006FF05FD01307400137
:10380C006376F71213074005636AF71E93D7C4005B
:10381C001386F7061385E706931636006FF05FC321
:10382C00130E1E0093773E0013058500638E071060
:10383C008327C5006FF0DFD10326840093E51400C5
:10384C002322B4002326F60023A4C700B30494005B
:10385C00232A99002328990093E7160023A6140124
:10386C0023A4140123A2F4003307E40013850900F8
:10387C002320D700EF00C029130584006FF0DFD29E
:10388C0013D63400938784006FF05FB43307A40021
:10389C00832747001385090093E717002322F700BD
:1038AC00EF000027130584006FF01FD013E71400FE
:1038BC002322E400B3049400232A990023289900BE
:1038CC0013E7170023A6140123A4140123A2E40078
:1038DC003305A4002320F50013850900EF004023D5
:1038EC00130584006FF05FCC9357650093869703A4
:1038FC0093858703939636006FF05FEC630E24116B
:10390C0003248900832A440093FACAFFB3879A40A0
:10391C0063E69A001307F000E348F7E41385090007
:10392C00EF00001F130500006FF01FC81386C705BA
:10393C001385B705931636006FF09FB1832783006C
:10394C001306F6FF6390671C93773600130383FF0F
:10395C00E39607FE0327490093C7F5FFB3F7E7008B
:10396C002322F90093951500E3E8B7CAE38605CA4C
:10397C0033F7F500631A07009395150033F7F5003C
:10398C00130E4E00E30A07FE13060E006FF01FBB6A
:10399C00938A0A016FF0DFCC0325490093D52540AB
:1039AC00130710003317B7003367A7002322E90071
:1039BC006FF09FE3B3855B01B305B0409395450170
:1039CC0013DA450193050A0013850900EF30907155
:1039DC009307F0FFE31CF5D0130A00006FF09FD1A2
:1039EC00130740056360F7089357C5009386F706E5
:1039FC009385E706939636006FF05FDC130740154E
:103A0C006360F70893D7F40013868707138577074D
:103A1C00931636006FF0DFA3138CC12183270C00A3
:103A2C00B387FA002320FC006FF0DFC613174A019E
:103A3C00E31207C603248900B30A5B0193EA1A0058
:103A4C00232254016FF09FD023A671F36FF01FC691
:103A5C0013840B006FF09FCF9307100023A2FB0081
:103A6C006FF0DFEB130740156362F7069357F50011
:103A7C009386870793857707939636006FF01FD44C
:103A8C00130740556362F70693D724011386D707B3
:103A9C001385C707931636006FF09F9B938C8CFF92
:103AAC00B38A9A01B38A7A41130A00006FF09FC45B
:103ABC009305840013850900EFF00FDB03248900C4
:103ACC0083250C00832A44006FF05FC81307405510
:103ADC006364F702935725019386D7079385C7072D
:103AEC00939636006FF09FCD9306803F1306F00738
:103AFC001305E0076FF0DF959306803F9305E00711
:103B0C006FF0DFCB832749006FF0DFE567800000A3
:103B1C0067800000130101ED23261112232481126A
:103B2C0023202113232A51111389050013040600A5
:103B3C002324D10023229112232E3111232C411145
:103B4C002328611123267111232481112322911121
:103B5C002320A111232EB10F930A0500EF309057AB
:103B6C0083270500138507002324F102EFF08F98BB
:103B7C002320A10263880A0083A74A0363940700E9
:103B8C006F10C0680317C900B72600009317070110
:103B9C0093D7070133F6D7006318060203264906AC
:103BAC00B367D7009397070137E7FFFF93D7074118
:103BBC001307F7FF3377E6002316F90093970701F5
:103BCC002322E90693D7070113F787006300072E1A
:103BDC0003270901630C072C93F7A7011307A00017
:103BEC006388E72E03A841ED83A701EDB7EB0080B6
:103BFC009309010B2328F102B7E700809387475AFA
:103C0C002326F10093878B70130D0400232A0103E4
:103C1C00232E31072322010823200108232A010027
:103C2C00232C0100232E010023220102232C01024C
:103C3C00232201002320F1001384090083470D0087
:103C4C006388072093040D00130750026382E72E4C
:103C5C0083C7140093841400E39A07FE338AA441AB
:103C6C006388A41F03274108832701082320A4018C
:103C7C003307470193871700232244012322E108CD
:103C8C002320F1081307700013048400634AF72AF9
:103C9C000327410083C70400330747012322E100B7
:103CAC006388071A93871400A30F0104930500007F
:103CBC0013050000930DF0FF93040000130F000098
:103CCC0093068005130690001308A00283CC07000E
:103CDC00138D170093870CFE63E4F6040327C100D1
:103CEC0093972700B387E70083A707006780070037
:103CFC009304000013870CFD834C0D009397240054
:103D0C00B387970093971700B304F70013870CFD44
:103D1C00130D1D00E372E6FE93870CFEE3F0F6FC38
:103D2C00638405006F10407D63840C122304910999
:103D3C00A30F0104130B1000930B1000130C81083C
:103D4C00130A0F00930D000023280100937F2A0013
:103D5C0063840F00130B2B00137F4A088327410841
:103D6C0063160F00B3866441E34ED0440347F1055C
:103D7C00630A0702032701089306F1052320D400E8
:103D8C009387170093061000130717002322D40003
:103D9C002322F1082320E108930670001304840009
:103DAC0063C6E62C638A0F020327010893060106FB
:103DBC002320D400938727009306200013071700B5
:103DCC002322D4002322F1082320E108930670005B
:103DDC0013048400E3C2E65013070008E304EF2049
:103DEC00B38D7D41E346B02F13770A10E31C070C0B
:103DFC0003270108B38777012320840113071700D9
:103E0C00232274012322F1082320E1089306700079
:103E1C0063C0E63813048400137A4A0063060A0070
:103E2C00338A64416346403963D4640193040B00C4
:103E3C0003274100330797002322E100E394073660
:103E4C0083470D002320010813840900E39C07DE3F
:103E5C0083274108638407006F10806A8357C90069
:103E6C0093F70704638407006F10900A8320C11234
:103E7C0003248112032541008324411203290112DA
:103E8C008329C111032A8111832A4111032B0111AA
:103E9C00832BC110032C8110832C4110032D011096
:103EAC00832DC10F130101136780000093050900D6
:103EBC0013850A00EF304052630405006F10500563
:103ECC008357C9001307A00093F7A701E39CE7D021
:103EDC008317E900E3C807D01306040003248112FA
:103EEC00832681008320C112832441128329C111AE
:103EFC00032A8111032B0111832BC110032C811078
:103F0C00832C4110032D0110832DC10F9305090043
:103F1C0013850A0003290112832A4111130101138D
:103F2C006F10D01A136F0F0193070D006FF01FDA8B
:103F3C00338AA441E398A4D383C704006FF05FD6FF
:103F4C001306C1079305090013850A00EF105033BF
:103F5C00E31605F0138409006FF09FD3638405000A
:103F6C006F10007993778F00E38E075E0327810033
:103F7C00130501042328E10183270700130C4700D4
:103F8C002324810103A707002320E10403A7470092
:103F9C002322E10403A787002324E10483A7C7009D
:103FAC002326F104EF905051032F0101232CA10083
:103FBC00232EB1008327C101032C8101032B0103A4
:103FCC00832B4103139A1700135A1A0013050C0084
:103FDC0093050A0013060B0093860B002328E101BE
:103FEC00EF905028032F0101630405006F100002AD
:103FFC0013050C0093050A0013060B0093860B00A7
:10400C00EF80102E032F01016344A0006F100000FD
:10401C008327C10113050C001306000093850700CC
:10402C0093060000EF80D02B032F01016354050091
:10403C006F1080430346F1059307700463C4970126
:10404C006F10004137E80080130C485623280100FC
:10405C00137AFFF7130B3000930B3000930D000015
:10406C00E30606CE130B1B006FF05FCE1306C107E1
:10407C009305090013850A00232EE1032326F1037F
:10408C00EF101020E31C05DC83274108032FC1032C
:10409C00832FC102138409006FF0DFD003260108BF
:1040AC00938C1700832741011307100023208401F0
:1040BC00930B1600930D8400E35EF73A1307100080
:1040CC002322E40023229109232071091307700095
:1040DC00E344775F8327010203278102938B1B0044
:1040EC00B38CFC0023A0ED0023A2FD002322910938
:1040FC002320710913077000938D8D00E342775FC5
:10410C000327C1018326810193881B0093050700B7
:10411C0013850600130600009306000023281101E6
:10412C00EF80D003832801018327410113848D0084
:10413C00138608001387F7FFE30C0536B38CEC00ED
:10414C0013081C0023A2ED0023A00D0123229109CA
:10415C002320110913077000E344174713870D013F
:10416C0013862B00930D0400130407008326810390
:10417C001307C10623A0ED00B387960123A2DD002F
:10418C002322F1082320C10813077000E356C7C887
:10419C001306C1079305090013850A00EF10500E92
:1041AC00E31E05CA83274108138409006FF0DFC69C
:1041BC00930600010327010863D24607930B000105
:1041CC00930D70006F00C000130A0AFF63D84B05F3
:1041DC008326010093870701130717002320D400BF
:1041EC00232274012322F1082320E1081304840004
:1041FC00E3DCEDFC1306C1079305090013850A00E7
:10420C00EF101008E31C05C4130A0AFF83274108AA
:10421C000327010813840900E3CC4BFB8326010020
:10422C00B3874701130717002320D400232244012E
:10423C002322F1082320E10893067000E3D6E6BEA2
:10424C001306C1079305090013850A00EF105003EC
:10425C00E31605C0832741086FF01FBD638405007A
:10426C006F10804A0327810093770F019306470054
:10427C006390070893770F04638C070683278100EC
:10428C002324D1008397070013870700634C07068C
:10429C001307F0FF0346F1056388ED00137AFFF76F
:1042AC00E38E071E130F0A0013079000E36EF7440A
:1042BC0093870703A307F10A130A0F00930B10004F
:1042CC00130CF10A138B0D0063D47D01138B0B00BF
:1042DC0023280100E31806D86FF05FA7638405005C
:1042EC006F10003F83278100136F0F0193864700E7
:1042FC008327810003A707002324D100930707001D
:10430C00E35807F81307D002A30FE1049306F0FF5C
:10431C00B307F0401306D002130710006396DD16A6
:10432C0093061000E302D7F8930620006304D736F7
:10433C00138C090013F7770013070703A30FECFE88
:10434C0093D7370093060C00130CFCFFE39407FE85
:10435C0093771F006382073693070003630EF734CD
:10436C009386E6FFA30FFCFEB38BD940130A0F0014
:10437C00138C06006FF01FF58327810083A40700C0
:10438C00938747002324F100E3D004BAB304904090
:10439C00136F4F0093070D006FF05F93834C0D006C
:1043AC00130D1D0063940C016F10804D13870CFDD1
:1043BC00930D0000E360E692834C0D0093972D0063
:1043CC00B387B70193971700B38DE70013870CFDE4
:1043DC00130D1D00E372E6FE6FF0DF8F136F0F08F5
:1043EC0093070D006FF09F8E136F1F0093070D0046
:1043FC006FF0DF8DE31A05B2930510001305000270
:10440C0093070D006FF09F8C136F0F0493070D0033
:10441C006FF0DF8B03278100A30F0104130B100037
:10442C0083270700130747002324E1002304F10826
:10443C00930B1000130C81086FF09F9063840500A0
:10444C006F10802B03278100B7E7008093874758B4
:10445C002322F10293770F01930647006384070C24
:10446C008327070013771F0063040700E39E070CE4
:10447C002324D10013072000A30F01049306F0FF9F
:10448C0013060000E38EDDE8137AFFF763980752FA
:10449C0063980D1EE3160700937B1F00138C090015
:1044AC00E3820BE293070003A307F10A130CF10A52
:1044BC006FF05FE183278100136F0F019386470034
:1044CC00832781001307100083A707002324D10042
:1044DC006FF09FFA83278100136F0F0193864700BB
:1044EC00832781001307000083A707002324D10032
:1044FC006FF09FF8136F8F0093070D006FF00FFD97
:10450C00638405006F10C01F03278100B7E700808C
:10451C00938707572322F10293770F0193064700E5
:10452C00E39007F493770F04E38A07008327810055
:10453C0083D707006FF01FF3638405006F10401AD8
:10454C000327810093770F0193064700E39A07F640
:10455C0093770F04E38607F6832781001307100077
:10456C002324D10083D707006FF01FF1832781002C
:10457C00A30F010403AC0700138A4700E3020C0AE3
:10458C009307F0FFE384FD4A13860D0093050000AA
:10459C0013050C002324E101EF30C016032F81001A
:1045AC00631405006F10000DB30B85410346F10534
:1045BC0013CBFBFF135BFB41232441012328010098
:1045CC0033FB6B01130A0F00930D0000E31C06A8CC
:1045DC006FF0CFF7832681003787FFFF13470783E0
:1045EC002310E106138746002324E10037E70080FF
:1045FC00130707572322E10283A70600136F2F002E
:10460C0013072000930C80076FF01FE763840500ED
:10461C006F10800D0327810093770F0193064700DD
:10462C00E39007EC93770F04E38C07EA8327810070
:10463C00130700002324D10083D707006FF0DFE3BA
:10464C00638405006F1040098326810093770F0166
:10465C0003A70600938646002324D100639C070021
:10466C00137F0F0463080F00832741002310F7000A
:10467C006FF0CFDC832741002320F7006FF00FDCB5
:10468C0093061000E306D77293062000130F0A005E
:10469C00E310D7CA83264102138C090013F7F700E5
:1046AC003387E6000347070093D74700130CFCFF42
:1046BC002300EC00E39407FEB38B8941130A0F002F
:1046CC006FF05FC013075006E35A979D8326810154
:1046DC000327C1011306000013850600930507008C
:1046EC00930600002326F102EF8040278327C102A6
:1046FC00631C054003270108B7E600809386065A21
:10470C002320D4009387170093061000130717007B
:10471C002322D4002322F1082320E1089306700001
:10472C0013048400E3C2E62C0327410683264101CF
:10473C006350D7600327810283260102130484008F
:10474C00232CE4FE03270108B387D700232ED4FEC5
:10475C00130717002322F1082320E10893067000A9
:10476C0063C6E66803274101930BF7FF635670EBB2
:10477C00930600010327010863C476016F10400BF8
:10478C00B7E6008093868671930D0001130C7000C0
:10479C00938C06006F00C000938B0BFFE3DE7D272C
:1047AC009387070113071700232094012322B401D8
:1047BC002322F1082320E10813048400E35EECFCBF
:1047CC001306C1079305090013850A00EF10402B4F
:1047DC00631605E8832741080327010813840900A1
:1047EC006FF09FFBB3886441635C10DF930600019C
:1047FC0003270108E3D41673B7E60080938686710D
:10480C0023264103232E9102130F00019304090068
:10481C00930F700013890800138A06006F00C00004
:10482C00130909FF635A2F05938707011307170014
:10483C00232044012322E4012322F1082320E10850
:10484C0013048400E3DEEFFC1306C1079385040018
:10485C0013850A00EF10C0226314052A130F000100
:10486C00130909FF83274108032701081384090052
:10487C00930F7000E34A2FFB9308090093060A007C
:10488C0013890400032AC1028324C103B3871701CF
:10489C00130717002320D400232214012322F1082C
:1048AC002320E108930670001304840063DAE6D237
:1048BC001306C1079305090013850A00EF10401C6D
:1048CC00631E05D883274108138409006FF04FD16C
:1048DC009306000103270108E3D2B639B7E600803E
:1048EC009386867123269102930800019304090094
:1048FC00130F7000138906006F00C000938D0DFF1D
:10490C0063DAB805938707011307170023202401E6
:10491C00232214012322F1082320E108130484002C
:10492C00E35EEFFC1306C1079385040013850A00B0
:10493C00EF1000156316051C93080001938D0DFFF5
:10494C00832741080327010813840900130F700003
:10495C00E3CAB8FB93060900138904008324C1023F
:10496C00B387B701130717002320D4002322B40107
:10497C002322F1082320E10893067000130484001D
:10498C0063D4E6C61306C1079305090013850A0014
:10499C00EF10000F631405CC832741081384090022
:1049AC006FF08FC41306C1079305090013850A0025
:1049BC00EF10000D630605C86FF04FCA130F0A0005
:1049CC006FF01F961306000103270108635AD60ADD
:1049DC00130604001384060093060D0093080001CF
:1049EC00130D0B0093027000138B04002326F103AC
:1049FC0093040900232EE103138906006F00C00005
:104A0C00130404FF63DC88048326010093870701E9
:104A1C00130717002320D600232216012322F108A6
:104A2C002320E10813068600E3DCE2FC1306C10731
:104A3C009385040013850A00EF1080046312050CA3
:104A4C0093080001130404FF83274108032701087E
:104A5C001386090093027000E3C888FA832FC10201
:104A6C00032FC10393060400130406001306090068
:104A7C001389040093040B00130B0D00130D060097
:104A8C0003260100B387D700130717002322D40095
:104A9C002320C4002322F1082320E1089306700090
:104AAC001304840063D4E6AC1306C1079305090014
:104ABC0013850A00232EE1032326F103EF00507C1B
:104ACC00631E05B883274108032FC103832FC1023E
:104ADC00138409006FF08FA91306C1079305090011
:104AEC0013850A002326E103EF009079631805B6BD
:104AFC0083274108032FC102138409006FF0CFAD47
:104B0C00138904006FF08FB5832641066358D04299
:104B1C000327010183264101930B070063C8E62696
:104B2C006356700303270108B387770123208401A0
:104B3C0013071700232274012322F1082320E10814
:104B4C009306700013048400E3C2E61813C7FBFF3E
:104B5C001357F741B3FBEB0003270101B30B77416C
:104B6C006340702F832B41060327410163D6EB2250
:104B7C00032781028326010213048400232CE4FE04
:104B8C0003270108B387D700232ED4FE1307170081
:104B9C002322F1082320E10893067000E3CCE626DB
:104BAC000327410183260101B30B77413307D7401B
:104BBC00938C0B0063547701930C0700635A90039A
:104BCC0003270101B3879701232294013308EC00DA
:104BDC0003270108232004012322F10813071700DF
:104BEC002320E1081306700013048400E34CE62430
:104BFC0013C7FCFF1357F74133F7EC00B38BEB40B3
:104C0C00635C70A19306000103270108E3D276438D
:104C1C00B7E6008093868671930D0001130C70002B
:104C2C00938C06006F00C000938B0BFF63D67D5FE7
:104C3C009387070113071700232094012322B40143
:104C4C002322F1082320E10813048400E35EECFC2A
:104C5C001306C1079305090013850A00EF00506283
:104C6C00631E059E8327410803270108138409004E
:104C7C006FF09FFB93761A00639206C42322E40024
:104C8C00232291092320710913077000634A7713BB
:104C9C0013062600130404016FF04FCDE39A0D1098
:104CAC00930D0000930B0000138C09006FF08FE143
:104CBC00635EE0CA93060001E3D0E63AB7E60080F3
:104CCC009386867123284101232691021304000147
:104CDC00130C700093040700138A0600938B0800D2
:104CEC006F000001938404FF63589462938B1B0044
:104CFC00938C0C0123A04D0123A28D00232291093A
:104D0C0023207109938D8D00E35E7CFD1306C10792
:104D1C009305090013850A00EF0090566310059463
:104D2C00832C4108832B0108938D09006FF09FFBA6
:104D3C0013771A006302078E6FF0DF9F83278100C1
:104D4C0083A707006FF00FF2130700032300E1069F
:104D5C00A3009107136F2F002324D1001307200009
:104D6C006FF08FF183278100138C7700137C8CFFFD
:104D7C0083270C00232CF10083274C00232EF100F9
:104D8C0093078C002324F1006FF0CFA2938B0600C5
:104D9C00E34A70D96FF09FDB13771A00E31A07DC34
:104DAC000327410183260101B30B7741B30DD74093
:104DBC00938C0B00E3DE7DE3938C0D006FF05FE3CF
:104DCC001306C1079305090013850A00EF00504B29
:104DDC006316058803260108832C41081304810BF4
:104DEC0013061600938D09006FF04FB81306C10718
:104DFC009305090013850A00EF0090486304050031
:104E0C006FF0CF8583274108138409006FF09F95BD
:104E1C00930510001305B00293070D006FE01FEB14
:104E2C0093076000938B0D0063E4B76D37E8008047
:104E3C00138B0B0023244101130C88596FE05FF096
:104E4C009306000103270108E3D67623B7E600801A
:104E5C009386867123269102930D00019304090019
:104E6C00930C7000138906006F00C000938B0BFF2E
:104E7C0063D47D6193870701130717002320240156
:104E8C002322B4012322F1082320E1081304840017
:104E9C00E3DEECFC1306C1079385040013850A00BE
:104EAC00EF00103EE31E05C48327410803270108C9
:104EBC00138409006FF09FFB1306C10793050900CB
:104ECC0013850A00EF00D03B630405006FE01FF967
:104EDC00832C4108832B0108938D09006FF08F9F61
:104EEC001306C1079305090013850A00EF0050391A
:104EFC00630405006FE09FF6832C4108832B0108A7
:104F0C00938D09006FF0CF9F138C09009306A000BE
:104F1C001305900033F7D702130CFCFF93850700A1
:104F2C00130707032300EC00B3D7D702E364B5FEE5
:104F3C00B38B8941130A0F006FF0CFB80327010818
:104F4C0037E600801306065A2320C4009387170007
:104F5C0013061000130717002322C4002322F108A4
:104F6C002320E1081306700013048400634CE6064A
:104F7C00639E062E8326410113771A003367D700F0
:104F8C00631407006FE05FE90327810283260102A7
:104F9C002320E40003270108B387F6002322D40062
:104FAC00130717002322F1082320E1089306700051
:104FBC0063C2E656130484008326410113071700CD
:104FCC0023208401B387F6002322D4002322F10886
:104FDC002320E1089306700063C4E6006FE09FE3B2
:104FEC006FF00F9B1306C1079305090013850A0088
:104FFC00EF001029630405006FE05FE6832641068D
:10500C0083274108138409006FF09FF60328810160
:10501C008327C1012328E1011306080013050800AA
:10502C009386070093850700EF80D023032F01019F
:10503C006314057813F7FCFD9307F0FF2326E102B8
:10504C00638EFD5E93077004630EF7540327C10152
:10505C00232E0102136A0F10130B0700635A07006B
:10506C00B707008033CBE7009307D002232EF10261
:10507C00930760066384FC2E930760046380FC2E08
:10508C000327C102930750042328E1016306F7525A
:10509C000327810193074106930841071305070075
:1050AC00930505001308810613870D009306200055
:1050BC0013060B0013850A00EF209062930770060D
:1050CC00032F0101130C0500938B0D006392FC520E
:1050DC0093771F00639207520327410693077004CE
:1050EC002328E1000327410733078741232AE100E6
:1050FC000327C102631CF700032701019307D0FFAC
:10510C006344F70063DAED46938CECFF83260101D0
:10511C00230691071307B0029387F6FF2322F106AB
:10512C0063D8070093071000B387D7401307D0024A
:10513C00A306E106130790006358F75E9308B107C6
:10514C00138608009305A0001303300633E7B7025B
:10515C0093060600138507001306F6FF13070703D3
:10516C00A38FE6FEB3C7B702E342A3FE9387070300
:10517C0093F7F70F1387E6FFA30FF6FE6376176F0F
:10518C001306E1066F008000834707002300F6003A
:10519C001307170013061600E31817FF9307D10720
:1051AC001307E106B387D740B307F7001307C1060F
:1051BC00B387E740232CF1020327410183268103A7
:1051CC0093071000B30BD70063D8E7608327010265
:1051DC0023280100B38BFB0013CBFBFF135BFB41BC
:1051EC0033FB6B016F0000251306C1079305090003
:1051FC0013850A00EF00D008630405006FE01FC69A
:10520C0083274108138409006FF00FD213850A001D
:10521C00EFD04FA16FE01F9793860C00B3877701F7
:10522C00130717002320D4006FE09FBD13050C005B
:10523C002328E101EFD01FAC032F01010346F10538
:10524C00134BF5FF135BFB41232441012328010081
:10525C00930B0500337B6501130A0F00930D0000BF
:10526C00630406006FE01FE06FE05FAE032781026E
:10527C000326010213048400232CE4FE03270108F7
:10528C00B307F600232EC4FE130717002322F108E0
:10529C002320E10813067000634EE626E3DE06D0F9
:1052AC00130600FFB30BD04063D0C660B7E6008096
:1052BC009386867123289100930D000193040900B5
:1052CC00930C7000138906006F00C000938B0BFFCA
:1052DC0063DA7D4793870701130717002320240106
:1052EC002322B4012322F1082320E10813048400B3
:1052FC00E3DEECFC1306C1079385040013850A005A
:10530C00EF000078631E05FE832741080327010880
:10531C00138409006FF09FFB1387040093060A00A7
:10532C008324C102032A010113861B0093858D007F
:10533C00B38CEC0023A2ED0023A0DD002322910905
:10534C002320C10813077000E34CC7A613061600F0
:10535C0013848500938D05006FE05FE103278101C5
:10536C0093074106930841071305070093050500B1
:10537C0013870D00130881069306300013060B00EB
:10538C0013850A002328E101EF209035130C05004A
:10539C0003470C0093070003032F0101B30BB50166
:1053AC006302F71A83274106B38BFB008327810125
:1053BC0093050B00130600001385070093060000ED
:1053CC002328E101EF708059032F010193870B0013
:1053DC00630205028327410763FE770193060003EE
:1053EC0013871700232AE1062380D7008327410760
:1053FC00E3E877FFB387874183264106232AF10030
:10540C008327C102130770042328D100E386E7CE5B
:10541C0093076006E39CFCCE0327010193771F00E2
:10542C00B3E7B7016350E03E6396073C832B010161
:10543C00138B0B008327C1036384071C9307D002D3
:10544C00A30FF104930D0000130B1B006FE01F90D2
:10545C0037E80080130C08566FE05FBFB7E600809A
:10546C00938686716FF0CFCF9307D002A30FF10410
:10547C001306D0026FE05FBC930609001389040089
:10548C008324C102B3877701130717002320D400AC
:10549C00232274012322F1082320E10893067000D3
:1054AC001304840063D0E6EC1306C10793050900CE
:1054BC0013850A00EF00C05C630405006FE01F9ABF
:1054CC0083274108138409006FF0CFE91306C10745
:1054DC009305090013850A00EF00805A6304050048
:1054EC006FE0DF9783274108138409006FF00FE604
:1054FC00930B60006FF09F93A30FA1046FE0DF820A
:10550C001306C1079305090013850A00EF004057E5
:10551C006FE0DF941306C1079305090013850A0099
:10552C00EF000056630405006FE05F93832641068D
:10553C00832741080327010813840900E3DE06A62C
:10554C006FF01FD60327810193050B001306000093
:10555C0013050700930600002328E101EF700040BB
:10556C00032F0101E30005E493071000B387B74153
:10557C002322F1066FF05FE383270101032741012A
:10558C0063CEE710137F1F0063180F2013CBF7FFB8
:10559C00135BFB4133FB6701938B0700930C700685
:1055AC006FF05FE9E3940DAA930D10006FF01FAA42
:1055BC00130F0A006FE0DFCF03278101938B1D00CF
:1055CC00930841071305070093050500130881068E
:1055DC009307410613870B009306200013060B005C
:1055EC0013850A00EF20D00F032F0101130C0500C7
:1055FC0093077004E38EFCACB30B7C016FF01FDBE4
:10560C000346F105930D0000630406006FE09FA5AF
:10561C006FE0CFF31306C1079305090013850A0049
:10562C00EF000046630405006FE05F83832B4106A7
:10563C0083274108138409006FF08FD6930D600007
:10564C006FF0DFA01306C1079305090013850A004C
:10565C00EF000043630405006FE05F80832B41067D
:10566C00032741018327410813840900B30B7741B9
:10567C006FF00FD80346F1052324410123280100C4
:10568C00138B0D00938B0D00130A0F00930D00006C
:10569C00630406006FE01F9D6FE04FEB8327410111
:1056AC0003270102B38BE700832701016348F00055
:1056BC0083270101B38BFB40938B1B0013CBFBFFA8
:1056CC00135BFB4133FB6B01930C70066FF09FD6A1
:1056DC00A30FA1046FE01FC1A30FA1046FE0DFF6BD
:1056EC00A30FA1046FE0DFE5A30FA1046FE09FF20D
:1056FC00A30FA1046FE01F87A30FA1046FE09FD439
:10570C00A30FA1046FE05FE0A30FA1046FE09FB5AE
:10571C009307F0FF2322F1006FE04FF5B7E600800E
:10572C00938686716FF08F96938707031307000398
:10573C00A307F106930740002307E106232CF1028F
:10574C006FF09FA7930609001389040083240101BD
:10575C00B3877701130717002320D4002322740189
:10576C002322F1082320E10893067000E3D4E68499
:10577C001306C1079305090013850A00EF0040309A
:10578C00630405006FE08FED8327410803270108B0
:10579C00138409006FF05F82832701010327010244
:1057AC00930C7006B38BE70013CBFBFF135BFB4131
:1057BC0033FB6B016FF01FC88327C10163C6070859
:1057CC000346F1059307700463DA970737E8008006
:1057DC00130CC8566FE09F8793771F002328F100A6
:1057EC00E396079E13CBFBFF135BFB4133FB6B0173
:1057FC006FF05FC483270102B30BF700B38BBB01BF
:10580C006FF05FFE63980700130B1000930B1000F2
:10581C006FF05FC283270102938B1700B38BBB0120
:10582C0013CBFBFF135BFB4133FB6B016FF09FC092
:10583C00B7E60080938686716FF05F9E37E8008034
:10584C00130C88566FE09F809307D002A30FF104CE
:10585C001306D0026FF01FF7B7E600809305040023
:10586C00938686716FF0DFAC93072000232CF10236
:10587C006FF09F94B7E60080938686716FF09FC09F
:10588C008327810083AD07009387470063C80D0011
:10589C002324F10093070D006FE04FC3930DF0FF2D
:1058AC002324F1006FF01FFFB7E60080938686710A
:1058BC006FF01FEA9307050003A581F2930606001B
:1058CC0013860500938507006FE0CFA483D7C5002E
:1058DC0003AE450603D3E50083A8C50103A8450222
:1058EC00130101B893F7D7FF13070040232C81460F
:1058FC00231AF10013840500930701079305810017
:10590C00232A914623282147232E114613090500EB
:10591C002326C107231B6100232211032326010325
:10592C002324F100232CF1002328E100232EE10095
:10593C0023200102EFE00F9E93040500635C050237
:10594C008357410193F70704638807008357C4000A
:10595C0093E707042316F4008320C14703248147EF
:10596C00032901471385040083244147130101488F
:10597C00678000009305810013050900EF10404E6D
:10598C00E30005FC9304F0FF6FF09FFB03A74506B3
:10599C00130101FDB7270000232861012326110202
:1059AC00232481022322910223202103232E31015F
:1059BC00232C4101232A5101232671012324810127
:1059CC00B3F7E700130B06006388070A83278600EA
:1059DC00832B06001389050093090500930AF0FF39
:1059EC006388070803AC4B0003A40B00135A2C006C
:1059FC0063060A06930400006F00C0001304440001
:105A0C00630C9A048325040013060900138509000E
:105A1C00EF10D04493841400E31255FF1305F0FFEC
:105A2C008320C1020324810223240B0023220B00B8
:105A3C0083244102032901028329C101032A810124
:105A4C00832A4101032B0101832BC100032C81000C
:105A5C00130101036780000083278B00137CCCFFAC
:105A6C00B38787412324FB00938B8B00E39C07F6C1
:105A7C00130500006FF0DFFAEF10804C6FF05FFA47
:105A8C0003278600630407006FF05FF023220600F3
:105A9C001305000067800000130101F22326310D6D
:105AAC002320610D232A910B2326B10B232E110CDD
:105ABC00232C810C232A910C2328210D2324410D06
:105ACC002322510D232E710B232C810B2328A10B88
