:0200000480007A
:100000006F00403A6F00D0116F00C0386F00803829
:100010006F0040386F0000386F00C0376F008037C6
:100020006F0040376F0000376F00C0366F008036BA
:100030006F0040366F0000366F00C0356F008035AE
:100040006F0040356F0000356F00C0346F008034A2
:100050006F0040346F0000346F00C0336F00803396
:100060006F0040336F0000336F00C0326F0080328A
:100070006F0040326F0000326F00C0316F00C0422D
:1000800097410100938181CD17010300130181F78E
:1000900017050000130505F713651500731055309B
:1000A000138501F3138601243306A640930500004F
:1000B000EF7040091775000013054503EF60804D90
:1000C000EF60D078130500009305000013060000D0
:0C00D000EF00C0006F60404D6780000032
:1000DC00130101F613050000232E1108232C8108AF
:1000EC00232A910823282109232631092324410995
:1000FC002322510923206109232E7107EF6010413F
:10010C00EF60804C173501001305C5ACEF6010187B
:10011C001304100093040000130950061305040087
:10012C00EF30100113041400B384A400E31824FF6F
:10013C009385040013064006173501001305C5AA64
:10014C00EF60D01417350100130585ACEF60101467
:10015C001304100093040000130950061305040047
:10016C00EF30502613041400B384A400E31824FFCA
:10017C00938504001306400617350100130585AA64
:10018C00EF60D01017350100130545ACB70A01001C
:10019C00EF60D00F93044006130900009309F07F21
:1001AC00938AFAFF370AFFFF370BFF07EF60C04255
:1001BC0013040500EF60404293170401B3E7A70056
:1001CC00131505011355054113D7074113040000FE
:1001DC00634805001304F07F63C4A90033F457018E
:1001EC0063480700B3F6470163DCE9183364640124
:1001FC00F78BB7851385070093054100EF50D0129C
:10020C009305810213850B00EF50101213050400A7
:10021C00330474419305C104133414009384F4FF24
:10022C00EF50901033098900E39204F8930509000C
:10023C001306400617350100130585A2EF60100563
:10024C0017350100130545A4EF605004130940064F
:10025C00130A0000EF604038130405001314040166
:10026C00EF6080373364A4001306310093056000FF
:10027C0013050400A3010100EF30904F9304050017
:10028C00F709648D9305410013050400EF50D00964
:10029C009305810213850900EF50100913850400A2
:1002AC00B38434419305C10493B414001309F9FFCA
:1002BC00EF509007330A9A00E31E09F81306400624
:1002CC0093050A00173501001305459DEF60007C6E
:1002DC00173501001305059FEF60407B13041000D8
:1002EC00930400001309500613050400EF408064CA
:1002FC0013041400B384A400E31824FF93850400B2
:10030C0013064006173501001305059DEF600078B4
:10031C00173501001305C59EEF60407713041000DC
:10032C00930400001309500613050400EF40104914
:10033C0013041400B384A400E31824FF9385040071
:10034C0013064006173501001305C59CEF600074B9
:10035C008320C1090324810983244109032901094C
:10036C008329C108032A8108832A4108032B010829
:10037C00832BC107130500001301010A67800000DD
:10038C003364D4006FF0DFE617250100130515293F
:10039C00EF6050016FF05FFF130101FC232011008F
:1003AC002322A1002324B1002326C1002328D1003D
:1003BC00232AE100232CF100232E01012320110319
:1003CC002322510223246102232671022328C10314
:1003DC00232AD103232CE103232EF103F32220340F
:1003EC0013032000638862021303B0006388620069
:1003FC0013033000638862006F00C002EF0000340A
:10040C006F004003172501001305051DEF6080796F
:10041C006F0040021725010013050517EF60807867
:10042C006F004001172501001305251DEF60807733
:10043C006F004002F32210340383020013053000D6
:10044C003373A3006314A3009382220093822200CF
:10045C007390123483200100032541008325810011
:10046C000326C10083260101032741018327810153
:10047C000328C10183280102832241020323810244
:10048C008323C102032E0103832E4103032F810317
:10049C00832FC1031301010473002030730020303B
:1004AC003305A04023ACA1F21305F0FF67800000D8
:1004BC00172701001307C71893075005B70600103C
:1004CC001307170023A0F60083470700E39A07FEE3
:1004DC00678000009307800523ACF1F21305F0FF51
:1004EC00678000009307800523ACF1F21305F0FF41
:1004FC00678000009307800523ACF1F21305F0FF31
:10050C00678000009307800523ACF1F21305F0FF20
:10051C00678000009307800523ACF1F21305F0FF10
:10052C00678000001305F0FF678000009307C00090
:10053C0023ACF1F21305F0FF67800000B7070480CD
:10054C0023A0A700730050106F00000093078005D4
:10055C0023ACF1F21305F0FF678000009307B000A5
:10056C0023ACF1F21305F0FF67800000B727000001
:10057C0023A2F50013050000678000009307800597
:10058C0023ACF1F21305F0FF6780000093078005A0
:10059C0023ACF1F21305F0FF67800000930780FA9B
:1005AC0023ACF1F213050000678000001305100066
:1005BC0067800000930780FA23ACF1F21305F0FF7B
:1005CC00678000001305F5FF1335150067800000E8
:1005DC009307600123ACF1F21305F0FF6780000074
:1005EC009307F00123ACF1F21305F0FF67800000D4
:1005FC0013050000678000009307800523ACF1F21F
:10060C001305F0FF678000001305F0FF6780000002
:10061C009307800523ACF1F21305F0FF678000000F
:10062C001305000067800000B727000023A2F50027
:10063C0013050000678000001305F0FF67800000C1
:10064C001305F0FF678000009307200023ACF1F244
:10065C001305F0FF678000009307800523ACF1F2CF
:10066C001305F0FF678000009307A00023ACF1F2A4
:10067C001305F0FF67800000130101FF2320210107
:10068C00138901F38327090023248100232291007D
:10069C00232611009384050013040600638A0702C5
:1006AC00130604009385040017350100130545EA71
:1006BC00EF00C06B8320C1001305040003248100EC
:1006CC00832441000329010013010101678000000C
:1006DC00B7C50100130630009385052017350100BE
:1006EC00130505E7EF00405B930710002320F9008A
:1006FC006FF01FFB23A0A1F2130500006780000020
:10070C00138701F2832707003385A7002320A70056
:10071C00637C2500170703001307078E6376E5003B
:10072C0013850700678000009307C00023ACF1F22B
:10073C009307F0FF1385070067800000130101FF8A
:10074C002322910023261100232481002320210140
:10075C00930710089384050063C817099307F002E8
:10076C0063C0170793071001639AF802930780FA86
:10077C0023ACF1F28320C1000324810083244100C7
:10078C000329010013010101678000009307900900
:10079C00E382F8FE9307900AE38AF8FC13075005EE
:1007AC00972701009387C7E9B706001093871700B6
:1007BC0023A0E60003C70700E31A07FE6FF09FFBB8
:1007CC00938808FD93071005E3EA17FD172701002E
:1007DC00130747E993982800B388E80083A708001B
:1007EC00B387E700678007009307F040E3C817FB67
:1007FC009307F03F63D61703938808C09307F00064
:10080C00E3EE17F917270100130747FA939828000E
:10081C00B388E80083A70800B387E7006780070068
:10082C009307C00AE388F8F4E3D217F79307600D37
:10083C00E396F8F623A0A1F26FF0DFF38320C1005A
:10084C00032481009307800523ACF1F2832441003B
:10085C000329010013010101678000008320C100FE
:10086C0003248100B727000023A2F4000329010010
:10087C008324410013010101678000009307F001FC
:10088C0023ACF1F26FF01FEF9307200023ACF1F2D1
:10089C006FF05FEEB707048023A0A7007300501021
:1008AC006F0000009307600123ACF1F26FF09FEC36
:1008BC00138901F3832709001304060063860702DA
:1008CC0013060400032481008320C10003290100C6
:1008DC00938504008324410017350100130545C797
:1008EC00130101016F008048B7C5010013063000E9
:1008FC009385052017350100130585C5EF00C03918
:10090C00930710002320F9006FF09FFB13050000E4
:10091C0067800000130500006780000013050000CD
:10092C0067800000130500006780000013050000BD
:10093C0067800000130500006780000013050000AD
:10094C00678000001305000067800000130500009D
:10095C00678000001305000067800000130500008D
:10096C00678000001305000067800000130500007D
:10097C00678000001305000067800000130500006D
:10098C00678000001305000067800000130500005D
:10099C00678000001305000067800000130500004D
:1009AC00678000001305000067800000130500003D
:1009BC00678000001305000067800000130500002D
:1009CC00678000001305000067800000130500001D
:1009DC00678000001305000067800000130500000D
:1009EC0067800000130500006780000013050000FD
:1009FC0067800000130500006780000013050000ED
:100A0C006780000013050000678000008327C50085
:100A1C006380070C03280501630C080A8325050075
:100A2C00034695008326450103C745011377F70F4D
:100A3C003366C700A304C5001377070263080708D1
:100A4C003306D8401307F0006368C70A630406082E
:100A5C003387D70003430700938816001307100051
:100A6C0023806500232A1501630CE60433871701E4
:100A7C00034E070013872600130320002380C501B3
:100A8C00232AE500630E66023387E700034E070056
:100A9C0013873600130330002380C501232AE50099
:100AAC00630066023387E700034307009386460022
:100ABC001307400023806500232AD5006318E6083D
:100ACC009306000063140602B38616016304D80073
:100ADC006780000083C745002328050093F7D70FD4
:100AEC002382F500678000001306F0009306F6FFE2
:100AFC00B38616016FF09FFD3387D70003460700BE
:100B0C0093881600338717012380C500232A15010B
:100B1C0003430700138726003386E7002380650014
:100B2C00232AE50003430600138736003386E700CB
:100B3C0023806500232AE5000347060093864600C0
:100B4C00130600012380E500232AD5003387D70044
:100B5C00034E070013871600130350002380C501B2
:100B6C00232AE500E30E66F43387E700034E070003
:100B7C0013872600130360002380C501232AE50098
:100B8C00E30066F43387E700034E07001387360053
:100B9C00130370002380C501232AE500E30266F2EB
:100BAC003387E700034E07001387460013038000CA
:100BBC002380C501232AE500E30466F03387E700B0
:100BCC00034E070013875600130390002380C501C2
:100BDC00232AE500E30666EE3387E700034E0700A1
:100BEC00138766001303A0002380C501232AE500A8
:100BFC00E30866EC3387E700034E070013877600A3
:100C0C001303B0002380C501232AE500E30A66EA3A
:100C1C003387E700034E0700138786001303C000D9
:100C2C002380C501232AE500E30C66E83387E7003F
:100C3C00034E0700138796001303D0002380C501D1
:100C4C00232AE500E30E66E63387E700034E070030
:100C5C001387A6001303E0002380C501232AE500B7
:100C6C00E30066E63387E700034E07001387B60000
:100C7C00130300012380C501232AE500E31666E671
:100C8C00B387E70083C707009386C6002380F5006F
:100C9C00232AD5006FF0DFE2130101FE232A910015
:100CAC0083240500232C81002328210123263101D4
:100CBC00232E11002382040023840400930770FC6C
:100CCC002384F400238804002322B50013040500B8
:100CDC003785D71713890500930906009306000082
:100CEC00138605001305054093050000EF50C03F27
:100CFC00B70780006374F5029357F500130700F8EB
:100D0C002386E40093F7F70F135575002382F40044
:100D1C001375F50F2380A400238604002386340169
:100D2C0023043401A304040097070000938747CEE3
:100D3C00232224018320C10123280400232604003C
:100D4C00232A0400232E0400232C04002322040253
:100D5C002320F4020324810183244101032901018E
:100D6C008329C1001301010267800000130101FFF8
:100D7C0023260100638A050863080608032505007D
:100D8C003386C50013071003834645012326010053
:100D9C008327C10093F6F60F636CF7008327C1001D
:100DAC00938717002326F1008327C100E378F7FE11
:100DBC0093F60602E38A06FC232601008327C10072
:100DCC00636CF7008327C100938717002326F1007B
:100DDC008327C100E378F7FE83C705002300F500E5
:100DEC00232601008327C100636CF7008327C10011
:100DFC00938717002326F1008327C100E378F7FEC1
:100E0C0093851500E312B6F8130101016780000009
:100E1C006384050403C6050063000604032705006C
:100E2C00130101FF938615008347470193F7F70FD2
:100E3C00A307F1008347F10093F70702E38607FE4F
:100E4C002300C70003C6060093861600E31E06FCAB
:100E5C00130101016780000067800000630E060229
:100E6C00638C05020327050097060000938646BA9B
:100E7C002326B500834747002328C500232A0500F5
:100E8C0093F7F70F2320D50293E727002302F700EF
:100E9C00F32740F163840700678000003727000CBC
:100EAC00972701009387C76A832607003305F5400F
:100EBC0013351500930710003395A7003365D50043
:100ECC002320A700678000008327050003479500B7
:100EDC008326050183C7470193F7F70F33E7E70034
:100EEC00A304E5006398060013D56700137515007D
:100EFC0067800000130500006780000013070500E1
:100F0C0063840506630206060328050083469500E4
:100F1C008347480193F7F70FB3E6D700A304D50036
:100F2C0093F7170063820704130500006F0080001D
:100F3C00630AA60283460800B387A50013051500B3
:100F4C002380D70003280700834697008347480176
:100F5C0093F7F70FB3E6D700A304D70093F7170066
:100F6C00E39807FC67800000130500006780000011
:100F7C00F32740F163960702B726000C9727010070
:100F8C009387075D03A60600B307F54013B7170058
:100F9C0093071000B397E700B3E7C70023A0F60050
:100FAC00B70701009387F7FF638EF5000327050051
:100FBC0093F5F5008347470093F7F70FB3E5F5007A
:100FCC002302B70067800000638005049307000CC0
:100FDC0063ECC70203270500232EB5008347870067
:100FEC0093F7F70333E6C7001376F60F2304C70015
:100FFC008347470093F7F70F93E717002302F70097
:10100C00F32740F163840700678000003727000C4A
:10101C00972701009387C753832607003305F540B4
:10102C0013351500930710003395A7003365D500D1
:10103C002320A700678000006386050203270500B4
:10104C002320B502232605008347470023280500EB
:10105C0093F7F70F93E727002302F700F32740F1EC
:10106C0063840700678000003727000C9727010076
:10107C009387074E832607003305F540133515007B
:10108C00930710003395A7003365D5002320A700E4
:10109C006780000063820502032705002322B50246
:1010AC008347470093F7F70F93E787002302F70076
:1010BC00F32740F163840700678000003727000C9A
:1010CC00972701009387C748832607003305F5400F
:1010DC0013351500930710003395A7003365D50021
:1010EC002320A700678000006388051063060610A4
:1010FC0003270500834695008347470193F7F70FB5
:10110C00B3E6D700A304D50093F707026386070E56
:10111C009307F00063F6C70E83C7050013050001A3
:10112C002300F70083C715002300F70083C72500B1
:10113C002300F70083C735002300F70083C6450062
:10114C00930750002300D700630CF50C83C65500A1
:10115C00930760002300D7006304F50C83C6650079
:10116C00930770002300D700630CF50A83C6750043
:10117C00930780002300D7006304F50A83C685001B
:10118C00930790002300D700630CF50883C69500E5
:10119C009307A0002300D7006304F50883C6A500BD
:1011AC009307B0002300D700630CF50683C6B50087
:1011BC009307C0002300D7006304F50683C6C5005F
:1011CC009307D0002300D700630CF50483C6D50029
:1011DC009307E0002300D7006304F50483C6E50001
:1011EC00930700012300D7006312F50683C7F500AF
:1011FC002300F700678000001305000067800000E3
:10120C0083C70500130510002300F700630AA6002E
:10121C0083C71500130520002300F7006314A600F4
:10122C006780000083C72500130530002300F700FA
:10123C00E308A6FE83C73500130540002300F70022
:10124C00E300A6FE130506006FF05FEF1305F00038
:10125C0067800000832705000347950083C747017B
:10126C00A304050033E5E7001375E509678000006A
:10127C008327050003C587011375F50F67800000F0
:10128C00832705000347950083C7470193F7F70FA2
:10129C0033E7E700A304E50013F5070667800000B9
:1012AC00032705008347C70093F7F70F93E707045D
:1012BC002306F70067800000032705008347C7005B
:1012CC0093F7F70B2306F70067800000935705414F
:1012DC001315050193F5F500135505413355B5402C
:1012EC00B3D7B740131505019397070113550501A3
:1012FC0033E5A70067800000130101F52326110ACE
:10130C002324810A2322910A2320210BEF50C02C85
:10131C001304050013140401EF50002C3364A400D3
:10132C00EF50802BEF50402B1379F500131504016F
:10133C00135505419354044133552541B3D42441ED
:10134C00131505011355050193940401B3E4A4008E
:10135C00F707245193050101130504002326F1001E
:10136C00EF40807C9305410313050900EF40C07BDF
:10137C000325C10093058105EF40007B1385040014
:10138C009305C107EF40407A0325C1008320C10AB1
:10139C000324810A330595400329010A8324410A59
:1013AC00133515001301010B67800000935705419D
:1013BC001315050193F5F500135505413355B5404B
:1013CC00B3D7B740131505019397070113550501C2
:1013DC0033E5A70067800000130101F52326110AED
:1013EC002324810A2322910AEF50001F13040500C5
:1013FC0013140401EF50401E3365A400931705012C
:10140C0093D7074193D7374013543541939707012E
:10141C0093D70701131404013364F400F7073570F4
:10142C002326F100930501018324C100EF40C06F16
:10143C009305410313053000EF40006F0325C100F5
:10144C0093058105EF40406E130504009305C10719
:10145C00EF40806D338584408320C10A0324810AC8
:10146C008324410A133515001301010B678000001A
:10147C00130101FF23229100232611002324810054
:10148C002320210193F5F500935405016396050281
:10149C008320C100032481001315050193940401DA
:1014AC00135505010329010033E5A40083244100F1
:1014BC001301010167800000131505011389F5FF65
:1014CC001355054133552541EF40406B130405007E
:1014DC00139504011355054133552541EF40006A1E
:1014EC00930415001304140093D414408320C100FA
:1014FC001355144093940401032481001315050122
:10150C0093D404019394040113550501032901009C
:10151C0033E5A4008324410013010101678000001E
:10152C00130101F4232E110A232C810A232A910A78
:10153C002328210B2326310BEF50000A93040500BE
:10154C0093940401EF504009B3E4A400EF50C00899
:10155C00EF5080081379F50013D40401631A0906BF
:10156C001395040113550501131404013364A400ED
:10157C00F787246193050101138504002326F100EC
:10158C00EF40805A9305410313050900EF40C05901
:10159C000325C10093058105EF4000591305040094
:1015AC009305C107EF4040580325C1008320C10BB0
:1015BC008324410B3305A4400324810B0329010B25
:1015CC008329C10A133515001301010C6780000033
:1015DC00139504019309F9FF135505413355354112
:1015EC0013140401EF408059135404419307050070
:1015FC003355344113840700EF40405893071400CF
:10160C00130415001354144013D51740131505017A
:10161C001314040113550501135404016FF0DFF486
:10162C00130101FF232291002326110023248100A2
:10163C002320210193F5F5009354050163960502CF
:10164C008320C10003248100131505019394040128
:10165C00135505010329010033E5A400832441003F
:10166C001301010167800000131505011389F5FFB3
:10167C001355054133552541EF40405013040500E7
:10168C00139504011355054133552541EF40004F87
:10169C00930415001304140093D414408320C10048
:1016AC001355144093940401032481001315050170
:1016BC0093D40401939404011355050103290100EB
:1016CC0033E5A4008324410013010101678000006D
:1016DC00130101F52326110A2324810A2322910ADE
:1016EC002320210BEF40506F93040500EF40D06E88
:1016FC009307050013150501135505419394040137
:10170C0013552540B3E4F400EF404047130905009E
:10171C0013D52441EF40804613041500130519001E
:10172C001355154013541440131505011355050199
:10173C00131404013364A400F78734712326F100D9
:10174C0093050101138504008324C100EF40C03DC3
:10175C009305410313053000EF40003D0325C10004
:10176C0093058105EF40403C130504009305C10728
:10177C00EF40803B330594408320C10A0324810A47
:10178C008324410A0329010A133515001301010BA7
:10179C006780000093F5F5009357050113150501BB
:1017AC00B3D7B74013550501939707013355B5408F
:1017BC0033E5A70067800000130101F52326110A09
:1017CC002324810A2322910A2320210BEF40D0608D
:1017DC009304050093940401EF401060B3E4A4005B
:1017EC00EF40905FEF40505F1379F50013D4040184
:1017FC0013950401335424411355050133552541E8
:10180C00131404013364A400F787245393050101D6
:10181C00138504002326F100EF40003193054103AA
:10182C0013050900EF4040300325C10093058105E5
:10183C00EF40802F130504009305C107EF40C02E25
:10184C000325C1008320C10A8324410A3305A44027
:10185C000324810A0329010A133515001301010B16
:10186C006780000093F5F5009357050113150501EA
:10187C00B3D7B74013550501939707013355B540BE
:10188C0033E5A70067800000130101F52326110A38
:10189C002324810AEF40505413040500131404014F
:1018AC00EF4090533365A400135435019317050191
:1018BC0093D73701131404013364F400F70735721E
:1018CC00930501012326F100EF4000269305410307
:1018DC0013053000EF4040250325C1009305810519
:1018EC00EF408024130504009305C107EF40C0238B
:1018FC000325C1008320C10A3305A4400324810AB7
:10190C00133515001301010B6780000093F5F500EA
:10191C0093570501639C0500131505019397070167
:10192C001355050133E5A700678000009386F5FF8A
:10193C0013071000131505013317D70013550501B4
:10194C003305E5003355B540B387E700B3D7B7404F
:10195C0013150501939707011355050133E5A700EE
:10196C0067800000130101F52326110A2322910A36
:10197C002320210B2324810AEF40104693040500F9
:10198C0093940401EF405045B3E4A400EF40D044DD
:10199C00EF4090441379F50093D7040163180906BE
:1019AC0013940401135404019397070133E4870043
:1019BC00F787246393050101138504002326F100A6
:1019CC00EF4080169305410313050900EF40C01545
:1019DC000325C10093058105EF4000151305040094
:1019EC009305C107EF4040140325C1008320C10AB1
:1019FC008324410A3305A4400324810A0329010AE4
:101A0C00133515001301010B678000001304F9FF57
:101A1C0013071000331787001394040113540401A7
:101A2C003304E40033542441B387E7001314040156
:101A3C0013540401B3D727416FF01FF793F5F5004A
:101A4C0093570501639C0500131505019397070136
:101A5C001355050133E5A700678000009386F5FF59
:101A6C0013071000131505013317D7001355050183
:101A7C003305E5003355B540B387E700B3D7B7401E
:101A8C0013150501939707011355050133E5A700BD
:101A9C0067800000130101F52326110A2324810A13
:101AAC00EF4090331304050013140401EF40D032BF
:101ABC003365A40013540501931705011304440066
:101ACC0093D70701135434409387470093D737407B
:101ADC00131404013364F400F70735739305010103
:101AEC002326F100EF404004930541031305300019
:101AFC00EF4080030325C10093058105EF40C00230
:101B0C00130504009305C107EF4000020325C10033
:101B1C008320C10A3305A4400324810A1335150020
:101B2C001301010B67800000B70701001387F7FF53
:101B3C0093F5F500B377E50013550501B397B7009E
:101B4C003315B500B3F7E7001315050133E5A7000E
:101B5C0067800000130101F52326110A2324810A52
:101B6C002322910A2320210BEF4010279304050018
:101B7C0093940401EF405026B3E4A400EF40D02529
:101B8C00EF409025B70701009387F7FF1379F50015
:101B9C0013D4040133F5F400331424013315250157
:101BAC003375F500131404013364A400F78724552E
:101BBC0093050101138504002326F100EF30D07644
:101BCC009305410313050900EF3010760325C1007E
:101BDC0093058105EF305075130504009305C1077B
:101BEC00EF3090740325C1008320C10A8324410A7D
:101BFC003305A4400324810A0329010A1335150077
:101C0C001301010B67800000370701001307F7FF72
:101C1C0093F5F500935705013375E500B397B700BD
:101C2C003315B500939707013375E50033E5A7002D
:101C3C0067800000130101F52326110A2324810A71
:101C4C00EF4090191304050013140401EF40D01851
:101C5C003365A400370701001354050193173500B1
:101C6C001307F7FFB3F7E700131434013364F400E0
:101C7C00F7073574930501012326F100EF30D06A84
:101C8C009305410313053000EF30106A0325C100A2
:101C9C0093058105EF305069130504009305C107C6
:101CAC00EF3090680325C1008320C10A3305A4409E
:101CBC000324810A133515001301010B6780000002
:101CCC00130101FF232481002322910023202101F1
:101CDC0093140501135405412326110013F9F50043
:101CEC0093D4044113050400631609028320C10038
:101CFC00032481009394040193D40401131505016A
:101D0C000329010033E5A4008324410013010101E0
:101D1C006780000033952401EF30D06893040500F0
:101D2C0033152401EF3010686FF05FFC130101F4E0
:101D3C00232E110A232A910A2328210B2326310B47
:101D4C002324410B232C810AEF40100913090500B1
:101D5C0013190901EF4050083369A900EF40D0076F
:101D6C00131A09019379F500135A0A419354094146
:101D7C00639C0906131A0A0113940401135A0A01ED
:101D8C0033644401F7073965930501011305090014
:101D9C002326F100EF3050599305410313850900B8
:101DAC00EF3090580325C10093058105EF30D057D3
:101DBC00130504009305C107EF3010570325C1002C
:101DCC008320C10B8324410B3305A4400324810BD6
:101DDC000329010B8329C10A032A810A1335150033
:101DEC001301010C6780000033153A01EF30905B52
:101DFC00130A050033953401EF30D05A93040500D3
:101E0C006FF05FF7130101FF23248100232291005F
:101E1C00232021019314050113540541232611009D
:101E2C0013F9F50093D40441130504006316090259
:101E3C001314050113950401135505018320C100EA
:101E4C003365A4000324810083244100032901008D
:101E5C00130101016780000033952401EF30905489
:101E6C009304050033152401EF30D0536FF05FFC61
:101E7C00130101F52326110A2324810A2322910A36
:101E8C002320210BEF40407513040500EF40C07474
:101E9C009317050193D70741131404013364A4006D
:101EAC0013953700EF3010501309050013550441FA
:101EBC0013153500EF30104F131909019314050158
:101ECC0013590901B3E42401F70734759305010193
:101EDC00130504002326F100EF3010459305410350
:101EEC0013053000EF3050440325C10093058105E4
:101EFC00EF309043138504009305C107EF30D042B7
:101F0C000325C1008320C10A0324810A3385A44020
:101F1C000329010A8324410A133515001301010B0F
:101F2C0067800000130101FF23248100232291000C
:101F3C00131705012326110093840500135707413D
:101F4C0013540541634AB002B307B040B354F74091
:101F5C003355F4408320C1000324810093170501FD
:101F6C0013950401135505018324410033E5A700A3
:101F7C0013010101678000003315B700EF30904268
:101F8C00930705003315940093840700EF309041BC
:101F9C006FF05FFC130101F4232E110A2328210B8F
:101FAC00232C810A232A910A2326310B2324410B4B
:101FBC002322510BEF40406213090500131909014C
:101FCC00EF4080613369A900EF4000619357F54100
:101FDC0013D7B701B307E50093F7F701B387E740D1
:101FEC006386070A938A07FF9319090193D909415C
:101FFC0093540941138A0A00635C500B33955901C1
:10200C00EF30503A9309050033955401EF30903975
:10201C00130405001395090113550501131404014C
:10202C003364A400F70A59579305010113050900FD
:10203C0023265101EF30502F9305410313050A005D
:10204C00EF30902E0325C10093058105EF30D02D84
:10205C00130504009305C107EF30102D0325C100B3
:10206C008320C10B8324410B3305A4400324810B33
:10207C000329010B8329C10A032A810A832A410AF5
:10208C00133515001301010C678000009319090129
:10209C0093D9094193540941130A10FF1304F0001A
:1020AC00930A10FFB3D9894033D484406FF09FF664
:1020BC00130400013304F4406FF0DFFE130101FF41
:1020CC002324810023229100232021019314050154
:1020DC00232611001389050093D4044113540541A0
:1020EC006348B002639405041395040113140401AE
:1020FC00135505018320C1003365A400032481001E
:10210C0083244100032901001301010167800000B1
:10211C003395B400EF3010299304050033152401D6
:10212C00EF305028130405006FF01FFC13C9F5FFA6
:10213C0033D52441EF3090249304050033552441CA
:10214C00EF30D023938414001304150093D414405F
:10215C0013541440939404011314040193D40441B4
:10216C00135404416FF05FF8130101F4232E110A8C
:10217C00232A910A232C810A2328210B2326310B95
:10218C002324410B2322510BEF40004593040500FF
:10219C0093940401EF404044B3E4A400EF40C043E7
:1021AC009357F54113D7B701B307E50093F7F70140
:1021BC00B387E7406380070C13990401938907FFE9
:1021CC001359094113D40441635C300933153901A7
:1021DC00EF30501D1309050033153401EF30901CFE
:1021EC0013040500138A0900131909011359090175
:1021FC001314040133642401F78934679305010136
:10220C001385040023263101EF301012930541038E
:10221C0013050A00EF3050110325C1009305810509
:10222C00EF309010130504009305C107EF30D00F69
:10223C000325C1008320C10B8324410B3305A4402B
:10224C000324810B0329010B8329C10A032A810A68
:10225C00832A410A133515001301010C6780000015
:10226C00130A0000E38209F893CAF9FF138A0900E4
:10227C006F00C001139904011359094113D404418F
:10228C00130A10FF930AE000930910FF33555941CC
:10229C00EF30D00E1309050033555441EF30100EBA
:1022AC0013041500130919001359194093571440BE
:1022BC0013190901139407011359094113540441CB
:1022CC006FF09FF2935605011316850193F5F500F7
:1022DC001357854113568641939686019357850073
:1022EC0093D686413355B7403357B640B3D6B64034
:1022FC001377F70F93978701131585013365E50065
:10230C0093D787413707FF0093960601B3F6E60093
:10231C00B3D7B740370701001307F7FF9397870030
:10232C003365D500B3F7E7003365F500678000002F
:10233C00130101F52326110A2324810A2322910A71
:10234C002320210BEF4040299304050093940401B2
:10235C00EF408028B3E4A400EF40002893D7040199
:10236C00139784011379750013D4844193978701D3
:10237C0013578741335424413357274193D787410F
:10238C0013D58400B3D727411377F70F13148401A7
:10239C003364E400131585013707FF009397070199
:1023AC00B3F7E70013558541335525413364F400E9
:1023BC00B70701009387F7FF131585003375F500F8
:1023CC003364A400F7872459930501011385040095
:1023DC002326F100EF3040759305410313050900E6
:1023EC00EF3080740325C10093058105EF30C07375
:1023FC00130504009305C107EF3000730325C100DA
:10240C008320C10A8324410A3305A4400324810A92
:10241C000329010A133515001301010B6780000015
:10242C00935605011316850193F5F5001357854155
:10243C0013568641939686019357850093D6864111
:10244C003355B7403357B640B3D6B6401377F70F72
:10245C0093978701131585013365E50093D7874161
:10246C003707FF0093960601B3F6E600B3D7B740E3
:10247C00370701001307F7FF939787003365D500E3
:10248C00B3F7E7003365F50067800000130101F531
:10249C002326110A2324810AEF400014130405009B
:1024AC0013140401EF4040133365A4009316850107
:1024BC0093D686411354B54193D6364013178500F5
:1024CC0093F6F60F131484013364D4001357B740FA
:1024DC00B706FF003377D700931705013364E40088
:1024EC0093D7B741370701001307F7FF939787007E
:1024FC00B3F7E7003364F400F7073578930501016F
:10250C002326F100EF3040629305410313053000A0
:10251C00EF3080610325C10093058105EF30C06069
:10252C00130504009305C107EF3000600325C100BB
:10253C008320C10A3305A4400324810A13351500F6
:10254C001301010B67800000130101FE232A910087
:10255C002328210123263101232E1100232C810055
:10256C002324410193F5F500935985001359050176
:10257C0093548501639405041375F50F93F9F90FC2
:10258C001379F90F8320C1010324810193948401F1
:10259C0033E5A400131909013365250193998900CA
:1025AC008324410103290101032A8100336535018C
:1025BC008329C100130101026780000013158501F6
:1025CC00138AF5FF1355854133554541EF30805C37
:1025DC001304050013958901135585413355454165
:1025EC0013198901EF30005B1359894193090500D8
:1025FC009394840133554941EF30C05993D48441AD
:10260C001309050033D54441EF30C058930415002D
:10261C00130414009389190013091900135414405E
:10262C0093D919401359194093D414401375F40FCE
:10263C0093F9F90F1379F90F93F4F40F6FF09FF4EA
:10264C00130101F52326110A2324810A2322910A5E
:10265C002320210BEF3050781304050013140401D0
:10266C00EF3090773364A400EF3010771379750056
:10267C009305090013050400EFF01FED930405000A
:10268C00F707246993050101130504002326F100C3
:10269C00EF3080499305410313050900EF30C04822
:1026AC000325C10093058105EF3000481385040014
:1026BC009305C107EF3040470325C1008320C10AB1
:1026CC000324810A3385A4400329010A8324410A87
:1026DC00133515001301010B67800000130101FE77
:1026EC00232A910023263101935485009359050127
:1026FC00232C810023282101939484011319850133
:10270C0093998901232E11002324410193F5F5009F
:10271C001359894193D4844193D9894113548541E8
:10272C00639A050413158401939909013704FF007A
:10273C00B3F989008320C101032481011379F90FB6
:10274C00B70701003365A900939484009387F7FFC2
:10275C0033653501B3F4F400032901018329C10069
:10276C00032A810033659500832441011301010282
:10277C0067800000138AF5FF33554941EF308041E3
:10278C001309150033D54441EF30C04093041500B4
:10279C0033D54941EF30004093091500335544417E
:1027AC00EF30403F130515001359194093D41440D2
:1027BC0093D91940135415406FF0DFF6130101F74C
:1027CC002326110823248108232291082320210980
:1027DC00232E3107232C4107EF30106093040500A2
:1027EC00EF30905F9317850193D787419394040141
:1027FC00B3E4A40013D52740EF30C039130A050009
:10280C00139504011355A541EF30C0381309050089
:10281C00139584001355A541EF30C037930905007B
:10282C0013D5A441EF30003713041500130A1A0016
:10283C001305190013541440135A1A4093891900A4
:10284C00137AFA0FB707FF00131484019399F90058
:10285C00135515403709010033644401B3F9F900ED
:10286C001309F9FF13158500336434013375250101
:10287C003364A400F787B4782320F100930541005A
:10288C001385040083240100EF30002A0325010086
:10289C0093058102EF304029130504009305C10410
:1028AC00EF308028330594408320C108032481082D
:1028BC0083244108032901088329C107032A8107BE
:1028CC0013351500130101096780000093F6F5001C
:1028DC009357850113570501B3D7D7401376F50FDE
:1028EC001377F70F935585003356D6401395870110
:1028FC0093F5F50FB357D7403365C5009397070190
:10290C00B3D5D5403365F500939585003365B50097
:10291C0067800000130101F52326110A2324810A84
:10292C002322910A2320210BEF30104B9304050036
:10293C0093940401EF30504AB3E4A400EF30D04933
:10294C001379750013D4840193D7040133542441B3
:10295C0013F7F40F13D5840093F7F70F3357274170
:10296C00B3D72741131484011375F50F3364E400B6
:10297C0093970701335525413364F40013158500F3
:10298C003364A400F787245B9305010113850400CD
:10299C002326F100EF30401993054103130509007C
:1029AC00EF3080180325C10093058105EF30C01767
:1029BC00130504009305C107EF3000170325C10070
:1029CC008320C10A8324410A3305A4400324810ACD
:1029DC000329010A133515001301010B6780000050
:1029EC0093F6F5009357850113570501B3D7D740DC
:1029FC001376F50F1377F70F935585003356D640A2
:102A0C001395870193F5F50FB357D7403365C50080
:102A1C0093970701B3D5D5403365F50093958500A1
:102A2C003365B50067800000130101F52326110AF8
:102A3C002324810AEF30503A1304050013140401C7
:102A4C00EF3090393365A4001354B50193573540DA
:102A5C0093F7F70113148401135735003364F40012
:102A6C00B7071F003377F7003364E4003727000003
:102A7C0093573500130707F0B3F7E7003364F400FE
:102A8C00F707357A930501012326F100EF30C009D1
:102A9C009305410313053000EF3000090325C100F5
:102AAC0093058105EF304008130504009305C10719
:102ABC00EF3080070325C1008320C10A3305A440F1
:102ACC000324810A133515001301010B67800000E4
:102ADC0093F5F5001357850093560501935785011F
:102AEC006396050293F6F60F939787011375F50F0E
:102AFC0033E5A7001377F70F939706013365F500BD
:102B0C00131787003365E500678000001388F5FF15
:102B1C0013061000331606011376F60F1375F50F16
:102B2C0093F6F60F3305C500B386C600B387C7000E
:102B3C001377F70F3307C7003355B540B3D6B640FC
:102B4C00B3D7B7403357B74093F6F60F9397870137
:102B5C001375F50F33E5A7001377F70F939706015D
:102B6C003365F500131787003365E50067800000B7
:102B7C00130101F52326110A2322910A2320210B8C
:102B8C002324810AEF30502593040500939404010B
:102B9C00EF309024B3E4A400EF30102413797500C7
:102BAC0013D7040113D5840093D784016312090849
:102BBC0093F6F40F1375F50F1377F70F1394870132
:102BCC003364D400931707013364F40013158500A4
:102BDC003364A400F787246B93050101138504006B
:102BEC002326F100EF2050749305410313050900CF
:102BFC00EF2090730325C10093058105EF20D0725F
:102C0C00130504009305C107EF2010720325C100C2
:102C1C008320C10A8324410A3305A4400324810A7A
:102C2C000329010A133515001301010B67800000FD
:102C3C001306F9FF93061000B396C60013F4F40FB5
:102C4C001375F50F1377F70F3304D4003305D50044
:102C5C003307D700B387D70033542441335525416C
:102C6C00335727419376F40F1375F50F1377F70F3E
:102C7C00B3D727416FF09FF493F5F50013578500F8
:102C8C0093560501935785016396050293F6F60F4B
:102C9C00939787011375F50F33E5A7001377F70F9B
:102CAC00939706013365F500131787003365E5002C
:102CBC00678000001388F5FF130610003316060119
:102CCC001376F60F1375F50F93F6F60F3305C50053
:102CDC00B386C600B387C7001377F70F3307C70057
:102CEC003355B540B3D6B640B3D7B7403357B740DA
:102CFC0093F6F60F939787011375F50F33E5A7003D
:102D0C001377F70F939706013365F50013178700B8
:102D1C003365E50067800000130101F52326110AD5
:102D2C002324810AEF30500B130405001314040103
:102D3C00EF30900A3365A400135485011357050135
:102D4C009376F50F93578500130444001377F70F10
:102D5C0013543440938646001307470093F7F70F3C
:102D6C0093D636401314840113573740938747008A
:102D7C003364D4001317070193D737403364E4004E
:102D8C00939787003364F400F707B57A9305010134
:102D9C002326F100EF205059930541031305300011
:102DAC00EF2090580325C10093058105EF20D057E3
:102DBC00130504009305C107EF2010570325C1002C
:102DCC008320C10A3305A4400324810A133515005E
:102DDC001301010B678000001357050193F5F500F3
:102DEC00135685019376F70FB317B500B396B6005B
:102DFC00135785003316B6001375F70F131686019B
:102E0C001397060193F7F70FB706FF003377D70038
:102E1C00B3E7C700B3E7E7003315B5003707010088
:102E2C001307F7FF131585003375E50033E5A7008D
:102E3C0067800000130101F52326110A2324810A5F
:102E4C002322910A2320210BEF30007993040500F3
:102E5C0093940401EF304078B3E4A400EF30C077D2
:102E6C001379750093D7040113D48401331424010E
:102E7C003397240193F7F70FB39727011377F70FC5
:102E8C001314840113D584003364E4009397070171
:102E9C003707FF00B3F7E7001375F50F331525015E
:102EAC003364F400B70701009387F7FF131585000F
:102EBC003375F5003364A400F787245D9305010195
:102ECC00138504002326F100EF20104693054103DF
:102EDC0013050900EF2050450325C100930581051A
:102EEC00EF209044130504009305C107EF20D04355
:102EFC000325C1008320C10A8324410A3305A44061
:102F0C000324810A0329010A133515001301010B4F
:102F1C00678000001357050193F5F50013568501E2
:102F2C009376F70FB317B500B396B6001357850019
:102F3C003316B6001375F70F131686011397060197
:102F4C0093F7F70FB706FF003377D700B3E7C70047
:102F5C00B3E7E7003315B500370701001307F7FF98
:102F6C00131585003375E50033E5A7006780000075
:102F7C00130101F8232E1106232C8106EF30C065B6
:102F8C001304050013140401EF3000653365A4002D
:102F9C00135485019317350093F7F70F1314B401ED
:102FAC00131735003364F400B707F8003377F700D4
:102FBC003364E400370701009317350013070780CB
:102FCC00B3F7E7003364F400F707357C9305410051
:102FDC002320F100EF2050350325010093058102D9
:102FEC00EF209034130504009305C104EF20D03377
:102FFC00032501008320C1073305A4400324810766
:10300C00133515001301010867800000130101FE40
:10301C00232A9100232631019354850093590501ED
:10302C00232C81002328210123244101131985011C
:10303C00939484019399890113548541232E110093
:10304C0013FA75001359894193D4844193D989415A
:10305C0013050400631A0A041379F90F131485017C
:10306C0013950901B709FF003364890033753501E5
:10307C008320C1013365A400B7070100032481013B
:10308C00939484009387F7FFB3F4F40003290101B0
:10309C008329C100032A81003365950083244101F3
:1030AC00130101026780000033154901EF205032F3
:1030BC001309050033954401EF209031930405006A
:1030CC0033954901EF20D0309309050033154401A5
:1030DC00EF2010306FF05FF8130101F4232E110A6A
:1030EC00232A910A2328210B2326310B2324410B5D
:1030FC002322510B2320610B232C810AEF30C04D6E
:10310C001309050013190901EF30004D3369A900AB
:10311C0093598900EF30404C135A0901131B890154
:10312C0093998901131A8A01937A7500135B8B4169
:10313C0093D98941135A8A419354894163900A0A5D
:10314C003705FF00131A0A01337AAA00139484017D
:10315C00137BFB0F37050100336464011305F5FF86
:10316C009399890033644401B3F9A90033643401A1
:10317C00F707596D93050101130509002326F1008A
:10318C00EF20901A9305410313850A00EF20D01904
:10319C000325C10093058105EF20101913050400C8
:1031AC009305C107EF2050180325C1008320C10BE4
:1031BC008324410B3305A4400324810B0329010B09
:1031CC008329C10A032A810A832A410A032B010A93
:1031DC00133515001301010C6780000033155B01DA
:1031EC00EF20101F130B050033955901EF20501ED3
:1031FC009309050033155A01EF20901D130A0500A1
:10320C0033955401EF20D01C930405006FF05FF34D
:10321C00130101FE232A91002326310193548500CA
:10322C0093590501232C81002328210123244101DA
:10323C001319850193948401939989011354854141
:10324C00232E110013FA75001359894193D484412C
:10325C0093D9894113050400631A0A041379F90FF1
:10326C001314850113950901B709FF003364890014
:10327C00337535018320C1013365A400B707010004
:10328C0003248101939484009387F7FFB3F4F40033
:10329C00032901018329C100032A810033659500AC
:1032AC008324410113010102678000003315490199
:1032BC00EF2010121309050033954401EF20501133
:1032CC009304050033954901EF20901093090500F4
:1032DC0033154401EF20D00F6FF05FF8130101F7A5
:1032EC002326110823248108232291082320210955
:1032FC00232E3107232C4107EF30002E1309050034
:10330C00EF30802D9317850193D78741131909014D
:10331C003369A90013953700EF20900B130A0500B1
:10332C001355890013158501135585411315350067
:10333C00EF20100A93090500135509011315850197
:10334C001355854113153500EF20900893040500A3
:10335C003704FF009394040113558941B3F484009E
:10336C00370401001304F4FF1315350093998900F9
:10337C00B3F98900EF20D00513148501B3E43401AF
:10338C00B3E484001374FA0F33E48400F707B97CB8
:10339C0093054100130509002320F100EF20C078AC
:1033AC000325010093058102EF200078130504002A
:1033BC009305C104EF204077032501008320C10849
:1033CC00832441083305A440032481080329010800
:1033DC008329C107032A810713351500130101093D
:1033EC0067800000130101FE1357850093560501F9
:1033FC00232C8100232A910023282101232631012B
:10340C002324410193148701131A85011399860112
:10341C00232E110093890500135A8A4193D48441B9
:10342C001359894113548541634EB004B307B0401E
:10343C00335AFA40B3D4F4403359F940B357F440FB
:10344C009376F90F8320C10103248101939787019F
:10345C00939606011377FA0F13F5F40FB3E7D70021
:10346C00B3E7E7001315850083244101032901010B
:10347C008329C100032A810033E5A700130101024F
:10348C00678000003315BA00EF208074130A050022
:10349C0033953401EF20C0739304050033153901C3
:1034AC00EF2000731309050033153401EF2040722F
:1034BC00930705006FF0DFF8130101F32326110CBD
:1034CC002324810C2320210D2322910C232E310B3C
:1034DC00232C410B232A510B2328610B2326710B20
:1034EC00EF30800F1309050013190901EF30C00EDE
:1034FC003369A900EF30400E9357F54113D4C7013F
:10350C00B307850093F7F700B3878740638C070EEA
:10351C0093598900935A0901138B87FF931B8901D7
:10352C0093998901939A8A0193DB8B4193D98941B1
:10353C0093DA8A4193548941130A0B006356601144
:10354C0033956B01EF20C068930B0500339569012F
:10355C00EF2000689309050033956A01EF2040675E
:10356C00930A050033956401EF208066130405006F
:10357C0093F7FA0F93970701131484013364F40043
:10358C0013F5F90F93F7FB0F3364F4001315850053
:10359C003364A400770B695F9305010113050900DF
:1035AC0023266101EF2040589305410313050A00BF
:1035BC00EF2080570325C10093058105EF20C056ED
:1035CC00130504009305C107EF2000560325C10025
:1035DC008320C10C8324410C3305A4400324810CAB
:1035EC000329010C8329C10B032A810B832A410B6C
:1035FC00032B010B832BC10A133515001301010D8D
:10360C006780000093598900935A0901931B890123
:10361C0093998901939A8A0193DB8B4193D98941C0
:10362C0093DA8A4193548941130A90FF1304700072
:10363C00130B90FFB3DB8B40B3D98940B3DA8A40CC
:10364C0033D484406FF0DFF2130480003304F44071
:10365C006FF05FFE130101FE935685009357050131
:10366C002328210123263101232441012322510146
:10367C001317850113998601939A8701232E110044
:10368C00232C8100232A910093890500135787412D
:10369C001359894193DA8A41135A85416344B00620
:1036AC006392050A135685011377F50F93F7F70FFD
:1036BC0013F5F60FB706FF00939707018320C1019E
:1036CC0003248101B3F7D70013168601B706010056
:1036DC003367E600131585009386F6FFB3E7E70022
:1036EC003375D50083244101032901018329C100CD
:1036FC00032A8100832A410033E5A700130101024C
:10370C00678000003315B700EF20804C9304050050
:10371C0033153901EF20C04B1309050033953A01DD
:10372C00EF20004B1304050033153A01EF20404AFB
:10373C001306050013F7F40F930704001305090093
:10374C006FF05FF793C9F5FF33553741EF20804495
:10375C009304050033553941EF20C043130905008C
:10376C0033D53A41EF2000431304050033553A4159
:10377C00EF20404213061500938414001305190022
:10378C009307140093D414401356164093D7174044
:10379C009356154013F7F40F1376F60F93F7F70FB4
:1037AC0013F5F60F6FF01FF1130101F4232E110A1C
:1037BC00232C810A232A910A2328210B2326310B3F
:1037CC00EF2090611304050013140401EF20D06066
:1037DC003364A400EF2050609357F54113D7C70111
:1037EC00B307E50093F7F700B387E740638E07064E
:1037FC00138987FF93090900930509001305040039
:10380C00EFF05FE5930405007709246F9305010140
:10381C001305040023262101EF20003193054103F9
:10382C0013850900EF2040300325C1009305810565
:10383C00EF20802F138504009305C107EF20C02EC5
:10384C000325C1008320C10B0324810B3385A440C5
:10385C000329010B8324410B8329C10A133515005D
:10386C001301010C67800000930990FF130990FF6E
:10387C006FF09FF893061000B395B6009395050171
:10388C0093D505019387F5FF13970701B305B04056
:10389C00931805011393050193970701939505015F
:1038AC0093D8084113570741135E0501135805417E
:1038BC0093D707011353030193D5054163521703A3
:1038CC002300D60013850700635407031307100069
:1038DC00939707012300E60033E5A70067800000FB
:1038EC0063D0B8042300D60013050300E34007FFA0
:1038FC00635EB800930710002300F60093070300E3
:10390C009397070133E5A7006780000093170E011A
:10391C0093D707019397070133E5A7006780000051
:10392C001315050123000600135505016FF0DFF98F
:10393C00130101F4232E110A232C810A232A910A44
:10394C002326310B232E71092328210B2324410B11
:10395C002322510B2320610B93090500EF20D04744
:10396C0013040500EF20504793170401B3E7A70099
:10397C009314050193DB07411307008093D4044192
:10398C001304008063C4EB0013840B0013170401B1
:10399C00135707419306F07F63D4E6001304F07FBE
:1039AC0013070080131404019388040063D4E4000B
:1039BC009308008013970801135707419306F07F73
:1039CC0063D4E6009308F07F9398080193D808011C
:1039DC00336414017789B784130B410213850700F4
:1039EC0093050B00EF204014930581041305090087
:1039FC00EF208013930AC10693850A001305040077
:103A0C00330A8940EF204012133A1A0097F600004F
:103A1C009386C6DD6306890097F60000938686DDE3
:103A2C0013070080232CE1001307F07F9357044108
:103A3C00232AE100931804011317090123286101BB
:103A4C002326710123249100232251012320F1000C
:103A5C0013088104935709419385090093D80841B1
:103A6C001357074117F60000130646D917F5000047
:103A7C00130545D9EF3080018320C10B0324810B42
:103A8C008324410B0329010B8329C10A832A410A90
:103A9C00032B010A832BC10913050A00032A810A8F
:103AAC001301010C67800000930810003397B800D5
:103ABC001317070113570701131885019357850036
:103ACC00935505019306F7FF135888419397870187
:103ADC00939585013307E04093D7874193D5854172
:103AEC009396060113180801131707019397070102
:103AFC009395050193D60641135808411357074176
:103B0C0093D7074193D505411355854163D0060BD7
:103B1C00230016011388060063D0F60893071000E3
:103B2C002300F6009387060063D2B60493051000B9
:103B3C002300B6009385060063D4A6041307100077
:103B4C002300E60093F7F70F1378F80F939787008D
:103B5C0093F5F50FB3E7070193950501B3E7B700AC
:103B6C001395860133E5A70067800000E3D6E5FCDA
:103B7C00930510002300B60093050700E3C0A6FCD4
:103B8C0093060500E350E5FC930610002300D600D5
:103B9C00930607006FF01FFBE3D8E7F893071000BC
:103BAC002300F600930707006FF01FF86358E80036
:103BBC0023001601130807006FF01FF62300060000
:103BCC006FF09FF5130101F2232E110C232C810CA5
:103BDC002328210D2326310D2324410D2322510DA1
:103BEC002320610D232A910C232E710B232C810B86
:103BFC00232A910B2328A10B13090500EF20D01DBC
:103C0C0013040500EF20501D93170401B3E7A70020
:103C1C009319850113DA870093DA0701131A8A01C5
:103C2C00939A8A0193D98941130700FC135A8A414C
:103C3C0093DA8A4113DB8741130600FC63C4E90065
:103C4C001386090013160601130700FC13560641D0
:103C5C0093060A006354EA00930600FC939606014F
:103C6C00130700FC93D6064193850A0063D4EA003F
:103C7C00930500FC93950501130700FC93D50541B2
:103C8C0013040B006354EB00130400FC1315040124
:103C9C00135505411307F0036354A7001304F003F5
:103CAC001305F00313148401138705006354B50046
:103CBC001307F0031377F70F131707019305F0039E
:103CCC003364E4001307060063D4C5001307F00344
:103CDC001377F70F1306F0033364E4001387060021
:103CEC006354D6001307F0031377F70F13178700ED
:103CFC003364E400F784678C130D410413850700CB
:103D0C0093050D00EF105062130C810693050C0007
:103D1C0013850400EF105061930CC10893850C00BF
:103D2C0013050400B38B8440EF10106093BB1B0091
:103D3C0097F60000938686AB6386840097F60000A6
:103D4C00938646AB1357840013560401131787014F
:103D5C00935584411357874113D8040193D784009A
:103D6C00130500FC13168601131484012328A102E9
:103D7C002324E10013568641135484411305F003A8
:103D8C001397840113188801939787012326A102A6
:103D9C002324A1032322610323205103232E410159
:103DAC00232C3101232A91012328B1002326C100A1
:103DBC00232281002320810193D88441930509009B
:103DCC001358884193D787411357874117F6000042
:103DDC00130646B317F50000130545B3EF20104B3F
:103DEC008320C10D0324810D8324410D0329010D72
:103DFC008329C10C032A810C832A410C032B010C4F
:103E0C00032C810B832C410B032D010B13850B0011
:103E1C00832BC10B1301010E6780000013070500F3
:103E2C0013051000B315B5009318070193960501FF
:103E3C0093D808411358074193D6060163C208066C
:103E4C00B70701009387F7FF33F3F50063CE6802E1
:103E5C009387F6FF2300A600139507011355050160
:103E6C00634A08029395050193D505016340B80494
:103E7C009386F6FF93960601930710002300F60035
:103E8C003365D50067800000230006003375F7000A
:103E9C00E35A08FC930710002300F600678000002B
:103EAC002300A600130500006FF09FFBB707FFFF70
:103EBC003377F7003365E50067800000130101F8E4
:103ECC00232E1106232C8106232A9106EF20C07085
:103EDC0013040500EF20407093170401B3E7A7000B
:103EEC00131505011355054113D7074113040000A1
:103EFC00634605001304F07F6356A406634A07006B
:103F0C009306F07F63D8E6043707FF073364E400B9
:103F1C00F784B7851385070093054100EF10D04057
:103F2C009305810213850400EF1010401305040063
:103F3C009305C104EF10503F338584408320C107A3
:103F4C00032481078324410713351500130101084D
:103F5C00678000003707FFFF33F7E7003364E400A6
:103F6C006FF01FFB13940701135404016FF01FF93A
:103F7C0093071000B395B7001357850093560501AE
:103F8C009317850113188701939E860193D7874158
:103F9C001358884193DE8E41135385019358854104
:103FAC0013FEF50F63C2070C13FFF50F1375F50F16
:103FBC0063D6E70BB3A7E70193C71700130F1000E5
:103FCC006340080213FFF50F1377F70F6352E809EC
:103FDC00131787003328E8013365E500134F1800E9
:103FEC00B3E7E7011307100063C00E0213F7F50FD8
:103FFC0093F6F60F63D8EE0433A7EE009396060102
:10400C00134717003365D500B3E7E700130710001B
:10401C0063CE080093F5F50F63D0B802B3A5B800D2
:10402C001313830113C7150033656500B3E7E7006D
:10403C002300F600678000001303FEFF1373F30FD9
:10404C006FF0DFFD9306FEFF93F6F60F6FF0DFFACD
:10405C001307FEFF1377F70F6FF09FF71305FEFFA3
:10406C001375F50F6FF01FF5130500009307100083
:10407C006FF0DFF4130101F8232E1106232C8106B7
:10408C00232A9106EF20405513040500EF20C0545D
:10409C0093170401B3E7A70093D6870013D7070142
:1040AC0013158501939686011317870113558541C6
:1040BC0093D686411357874113D6874113040000CA
:1040CC00634605001304F003635EA40A63CC060088
:1040DC009305F00363DED508B7460000938606F01F
:1040EC003364D400634A07009306F00363DAE606F0
:1040FC0037073F003364E400634A06001307F003FC
:10410C006358C7043707003F3364E400F784678DB6
:10411C001385070093054100EF10102193058102D0
:10412C0013850400EF105020130504009305C104FF
:10413C00EF10901F338584408320C107032481072F
:10414C008324410713351500130101086780000013
:10415C00370700FF33F7E7003364E4006FF01FFB11
:10416C003707FF0033F7E7003364E4006FF0DFF844
:10417C00B7060100938606F0B3F6D7003364D4007B
:10418C006FF05FF613F4F70F6FF05FF41316050181
:10419C0013560641238005003787FFFF935705010F
:1041AC00935605416308E6061318050113580801D8
:1041BC0013070800634C06023786FFFF6382C604B0
:1041CC00939707013706FFFF93D707013375C50097
:1041DC0063C606003365A70067800000B307F04094
:1041EC00139507013365A700678000003307004172
:1041FC00131707013786FFFF13570701E392C6FC1D
:10420C00930710003705FF7F2380F5003365A70067
:10421C0067800000130710002380E500378700003B
:10422C001307F7FF6FF05FF9130101F8232E110646
:10423C00232C8106232A9106EF20003A1304050053
:10424C00EF20803993170401B3E7A700131505017C
:10425C00135505413786FFFF13D7070193D6074146
:10426C00630CC508139607011356060113040600C8
:10427C00634C05063786FFFF3705FF7F638CC6004E
:10428C00131707013705FFFF1357070133F5A70075
:10429C0063C606043364A400F78417AD13850700C6
:1042AC0093054100EF10500893058102138504001B
:1042BC00EF109007130504009305C104EF10D0060E
:1042CC00338584408320C10703248107832441075D
:1042DC001335150013010108678000003307E04017
:1042EC00131507016FF01FFB3304C04013140401B6
:1042FC00135404016FF01FF8378400001304F4FF0B
:10430C006FF05FF79356850013570501131685015F
:10431C001393860193188701135686412380050059
:10432C00930700F81353834193D8884113588501A0
:10433C00135E8541630CF60E937EF50F9377F50FA4
:10434C006344060C130600F86308C30C13F6F60F4F
:10435C001316860093F6F60F63460308930600F8CF
:10436C00638CD8089376F70F939606011377F70FA3
:10437C0063C20804130700F86308EE04370700FF54
:10438C001378F80F3375E500634A0E00B3E7C700E6
:10439C00B3E7D70033E5A700678000003305004181
:1043AC00B3E7C700B3E7D7001315850133E5A700C2
:1043BC00678000003307E0401377F70F931607016F
:1043CC00130700F8E31CEEFAB3E7C700130710005D
:1043DC00B3E7D7003705007F2380E50033E5A7005E
:1043EC0067800000B306D04093F6F60F1396860054
:1043FC00930600F8E398D8F6130710002380E50025
:10440C00B7067F006FF01FF7B307D041130600F813
:10441C0093F7F70FE31CC3F2930610002380D5002B
:10442C00B7860000138606F06FF05FF39307100059
:10443C002380F5009307F0076FF0DFF0130101F80C
:10444C00232E1106232C8106232A9106EF20C01857
:10445C0013040500EF20401893170401B3E7A700DD
:10446C0013D6870093D60701131585011313860104
:10447C009398860113558541130E00F8135383410D
:10448C0093D8884193D5870113D887411307F00738
:10449C006308C50113FEF70F13F7F70F6348050CFC
:1044AC00130500F8630CA30C1374F60F131484009B
:1044BC001376F60F6344030A130500F837067F00E2
:1044CC00638AA80013F6F60F1316060193F6F60F7F
:1044DC0063CE0806930600F83705007F630AD80000
:1044EC00370500FF93F5F50F33F5A700634A080471
:1044FC00336487003364C4003364A400F78407ADCD
:10450C001385070093054100EF10006293058102AB
:10451C0013850400EF104061130504009305C104DA
:10452C00EF108060338584408320C107032481070A
:10453C00832441071335150013010108678000001F
:10454C00B305B040139585016FF09FFAB306D040C8
:10455C0093F6F60F139606016FF0DFF73306C040A3
:10456C001376F60F131486006FF01FF53307C04156
:10457C00130500F81377F70FE318A3F23784000044
:10458C00130404F06FF05FF31357E5409357F501F4
:10459C0013771700639AE70A1357D5401377170060
:1045AC006398E70A1357C54013771700639AE70A15
:1045BC001357B540137717006398E70A1357A540B4
:1045CC00137717006396E70A135795401377170074
:1045DC006394E70A13578540137717006392E70A31
:1045EC0013577540137717006390E70A135765400C
:1045FC0013771700639EE70813575540137717007E
:10460C00639CE7081357454013771700639AE70834
:10461C0013573540137717006398E7081357254055
:10462C0013771700639AE702135715401377170097
:10463C006390E708137515003385A74013351500F3
:10464C001305E5006780000013050000678000007B
:10465C0013051000678000001305C0006780000080
:10466C0013052000678000001305300067800000F0
:10467C0013054000678000001305500067800000A0
:10468C001305600067800000130570006780000050
:10469C001305800067800000130590006780000000
:1046AC001305A000678000001305B00067800000B0
:1046BC001305D00067800000131605011356064140
:1046CC009316050193D606019355E64093D6F60052
:1046DC0093F5150013570501935705416390B618D0
:1046EC009355D64093F51500639EB6169355C64068
:1046FC0093F515006394B6189355B64093F51500D1
:10470C00639AB6189355A64093F515006398B6189E
:10471C009355964093F51500639EB61893558640B5
:10472C0093F51500639CB6189355764093F51500D8
:10473C006392B61A9355664093F515006390B61ABA
:10474C009355564093F515006396B61A935546400B
:10475C0093F515006394B61A9355364093F51500EE
:10476C00639AB61A9355264093F515006394B610C8
:10477C009355164093F515006396B61A13751600EB
:10478C003385A640133515001305E50093D6E74095
:10479C001357F70093F61600631ED70A93D6D7402B
:1047AC0093F616006314D70C93D6C74093F61600F5
:1047BC00631AD70C93D6B74093F616006318D70C30
:1047CC0093D6A74093F61600631ED70C93D697404A
:1047DC0093F61600631CD70C93D6874093F61600FD
:1047EC006312D70E93D6774093F616006310D70E4C
:1047FC0093D6674093F616006316D70E93D65740A0
:10480C0093F616006314D70E93D6474093F6160012
:10481C00631AD70E93D6374093F616006318D70E4B
:10482C0093D6274093F61600631AD70E93D61740EB
:10483C0093F61600631CD70E93F71700B307F740D7
:10484C0093B717009387E7009397070133E5A70009
:10485C0067800000930700006FF01FFF1305000036
:10486C006FF0DFF2130510006FF05FF2930710008A
:10487C006FF09FFD1305C0006FF05FF11305200072
:10488C006FF0DFF0930720006FF01FFC93073000F0
:10489C006FF09FFB130530006FF05FEF13054000C6
:1048AC006FF0DFEE930740006FF01FFA9307500094
:1048BC006FF09FF9130550006FF05FED130560006A
:1048CC006FF0DFEC930760006FF01FF89307700038
:1048DC006FF09FF7130570006FF05FEB130580000E
:1048EC006FF0DFEA930780006FF01FF693079000DC
:1048FC006FF09FF5130590006FF05FE91305A000B2
:10490C006FF0DFE89307A0006FF01FF49307B0007F
:10491C006FF09FF31305B0006FF05FE79307C000D3
:10492C006FF09FF21305D0006FF05FE69307D00095
:10493C006FF09FF1130101F52326110A2324810A3C
:10494C002322910A2320210B232E3109232C4109E8
:10495C00232A51092328610923267109232481095B
:10496C0093040500EF10504713040500EF10D046D8
:10497C00131704013367A7001319050113590941D3
:10498C009316070193D606011356E94093D6F60009
:10499C00137616009357070193590741639CC6225F
:1049AC001356D94013761600639AC6221356C94083
:1049BC00137616006390C6241356B940137616006E
:1049CC006396C6241356A940137616006394C62426
:1049DC001356994013761600639AC62413568940D1
:1049EC00137616006398C624135679401376160076
:1049FC00639EC6241356694013761600639CC62426
:104A0C0013565940137616006392C6261356494026
:104A1C00137616006390C62613563940137616008B
:104A2C006396C62613562940137616006390C61C4F
:104A3C0013561940137616006392C6261376190086
:104A4C00B386C64093B616009386E60013D6E940AB
:104A5C0093D7F70013761600639AC71613D6D9406E
:104A6C00137616006390C71813D6C9401376160038
:104A7C006396C71813D6B940137616006394C718FB
:104A8C0013D6A94013761600639AC71813D699400B
:104A9C00137616006398C71813D689401376160040
:104AAC00639EC71813D6794013761600639CC718FB
:104ABC0013D66940137616006392C71A13D6594061
:104ACC00137616006390C71A13D649401376160056
:104ADC006396C71A13D63940137616006394C71A17
:104AEC0013D62940137616006396C71A13D61940AD
:104AFC00137616006398C71A13F419003384874091
:104B0C00133414001304E400131404013364D400AC
:104B1C00770A87AE130C41011305070093050C00AF
:104B2C00EF108000130B810393050B0013050A0093
:104B3C00EF00907F930BC10593850B0013050400C8
:104B4C00B30A8A40EF00507E93BA1A0097E6000031
:104B5C009386C6C963068A0097E60000938686C9C9
:104B6C0093170A012324810123227101232061015F
:104B7C0093580A0113880900130709009385040050
:104B8C0093D7070117E60000130606F117E500009E
:104B9C00130505F1EF10906F8320C10A0324810ADD
:104BAC008324410A0329010A8329C109032A8109A3
:104BBC00032B0109832BC108032C810813850A00E0
:104BCC00832A41091301010B6780000013040000C4
:104BDC006FF09FF3930600006FF05FE793061000F1
:104BEC006FF0DFE6130410006FF01FF29306C000A5
:104BFC006FF0DFE5930620006FF05FE513042000F3
:104C0C006FF09FF0130430006FF01FF0930630002C
:104C1C006FF0DFE3930640006FF05FE31304400096
:104C2C006FF09FEE130450006FF01FEE93065000D0
:104C3C006FF0DFE1930660006FF05FE1130460003A
:104C4C006FF09FEC130470006FF01FEC9306700074
:104C5C006FF0DFDF930680006FF05FDF13048000DE
:104C6C006FF09FEA130490006FF01FEA9306900018
:104C7C006FF0DFDD9306A0006FF05FDD1304A00082
:104C8C006FF09FE81304B0006FF01FE89306B000BC
:104C9C006FF0DFDB1304C0006FF01FE79306D0004A
:104CAC006FF0DFDA1304D0006FF01FE61357654086
:104CBC009357F50113771700639AE7041357554080
:104CCC00137717006398E7041357454013771700C1
:104CDC006396E70413573540137717006394E70482
:104CEC0013572540137717006392E70413571540A9
:104CFC00137717006390E704137515003385A740ED
:104D0C0013351500130565006780000013050000BE
:104D1C006780000013051000678000001305200059
:104D2C006780000013053000678000001305400009
:104D3C006780000013055000678000001318850180
:104D4C00135888419376F50F935768401357850095
:104D5C009358050193158701139E880193D676000D
:104D6C0093F7170093D58541135E8E41135385013C
:104D7C00135685416394F6189357584093F71700D0
:104D8C006396F61A9357484093F717006398F61AF0
:104D9C009357384093F71700639EF61C935728409F
:104DAC0093F717006390F61E9357184093F717006C
:104DBC006396F61E13781800B386064193B6160058
:104DCC00938666001377F70F93D7654013577700D8
:104DDC0093F717006318F71293D7554093F7170002
:104DEC00631AF71493D7454093F717006314F7161B
:104DFC0093D7354093F717006316F71693D72540D2
:104E0C0093F717006318F71893D7154093F717000B
:104E1C006312F71A93F515003307B74013371700D1
:104E2C001307670093F7F80F93556E4093D77700ED
:104E3C0093F51500639CB70C93555E4093F51500E4
:104E4C006392B70E93554E4093F51500639CB70EC5
:104E5C0093553E4093F51500639AB71093552E4029
:104E6C0093F51500639CB71093551E4093F51500F0
:104E7C00639AB71213751E003385A74013351500BE
:104E8C0013056500935566409357730093F5150011
:104E9C006392B7089355564093F515006390B70885
:104EAC009355464093F515006392B70A93553640D7
:104EBC0093F515006394B70A9355264093F51500A6
:104ECC006396B70C9355164093F515006390B70E87
:104EDC0013761600B387C74093B717009387670004
:104EEC0013178700B366D7001315050133E5A60029
:104EFC00939787013365F5006780000093060000E7
:104F0C006FF05FEC130700006FF0DFF1130500008A
:104F1C006FF05FF7930700006FF09FFC9307100092
:104F2C006FF01FFC130510006FF0DFF593061000F7
:104F3C006FF05FE9130710006FF0DFEE93062000AF
:104F4C006FF05FE8130520006FF0DFF3930720008C
:104F5C006FF01FF9130720006FF0DFEC93073000A0
:104F6C006FF01FF8130730006FF0DFEB1305300004
:104F7C006FF05FF1930630006FF0DFE41305400033
:104F8C006FF05FF0930640006FF0DFE39307400093
:104F9C006FF01FF5130740006FF0DFE89306500029
:104FAC006FF05FE2130550006FF0DFED93075000D8
:104FBC006FF01FF3130750006FF0DFE6130101F4DD
:104FCC00232E110A232C810A2328210B2324410B85
:104FDC00232A910A2326310B2322510B2320610B08
:104FEC00232E7109130A0500EF10005F130405004E
:104FFC0013140401EF10405E3364A4001305040085
:10500C00EFF0DFD313090500F70404AE930B410254
:10501C0093850B0013050400EF001031930A8104F3
:10502C0093850A0013850400EF001030130BC106A2
:10503C0093050B0013050900B3099940EF00D02E1E
:10504C0093B9190097D600009386C67A6316990017
:10505C0097D600009386867913D7040193570401E1
:10506C001377F70F135884009397870193D5840116
:10507C00135684412322E10093D7874193D88400AF
:10508C001317840113188801232C7101232A610141
:10509C00232851012326B1002324C1002320F10031
:1050AC0093050A0093F7F40F93F8F80F13588841FF
:1050BC001357874117E60000130606A717E50000F3
:1050CC00130505A7EF10901C8320C10B0324810B43
:1050DC008324410B0329010B032A810A832A410AE9
:1050EC00032B010A832BC109138509008329C10AEB
:1050FC001301010C678000009357F540639E070A6B
:10510C009357E54093F71700639C070A9357D540D4
:10511C0093F71700639E070A9357C54093F7170040
:10512C00639C070A9357B54093F71700639A070AD5
:10513C009357A54093F717006398070A9357954028
:10514C0093F717006396070A9357854093F7170058
:10515C006394070A9357754093F717006392070AF5
:10516C009357654093F717006390070A9357554080
:10517C0093F71700639E07089357454093F7170062
:10518C00639C07089357354093F71700639E0702FB
:10519C009357254093F717006394070893571540CE
:1051AC0093F7170063920708137515001335150054
:1051BC001305F500678000001305000067800000F0
:1051CC0013051000678000001305C0006780000005
:1051DC001305200067800000130530006780000075
:1051EC001305400067800000130550006780000025
:1051FC0013056000678000001305700067800000D5
:10520C001305800067800000130590006780000084
:10521C001305A000678000001305B0006780000034
:10522C001305D000678000001305E00067800000C4
:10523C0013170501135707019356F74093570501B0
:10524C00639406189356E74093F61600639206187B
:10525C009356D74093F61600639806189356C7409A
:10526C0093F61600639E06189356B74093F61600F5
:10527C00639C06189356A74093F616006392061A81
:10528C009356974093F616006394061A93568740EC
:10529C0093F616006392061A9356774093F616000F
:1052AC006394061A9356674093F61600639A061A8F
:1052BC009356574093F61600639C061A9356474034
:1052CC0093F61600639A061A9356374093F6160017
:1052DC00639806109356274093F61600639E061AA1
:1052EC009356174093F61600639C061A1377170013
:1052FC00133517001305F50013D7F7406312070C8D
:10530C0013D7E740137717006318070C13D7D74050
:10531C0013771700631E070C13D7C74013771700BA
:10532C00631C070C13D7B740137717006312070ED3
:10533C0013D7A740137717006310070E13D79740A6
:10534C00137717006312070E13D7874013771700D4
:10535C006318070E13D7774013771700631A070EDD
:10536C0013D76740137717006318070E13D75740EE
:10537C0013771700631A070E13D7474013771700DC
:10538C006310071013D7374013771700631E070EEF
:10539C0013D7274013771700631C070E13D717403A
:1053AC00137717006312071093F7170093B71700C2
:1053BC009387F7009397070133E5A70067800000F8
:1053CC00930700006FF01FFF130500006FF0DFF272
:1053DC00130510006FF05FF2930710006FF09FFD44
:1053EC001305C0006FF05FF1130520006FF0DFF0C4
:1053FC00930720006FF01FFC930730006FF09FFBAA
:10540C00130530006FF05FEF130540006FF0DFEE17
:10541C00930740006FF01FFA930750006FF09FF94D
:10542C00130550006FF05FED930760006FF09FF86D
:10543C00130560006FF05FEC130570006FF0DFEB8D
:10544C00930770006FF01FF7130580006FF0DFEA11
:10545C00930780006FF01FF6930790006FF09FF595
:10546C00130590006FF05FE99307A0006FF09FF4B5
:10547C001305A0006FF05FE81305B0006FF0DFE7D5
:10548C009307B0006FF01FF39307C0006FF09FF20B
:10549C009307D0006FF01FF21305D0006FF0DFE51B
:1054AC001305E0006FF05FE59307E0006FF09FF0ED
:1054BC00130101F8232E1106232C8106232A9106B1
:1054CC00EF1080111304050013140401EF10C01029
:1054DC003365A40013170501135707019356F740C2
:1054EC00935705016392061C9356E74093F61600FA
:1054FC006390061C9356D74093F616006396061CD1
:10550C009356C74093F61600639C061C9356B740FF
:10551C0093F61600639A061C9356A74093F6160052
:10552C006390061E9356974093F616006392061EE0
:10553C009356874093F616006390061E9356774059
:10554C0093F616006392061E9356674093F6160068
:10555C006398061E9356574093F61600639A061EE0
:10556C009356474093F616006398061E93563740A1
:10557C0093F61600639606149356274093F616007E
:10558C00639C061E9356174093F61600639A061EEC
:10559C0013741700133414001304F40013D7F740DA
:1055AC006310071013D7E740137717006316071023
:1055BC0013D7D74013771700631C071013D7C740B6
:1055CC0013771700631A071013D7B7401377170018
:1055DC006310071213D7A74013771700631E071029
:1055EC0013D79740137717006310071213D7874010
:1055FC00137717006316071213D77740137717002A
:10560C006318071213D76740137717006316071236
:10561C0013D75740137717006318071213D7474057
:10562C0013771700631E071213D737401377170031
:10563C00631C071213D7274013771700631A07123E
:10564C0013D71740137717006310071493F717003D
:10565C0093B717009387F7009397070133E48700FC
:10566C00F70495AE93054100EF00004C93058102C1
:10567C0013850400EF00404B130504009305C1048F
:10568C00EF00804A338584408320C10703248107BF
:10569C0083244107133515001301010867800000AE
:1056AC00930700006FF05FFB130400006FF01FEF17
:1056BC00130410006FF09FEE930710006FF0DFF9EA
:1056CC001304C0006FF09FED130420006FF01FED6A
:1056DC00930720006FF05FF8930730006FF0DFF74F
:1056EC00130430006FF09FEB130440006FF01FEBBE
:1056FC00930740006FF05FF6930750006FF0DFF5F3
:10570C00130450006FF09FE9930760006FF0DFF413
:10571C00130460006FF09FE8130470006FF01FE833
:10572C00930770006FF05FF3130480006FF01FE7B6
:10573C00930780006FF05FF2930790006FF0DFF13A
:10574C00130490006FF09FE59307A0006FF0DFF05B
:10575C001304A0006FF09FE41304B0006FF01FE47B
:10576C009307B0006FF05FEF9307C0006FF0DFEEB0
:10577C009307D0006FF05FEE1304D0006FF01FE2C0
:10578C001304E0006FF09FE19307E0006FF0DFEC93
:10579C0093577540639E07049357654093F7170022
:1057AC00639C07049357554093F71700639A0704BB
:1057BC009357454093F71700639807049357354068
:1057CC0093F71700639607049357254093F7170038
:1057DC00639407049357154093F7170063920704DB
:1057EC00137515001335150013057500678000003F
:1057FC00130500006780000013051000678000008F
:10580C00130520006780000013053000678000003E
:10581C0013054000678000001305500067800000EE
:10582C0013056000678000009376F50F13D6764061
:10583C001357850093550501935785016318061876
:10584C0013D6664013761600631A061A13D6564002
:10585C0013761600631C061A13D6464013761600F0
:10586C00631E061C13D63640137616006310061EF4
:10587C0013D62640137616006316062093D61640D0
:10588C0093F61600639806209376150013B616004F
:10589C00130676009376F70F13D57640631C05122A
:1058AC0013D5664013751500631E051413D55640A9
:1058BC00137515006314051613D5464013751500A2
:1058CC006316051613D5364013751500631C0518A1
:1058DC0013D5264013751500631E051893D6164074
:1058EC0093F616006394061A1377170013371700F4
:1058FC001307770093F6F50F13D576406310050E5A
:10590C0013D56640137515006316050E13D5564056
:10591C00137515006310051013D54640137515004B
:10592C006312051213D53640137515006314051256
:10593C0013D52640137515006312051493D6164023
:10594C0093F61600639C061413F515001335150019
:10595C001305750093D677406396060893D6674077
:10596C0093F616006394060893D6574093F61600E8
:10597C00639A060A93D6474093F61600639C060A70
:10598C0093D6374093F61600639A060C93D62740AD
:10599C0093F61600639C060C93D6174093F61600EC
:1059AC006392061093F7170093B71700938777004D
:1059BC00131787003367C700131505013365A7005C
:1059CC00939787013365F50067800000130600008C
:1059DC006FF05FEC130700006FF0DFF113050000B0
:1059EC006FF05FF7930700006FF09FFC93071000B8
:1059FC006FF01FFC130510006FF0DFF5130610009D
:105A0C006FF05FE9130710006FF0DFEE1306200054
:105A1C006FF05FE8130520006FF0DFF31307200031
:105A2C006FF05FED930720006FF09FF813073000C5
:105A3C006FF05FEC930730006FF09FF713063000A8
:105A4C006FF05FE5130530006FF0DFF013064000D8
:105A5C006FF05FE4130540006FF0DFEF9307400039
:105A6C006FF01FF5130740006FF0DFE8930750004D
:105A7C006FF01FF4130750006FF0DFE713055000B1
:105A8C006FF05FED130650006FF0DFE0130760005E
:105A9C006FF05FE6130660006FF0DFDF1305600048
:105AAC006FF05FEB930760006FF09FF0130101F84C
:105ABC00232E1106232C8106232A91062328210745
:105ACC00EF0090311304050013140401EF00D030E3
