:0200000480007A
:100000006F0040446F00D01B6F00C0426F00804201
:100010006F0040426F0000426F00C0416F0080419E
:100020006F0040416F0000416F00C0406F00804092
:100030006F0040406F0000406F00C03F6F00803F86
:100040006F00403F6F00003F6F00C03E6F00803E7A
:100050006F00403E6F00003E6F00C03D6F00803D6E
:100060006F00403D6F00003D6F00C03C6F00803C62
:100070006F00403C6F00003C6F00C03B6F00C04C05
:10008000971101009381011E17010300130181F7ED
:1000900017050000130505F713651500731055309B
:1000A000138501F3138601243306A640930500004F
:1000B000EF40807D1745000013058577EF30D04174
:1000C000EF40006D130500009305000013060000CB
:0C00D000EF00C0006F309041678000001E
:1000DC00130101F013050000232E110E2328210F0C
:1000EC002326310F2322510F232C810E232A910E0C
:1000FC002324410F2320610F232E710D232C810DFE
:10010C00232A910D2328A10D2326B10DEF40403455
:10011C00EF30D03F17050100130545F4B709010076
:10012C00EF40000B13094006930A00009389F9FF76
:10013C00EF30D03E9304050093940401EF30103E51
:10014C00B3E4A400EF30903DEF30503D93970401A1
:10015C00137AF50013D4044193D707413354444127
:10016C00B3D74741B3F73701131404013364F400D8
:10017C00F787445193050103138504002324F102EE
:10018C00EF30C00E9305410513050A00EF30000E49
:10019C0003258102930581071309F9FFEF30000D48
:1001AC00130504009305C109EF30400C832781022D
:1001BC003304F44013341400B38A8A00E31A09F6AA
:1001CC001306400693850A0017050100130545EA3E
:1001DC00EF40000017050100130505EC370901007D
:1001EC00EF30107F93044006930900001309F9FFC8
:1001FC00EF30D0321304050013140401EF30103229
:10020C003365A4009317050193D707411354354167
:10021C0093D73740B3F72701131404013364F40068
:10022C00F70735702326F10293050103032AC10257
:10023C00EF30C0039305410513053000EF30000388
:10024C000325C102930581079384F4FFEF3000026C
:10025C0013050400330444419305C10913341400FD
:10026C00EF30C000B3898900E39404F8130640060C
:10027C009385090017050100130545E3EF30507510
:10028C0017050100130505E5EF30907413041000F9
:10029C001309500613050400EF20506413041400D6
:1002AC00B384A400E31824FF9385040013064006CE
:1002BC0017050100130545E3EF3090711705010098
:1002CC00130505E5378B0000EF3090709304100098
:1002DC00930C00003789FFFF9309FBFF970A01007D
:1002EC00938A4AE4170A0100130A4AE4130C5006D5
:1002FC00970B0100938B0BC4EF30502213040500B5
:10030C00930D050063542501B78DFFFF63C46D0188
:10031C00938D0900770DF4E4930541051305040052
:10032C00EF20D0749305810713050D00EF20107496
:10033C009305C10913850D00EF20507393850400BC
:10034C0093880D0013080D009307810713070D0008
:10035C0093860B0013860A0013050A006382AD090D
:10036C0013034105232661001303C1099384140070
:10037C00232A210123283101232481002322B101C6
:10038C0023206100EF30D064E39884F793850C0050
:10039C001306400617050100130545E8EF305063BE
:1003AC008320C10F0324810F8324410F0329010FE4
:1003BC008329C10E032A810E832A410E032B010EC1
:1003CC00832BC10D032C810D832C410D032D010DAD
:1003DC00832DC10C13050000130101106780000070
:1003EC00930741052326F1009307C1092320F1004F
:1003FC00232A210123283101232481002322B10146
:10040C0013880D009307810713870D0097060100D1
:10041C009386C6B193841400EF30905B938C1C00D0
:10042C00E39C84ED6FF09FF61705010013051593FF
:10043C00EF30906B6FF05FFF130101FC2320110074
:10044C002322A1002324B1002326C1002328D1009C
:10045C00232AE100232CF100232E01012320110378
:10046C002322510223246102232671022328C10373
:10047C00232AD103232CE103232EF103F32220346E
:10048C0013032000638862021303B00063886200C8
:10049C0013033000638862006F00C002EF00003469
:1004AC006F0040031705010013050587EF30D0637B
:1004BC006F0040021705010013050581EF30D06273
:1004CC006F0040011705010013052587EF30D0613F
:1004DC006F004002F3221034038302001305300036
:1004EC003373A3006314A30093822200938222002F
:1004FC007390123483200100032541008325810071
:10050C000326C100832601010327410183278101B2
:10051C000328C101832801028322410203238102A3
:10052C008323C102032E0103832E4103032F810376
:10053C00832FC1031301010473002030730020309A
:10054C003305A04023ACA1F21305F0FF6780000037
:10055C00170701001307C78293075005B706001051
:10056C001307170023A0F60083470700E39A07FE42
:10057C00678000009307800523ACF1F21305F0FFB0
:10058C00678000009307800523ACF1F21305F0FFA0
:10059C00678000009307800523ACF1F21305F0FF90
:1005AC00678000009307800523ACF1F21305F0FF80
:1005BC00678000009307800523ACF1F21305F0FF70
:1005CC00678000001305F0FF678000009307C000F0
:1005DC0023ACF1F21305F0FF67800000B70704802D
:1005EC0023A0A700730050106F0000009307800534
:1005FC0023ACF1F21305F0FF678000009307B00005
:10060C0023ACF1F21305F0FF67800000B727000060
:10061C0023A2F500130500006780000093078005F6
:10062C0023ACF1F21305F0FF6780000093078005FF
:10063C0023ACF1F21305F0FF67800000930780FAFA
:10064C0023ACF1F2130500006780000013051000C5
:10065C0067800000930780FA23ACF1F21305F0FFDA
:10066C00678000001305F5FF133515006780000047
:10067C009307600123ACF1F21305F0FF67800000D3
:10068C009307F00123ACF1F21305F0FF6780000033
:10069C0013050000678000009307800523ACF1F27E
:1006AC001305F0FF678000001305F0FF6780000062
:1006BC009307800523ACF1F21305F0FF678000006F
:1006CC001305000067800000B727000023A2F50087
:1006DC0013050000678000001305F0FF6780000021
:1006EC001305F0FF678000009307200023ACF1F2A4
:1006FC001305F0FF678000009307800523ACF1F22F
:10070C001305F0FF678000009307A00023ACF1F203
:10071C001305F0FF67800000130101FF2320210166
:10072C00138901F3832709002324810023229100DC
:10073C00232611009384050013040600638A070224
:10074C001306040093850400170501001305C5303A
:10075C00EF00C06B8320C10013050400032481004B
:10076C00832441000329010013010101678000006B
:10077C00B7C501001306300093850520170501004D
:10078C001305852DEF00405B930710002320F90023
:10079C006FF01FFB23A0A1F213050000678000007F
:1007AC00138701F2832707003385A7002320A700B6
:1007BC00637C250017070300130707846376E500A5
:1007CC0013850700678000009307C00023ACF1F28B
:1007DC009307F0FF1385070067800000130101FFEA
:1007EC0023229100232611002324810023202101A0
:1007FC00930710089384050063C817099307F00248
:10080C0063C0170793071001639AF802930780FAE5
:10081C0023ACF1F28320C100032481008324410026
:10082C00032901001301010167800000930790095F
:10083C00E382F8FE9307900AE38AF8FC130750054D
:10084C0097F700009387C753B706001093871700DC
:10085C0023A0E60003C70700E31A07FE6FF09FFB17
:10086C00938808FD93071005E3EA17FD17F70000BE
:10087C001307475393982800B388E80083A7080010
:10088C00B387E700678007009307F040E3C817FBC6
:10089C009307F03F63D61703938808C09307F000C3
:1008AC00E3EE17F917F70000130747649398280035
:1008BC00B388E80083A70800B387E70067800700C8
:1008CC009307C00AE388F8F4E3D217F79307600D97
:1008DC00E396F8F623A0A1F26FF0DFF38320C100BA
:1008EC00032481009307800523ACF1F2832441009B
:1008FC000329010013010101678000008320C1005E
:10090C0003248100B727000023A2F400032901006F
:10091C008324410013010101678000009307F0015B
:10092C0023ACF1F26FF01FEF9307200023ACF1F230
:10093C006FF05FEEB707048023A0A7007300501080
:10094C006F0000009307600123ACF1F26FF09FEC95
:10095C00138901F383270900130406006386070239
:10096C0013060400032481008320C1000329010025
:10097C009385040083244100170501001305C50D60
:10098C00130101016F008048B7C501001306300048
:10099C0093850520170501001305050CEF00C039E0
:1009AC00930710002320F9006FF09FFB1305000044
:1009BC00678000001305000067800000130500002D
:1009CC00678000001305000067800000130500001D
:1009DC00678000001305000067800000130500000D
:1009EC0067800000130500006780000013050000FD
:1009FC0067800000130500006780000013050000ED
:100A0C0067800000130500006780000013050000DC
:100A1C0067800000130500006780000013050000CC
:100A2C0067800000130500006780000013050000BC
:100A3C0067800000130500006780000013050000AC
:100A4C00678000001305000067800000130500009C
:100A5C00678000001305000067800000130500008C
:100A6C00678000001305000067800000130500007C
:100A7C00678000001305000067800000130500006C
:100A8C00678000001305000067800000130500005C
:100A9C00678000001305000067800000130500004C
:100AAC006780000013050000678000008327C500E5
:100ABC006380070C03280501630C080A83250500D5
:100ACC00034695008326450103C745011377F70FAD
:100ADC003366C700A304C500137707026308070831
:100AEC003306D8401307F0006368C70A630406088E
:100AFC003387D700034307009388160013071000B1
:100B0C0023806500232A1501630CE6043387170143
:100B1C00034E070013872600130320002380C50112
:100B2C00232AE500630E66023387E700034E0700B5
:100B3C0013873600130330002380C501232AE500F8
:100B4C00630066023387E700034307009386460081
:100B5C001307400023806500232AD5006318E6089C
:100B6C009306000063140602B38616016304D800D2
:100B7C006780000083C745002328050093F7D70F33
:100B8C002382F500678000001306F0009306F6FF41
:100B9C00B38616016FF09FFD3387D700034607001D
:100BAC0093881600338717012380C500232A15016B
:100BBC0003430700138726003386E7002380650074
:100BCC00232AE50003430600138736003386E7002B
:100BDC0023806500232AE500034706009386460020
:100BEC00130600012380E500232AD5003387D700A4
:100BFC00034E070013871600130350002380C50112
:100C0C00232AE500E30E66F43387E700034E070062
:100C1C0013872600130360002380C501232AE500F7
:100C2C00E30066F43387E700034E070013873600B2
:100C3C00130370002380C501232AE500E30266F24A
:100C4C003387E700034E0700138746001303800029
:100C5C002380C501232AE500E30466F03387E7000F
:100C6C00034E070013875600130390002380C50121
:100C7C00232AE500E30666EE3387E700034E070000
:100C8C00138766001303A0002380C501232AE50007
:100C9C00E30866EC3387E700034E07001387760002
:100CAC001303B0002380C501232AE500E30A66EA9A
:100CBC003387E700034E0700138786001303C00039
:100CCC002380C501232AE500E30C66E83387E7009F
:100CDC00034E0700138796001303D0002380C50131
:100CEC00232AE500E30E66E63387E700034E070090
:100CFC001387A6001303E0002380C501232AE50017
:100D0C00E30066E63387E700034E07001387B6005F
:100D1C00130300012380C501232AE500E31666E6D0
:100D2C00B387E70083C707009386C6002380F500CE
:100D3C00232AD5006FF0DFE2130101FE232A910074
:100D4C0083240500232C8100232821012326310133
:100D5C00232E11002382040023840400930770FCCB
:100D6C002384F400238804002322B5001304050017
:100D7C003785D717138905009309060093060000E1
:100D8C00138605001305054093050000EF20102A7B
:100D9C00B70780006374F5029357F500130700F84A
:100DAC002386E40093F7F70F135575002382F400A4
:100DBC001375F50F2380A4002386040023863401C9
:100DCC0023043401A304040097070000938747CE43
:100DDC00232224018320C10123280400232604009C
:100DEC00232A0400232E0400232C040023220402B3
:100DFC002320F402032481018324410103290101EE
:100E0C008329C1001301010267800000130101FF57
:100E1C0023260100638A05086308060803250500DC
:100E2C003386C500130710038346450123260100B2
:100E3C008327C10093F6F60F636CF7008327C1007C
:100E4C00938717002326F1008327C100E378F7FE70
:100E5C0093F60602E38A06FC232601008327C100D1
:100E6C00636CF7008327C100938717002326F100DA
:100E7C008327C100E378F7FE83C705002300F50044
:100E8C00232601008327C100636CF7008327C10070
:100E9C00938717002326F1008327C100E378F7FE20
:100EAC0093851500E312B6F8130101016780000069
:100EBC006384050403C605006300060403270500CC
:100ECC00130101FF938615008347470193F7F70F32
:100EDC00A307F1008347F10093F70702E38607FEAF
:100EEC002300C70003C6060093861600E31E06FC0B
:100EFC00130101016780000067800000630E060289
:100F0C00638C05020327050097060000938646BAFA
:100F1C002326B500834747002328C500232A050054
:100F2C0093F7F70F2320D50293E727002302F7004E
:100F3C00F32740F163840700678000003727000C1B
:100F4C0097070100938747B1832607003305F540C7
:100F5C0013351500930710003395A7003365D500A2
:100F6C002320A70067800000832705000347950016
:100F7C008326050183C7470193F7F70F33E7E70093
:100F8C00A304E5006398060013D5670013751500DC
:100F9C006780000013050000678000001307050040
:100FAC006384050663020606032805008346950044
:100FBC008347480193F7F70FB3E6D700A304D50096
:100FCC0093F7170063820704130500006F0080007D
:100FDC00630AA60283460800B387A5001305150013
:100FEC002380D700032807008346970083474801D6
:100FFC0093F7F70FB3E6D700A304D70093F71700C6
:10100C00E39807FC67800000130500006780000070
:10101C00F32740F163960702B726000C97070100EF
:10102C00938787A303A60600B307F54013B71700F1
:10103C0093071000B397E700B3E7C70023A0F600AF
:10104C00B70701009387F7FF638EF50003270500B0
:10105C0093F5F5008347470093F7F70FB3E5F500D9
:10106C002302B70067800000638005049307000C1F
:10107C0063ECC70203270500232EB50083478700C6
:10108C0093F7F70333E6C7001376F60F2304C70074
:10109C008347470093F7F70F93E717002302F700F6
:1010AC00F32740F163840700678000003727000CAA
:1010BC00970701009387479A832607003305F5406D
:1010CC0013351500930710003395A7003365D50031
:1010DC002320A70067800000638605020327050014
:1010EC002320B5022326050083474700232805004B
:1010FC0093F7F70F93E727002302F700F32740F14C
:10110C0063840700678000003727000C97070100F5
:10111C0093878794832607003305F5401335150014
:10112C00930710003395A7003365D5002320A70043
:10113C006780000063820502032705002322B502A5
:10114C008347470093F7F70F93E787002302F700D5
:10115C00F32740F163840700678000003727000CF9
:10116C00970701009387478F832607003305F540C7
:10117C0013351500930710003395A7003365D50080
:10118C002320A70067800000638805106306061003
:10119C0003270500834695008347470193F7F70F14
:1011AC00B3E6D700A304D50093F707026386070EB6
:1011BC009307F00063F6C70E83C705001305000103
:1011CC002300F70083C715002300F70083C7250011
:1011DC002300F70083C735002300F70083C64500C2
:1011EC00930750002300D700630CF50C83C6550001
:1011FC00930760002300D7006304F50C83C66500D9
:10120C00930770002300D700630CF50A83C67500A2
:10121C00930780002300D7006304F50A83C685007A
:10122C00930790002300D700630CF50883C6950044
:10123C009307A0002300D7006304F50883C6A5001C
:10124C009307B0002300D700630CF50683C6B500E6
:10125C009307C0002300D7006304F50683C6C500BE
:10126C009307D0002300D700630CF50483C6D50088
:10127C009307E0002300D7006304F50483C6E50060
:10128C00930700012300D7006312F50683C7F5000E
:10129C002300F70067800000130500006780000042
:1012AC0083C70500130510002300F700630AA6008E
:1012BC0083C71500130520002300F7006314A60054
:1012CC006780000083C72500130530002300F7005A
:1012DC00E308A6FE83C73500130540002300F70082
:1012EC00E300A6FE130506006FF05FEF1305F00098
:1012FC0067800000832705000347950083C74701DB
:10130C00A304050033E5E7001375E50967800000C9
:10131C008327050003C587011375F50F678000004F
:10132C00832705000347950083C7470193F7F70F01
:10133C0033E7E700A304E50013F507066780000018
:10134C00032705008347C70093F7F70F93E70704BC
:10135C002306F70067800000032705008347C700BA
:10136C0093F7F70B2306F7006780000093570541AE
:10137C001315050193F5F500135505413355B5408B
:10138C00B3D7B74013150501939707011355050102
:10139C0033E5A70067800000130101F52326110A2D
:1013AC002324810A2322910A2320210BEF201017DA
:1013BC001304050013140401EF2050163364A40029
:1013CC00EF20D015EF2090151379F50013150401BB
:1013DC00135505419354044133552541B3D424414D
:1013EC00131505011355050193940401B3E4A400EE
:1013FC00F707245193050101130504002326F1007E
:10140C00EF10D0669305410313050900EF10106629
:10141C000325C10093058105EF1050651385040069
:10142C009305C107EF1090640325C1008320C10A06
:10143C000324810A330595400329010A8324410AB8
:10144C00133515001301010B6780000093570541FC
:10145C001315050193F5F500135505413355B540AA
:10146C00B3D7B74013150501939707011355050121
:10147C0033E5A70067800000130101F52326110A4C
:10148C002324810A2322910AEF205009130405001A
:10149C0013140401EF2090083365A4009317050181
:1014AC0093D7074193D7374013543541939707018E
:1014BC0093D70701131404013364F400F707357054
:1014CC002326F100930501018324C100EF10105A6B
:1014DC009305410313053000EF1050590325C1004B
:1014EC0093058105EF109058130504009305C1076F
:1014FC00EF10D057338584408320C10A0324810A1E
:10150C008324410A133515001301010B6780000079
:10151C00130101FF232291002326110023248100B3
:10152C002320210193F5F5009354050163960502E0
:10153C008320C10003248100131505019394040139
:10154C00135505010329010033E5A4008324410050
:10155C001301010167800000131505011389F5FFC4
:10156C001355054133552541EF10905513040500D3
:10157C00139504011355054133552541EF10505473
:10158C00930415001304140093D414408320C10059
:10159C001355144093940401032481001315050181
:1015AC0093D40401939404011355050103290100FC
:1015BC0033E5A4008324410013010101678000007E
:1015CC00130101F4232E110A232C810A232A910AD8
:1015DC002328210B2326310BEF20407493040500A4
:1015EC0093940401EF208073B3E4A400EF20007304
:1015FC00EF20C0721379F50013D40401631A0906A5
:10160C001395040113550501131404013364A4004C
:10161C00F787246193050101138504002326F1004B
:10162C00EF10D0449305410313050900EF1010444B
:10163C000325C10093058105EF10504313050400E9
:10164C009305C107EF1090420325C1008320C10B05
:10165C008324410B3305A4400324810B0329010B84
:10166C008329C10A133515001301010C6780000092
:10167C00139504019309F9FF135505413355354171
:10168C0013140401EF10D0431354044193070500C5
:10169C003355344113840700EF1090429307140024
:1016AC00130415001354144013D5174013150501DA
:1016BC001314040113550501135404016FF0DFF4E6
:1016CC00130101FF2320210193F5F50013090500F7
:1016DC001315050123229100135505419384F5FF41
:1016EC00335595402326110023248100EF10503DE3
:1016FC00130405001355094133559540EF10503C28
:10170C0013041400130515001354144013551540FD
:10171C001314040113540401131505018320C10093
:10172C0033658500032481008324410003290100D3
:10173C001301010167800000130101F52326110A32
:10174C002324810A2322910A2320210BEF20005D00
:10175C0093040500EF20805C930705001315050129
:10176C00135505419394040113559540B3E4F400CB
:10177C00EF1010351309050013D59441EF105034B8
:10178C001304150013051900135515401354144078
:10179C001315050113550501131404013364A4003A
:1017AC00F78734712326F10093050101138504009A
:1017BC008324C100EF10902B9305410313053000D7
:1017CC00EF10D02A0325C10093058105EF10102AD4
:1017DC00130504009305C107EF105029338584408D
:1017EC008320C10A0324810A8324410A0329010AA4
:1017FC00133515001301010B6780000093F5F500FC
:10180C009357050113150501B3D7B74013550501BF
:10181C00939707013355B54033E5A7006780000067
:10182C00130101F52326110A2324810A2322910A8C
:10183C002320210BEF20804E930405009394040188
:10184C00EF20C04DB3E4A400EF20404DEF20004D3D
:10185C001379F50013D40401139504013354244176
:10186C001355050133552541131404013364A400A9
:10187C00F787245393050101138504002326F100F7
:10188C00EF10D01E9305410313050900EF10101E35
:10189C000325C10093058105EF10501D13050400AD
:1018AC009305C107EF10901C0325C1008320C10ACA
:1018BC008324410A3305A4400324810A0329010A25
:1018CC00133515001301010B6780000093F5F5002B
:1018DC009357050113150501B3D7B74013550501EF
:1018EC00939707013355B54033E5A7006780000097
:1018FC00130101F52326110A2324810AEF2000424B
:10190C001304050013140401EF2040413365A400B7
:10191C00135435019317050193D7370113140401A0
:10192C003364F400F7073572930501012326F100A7
:10193C00EF10D0139305410313053000EF10101373
:10194C000325C10093058105EF1050121305040007
:10195C009305C107EF1090110325C1008320C10A24
:10196C003305A4400324810A133515001301010B20
:10197C006780000093F5F50093570501639C050003
:10198C0013150501939707011355050133E5A700BE
:10199C00678000009386F5FF1307100013150501EF
:1019AC003317D700135505013305E5003355B54002
:1019BC00B387E700B3D7B740131505019397070119
:1019CC001355050133E5A70067800000130101F5ED
:1019DC002326110A2322910A2320210B2324810A76
:1019EC00EF20C0339304050093940401EF200033DF
:1019FC00B3E4A400EF208032EF2040321379F500DD
:101A0C0093D70401631809061394040113540401B9
:101A1C009397070133E48700F7872463930501014B
:101A2C00138504002326F100EF10500493054103A5
:101A3C0013050900EF1090030325C10093058105E0
:101A4C00EF10D002130504009305C107EF1010022C
:101A5C000325C1008320C10A8324410A3305A44015
:101A6C000324810A0329010A133515001301010B04
:101A7C00678000001304F9FF130710003317870069
:101A8C0013940401135404013304E400335424412B
:101A9C00B387E7001314040113540401B3D727418F
:101AAC006FF01FF793F5F50093570501639C050044
:101ABC0013150501939707011355050133E5A7008D
:101ACC00678000009386F5FF1307100013150501BE
:101ADC003317D700135505013305E5003355B540D1
:101AEC00B387E700B3D7B7401315050193970701E8
:101AFC001355050133E5A70067800000130101F5BC
:101B0C002326110A2324810AEF2040211304050007
:101B1C0013140401EF2080203365A4001354050135
:101B2C00931705011304440093D707011354344051
:101B3C009387470093D73740131404013364F400A0
:101B4C00F7073573930501012326F100EF1000729E
:101B5C009305410313053000EF1040710325C100BC
:101B6C0093058105EF108070130504009305C107E0
:101B7C00EF10C06F0325C1008320C10A3305A440B8
:101B8C000324810A133515001301010B6780000033
:101B9C00B70701001387F7FF93F5F500B377E5005E
:101BAC0013550501B397B7003315B500B3F7E7002C
:101BBC001315050133E5A70067800000130101F53B
:101BCC002326110A2324810A2322910A2320210B84
:101BDC00EF20C0149304050093940401EF2000142B
:101BEC00B3E4A400EF208013EF204013B7070100EB
:101BFC009387F7FF1379F50013D4040133F5F40040
:101C0C0033142401331525013375F5001314040125
:101C1C003364A400F7872455930501011385040050
:101C2C002326F100EF10806493054103130509008E
:101C3C00EF10C0630325C10093058105EF1000630D
:101C4C00130504009305C107EF1040620325C10082
:101C5C008320C10A8324410A3305A4400324810A4A
:101C6C000329010A133515001301010B67800000CD
:101C7C00370701001307F7FF93F5F500935705019C
:101C8C003375E500B397B7003315B500939707018B
:101C9C003375E50033E5A70067800000130101F5FB
:101CAC002326110A2324810AEF2040071304050080
:101CBC0013140401EF2080063365A40037070100DC
:101CCC0013540501931735001307F7FFB3F7E7001B
:101CDC00131434013364F400F707357493050101D0
:101CEC002326F100EF1080589305410313053000B3
:101CFC00EF10C0570325C10093058105EF10005765
:101D0C00130504009305C107EF1040560325C100CD
:101D1C008320C10A3305A4400324810A133515001E
:101D2C001301010B6780000093170501130101FFDC
:101D3C0093F5F50093D707412324810013540541F3
:101D4C003395B700232611003314B400EF10C0599B
:101D5C0093070500130504001384070013140401F2
:101D6C00EF10805813540401131505018320C10092
:101D7C003365850003248100130101016780000095
:101D8C00130101F4232E110A232C810A232A910A10
:101D9C002328210B2326310BEF1050781304050058
:101DAC0013140401EF1090773364A400EF10107734
:101DBC001379F5001315040113550541935404418F
:101DCC0033152501EF104052B394240193090500FB
:101DDC0013850400EF1040519399090193140501E8
:101DEC0093D90901B3E43401F70724659305010184
:101DFC00130504002326F100EF104047930541031F
:101E0C0013050900EF1080460325C10093058105D9
:101E1C00EF10C045138504009305C107EF10004572
:101E2C000325C1008320C10B0324810B3385A440FF
:101E3C000329010B8324410B8329C10A1335150097
:101E4C001301010C6780000093170501130101FFBA
:101E5C0093F5F50093D707412324810013540541D2
:101E6C003395B700232611003314B400EF10C0478C
:101E7C0093070500130504001384070013140401D1
:101E8C00EF10804613540401131505018320C10083
:101E9C003365850003248100130101016780000074
:101EAC00130101F52326110A2324810A2322910A06
:101EBC002320210BEF10906613040500EF10106621
:101ECC009317050193D70741131404013364A4003D
:101EDC0013953700EF1040411309050013550441C9
:101EEC0013153500EF104040131909019314050127
:101EFC0013590901B3E42401F70734759305010163
:101F0C00130504002326F100EF104036930541031E
:101F1C0013053000EF1080350325C10093058105B2
:101F2C00EF10C034138504009305C107EF10003483
:101F3C000325C1008320C10A0324810A3385A440F0
:101F4C000329010A8324410A133515001301010BDF
:101F5C0067800000935605011316850193F5F50073
:101F6C0013578541135686419396860193578500E6
:101F7C0093D686413355B7403357B640B3D6B640A7
:101F8C001377F70F93978701131585013365E500D8
:101F9C0093D787413707FF0093960601B3F6E60007
:101FAC00B3D7B740370701001307F7FF93978700A4
:101FBC003365D500B3F7E7003365F50067800000A3
:101FCC00130101F52326110A2324810A2322910AE5
:101FDC002320210BEF1090549304050093940401DB
:101FEC00EF10D053B3E4A400EF10505393D7040177
:101FFC00139784011379750013D484419397870147
:10200C0013578741335424413357274193D7874182
:10201C0013D58400B3D727411377F70F131484011A
:10202C003364E400131585013707FF00939707010C
:10203C00B3F7E70013558541335525413364F4005C
:10204C00B70701009387F7FF131585003375F5006B
:10205C003364A400F7872459930501011385040008
:10206C002326F100EF10802093054103130509008E
:10207C00EF10C01F0325C10093058105EF10001F51
:10208C00130504009305C107EF10401E0325C10082
:10209C008320C10A8324410A3305A4400324810A06
:1020AC000329010A133515001301010B6780000089
:1020BC00935605011316850193F5F50013578541C9
:1020CC0013568641939686019357850093D6864185
:1020DC003355B7403357B640B3D6B6401377F70FE6
:1020EC0093978701131585013365E50093D78741D5
:1020FC003707FF0093960601B3F6E600B3D7B74057
:10210C00370701001307F7FF939787003365D50056
:10211C00B3F7E7003365F50067800000130101F5A4
:10212C002326110A2324810AEF10503F13040500C3
:10213C0013140401EF10903E3365A400931685012F
:10214C0093D686411354B54193D636401317850068
:10215C0093F6F60F131484013364D4001357B7406D
:10216C00B706FF003377D700931705013364E400FB
:10217C0093D7B741370701001307F7FF93978700F1
:10218C00B3F7E7003364F400F707357893050101E2
:10219C002326F100EF10800D930541031305300049
:1021AC00EF10C00C0325C10093058105EF10000C46
:1021BC00130504009305C107EF10400B0325C10064
:1021CC008320C10A3305A4400324810A133515006A
:1021DC001301010B67800000130101FE232A9100FB
:1021EC002328210123263101232E1100232C8100C9
:1021FC002324410193F5F5009359850013590501EA
:10220C0093548501639405041375F50F93F9F90F35
:10221C001379F90F8320C101032481019394840164
:10222C0033E5A4001319090133652501939989003D
:10223C008324410103290101032A810033653501FF
:10224C008329C10013010102678000001315850169
:10225C00138AF5FF1355854133554541EF10C007DF
:10226C0013040500139589011355854133554541D8
:10227C0013198901EF104006135989419309050080
:10228C009394840133554941EF10000593D4844154
:10229C001309050033D54441EF10000493041500D5
:1022AC0013041400938919001309190013541440D2
:1022BC0093D919401359194093D414401375F40F42
:1022CC0093F9F90F1379F90F93F4F40F6FF09FF45E
:1022DC00130101F52326110A2324810A2322910AD2
:1022EC002320210BEF109023130405001314040179
:1022FC00EF10D0223364A400EF1050221379750034
:10230C009305090013050400EFF01FED930405007D
:10231C00F707246993050101130504002326F10036
:10232C00EF00D0749305410313050900EF001074FE
:10233C000325C10093058105EF005073138504003C
:10234C009305C107EF0090720325C1008320C10AD9
:10235C000324810A3385A4400329010A8324410AFA
:10236C00133515001301010B67800000130101FEEA
:10237C00232A91002326310193548500935905019A
:10238C00232C8100232821019394840113198501A6
:10239C0093998901232E11002324410193F5F50013
:1023AC001359894193D4844193D98941135485415C
:1023BC00639A050413158401939909013704FF00EE
:1023CC00B3F989008320C101032481011379F90F2A
:1023DC00B70701003365A900939484009387F7FF36
:1023EC0033653501B3F4F400032901018329C100DD
:1023FC00032A8100336595008324410113010102F6
:10240C0067800000138AF5FF33554941EF00D06C0B
:10241C001309150033D54441EF00106C93041500DB
:10242C0033D54941EF00506B9309150033554441A6
:10243C00EF00906A130515001359194093D41440FA
:10244C0093D91940135415406FF0DFF6130101F7BF
:10245C0023261108232481082322910823202109F3
:10246C00232E3107232C4107EF10500B930405004A
:10247C00EF10D00A9317850193D7874193940401E9
:10248C00B3E4A40013D52740EF001065130A050030
:10249C00139504011355A541EF00106413090500B1
:1024AC00139584001355A541EF00106393090500A3
:1024BC0013D5A441EF00506213041500130A1A003F
:1024CC001305190013541440135A1A409389190018
:1024DC00137AFA0FB707FF00131484019399F900CC
:1024EC00135515403709010033644401B3F9F90061
:1024FC001309F9FF13158500336434013375250175
:10250C003364A400F787B4782320F10093054100CD
:10251C001385040083240100EF00505503250100AE
:10252C0093058102EF009054130504009305C10438
:10253C00EF00D053330594408320C1080324810855
:10254C0083244108032901088329C107032A810731
:10255C0013351500130101096780000093F6F5008F
:10256C009357850113570501B3D7D7401376F50F51
:10257C001377F70F935585003356D6401395870183
:10258C0093F5F50FB357D7403365C5009397070103
:10259C00B3D5D5403365F500939585003365B5000B
:1025AC0067800000130101F52326110A2324810AF8
:1025BC002322910A2320210BEF104076930405006F
:1025CC0093940401EF108075B3E4A400EF10007530
:1025DC001379750013D4840193D704013354244127
:1025EC0013F7F40F13D5840093F7F70F33572741E4
:1025FC00B3D72741131484011375F50F3364E4002A
:10260C0093970701335525413364F4001315850066
:10261C003364A400F787245B930501011385040040
:10262C002326F100EF0090449305410313050900A4
:10263C00EF00D0430325C10093058105EF00104343
:10264C00130504009305C107EF0050420325C10098
:10265C008320C10A8324410A3305A4400324810A40
:10266C000329010A133515001301010B67800000C3
:10267C0093F6F5009357850113570501B3D7D7404F
:10268C001376F50F1377F70F935585003356D64015
:10269C001395870193F5F50FB357D7403365C500F4
:1026AC0093970701B3D5D5403365F5009395850015
:1026BC003365B50067800000130101F52326110A6C
:1026CC002324810AEF108065130405001314040100
:1026DC00EF10C0643365A4001354B5019357354013
:1026EC0093F7F70113148401135735003364F40086
:1026FC00B7071F003377F7003364E4003727000077
:10270C0093573500130707F0B3F7E7003364F40071
:10271C00F707357A930501012326F100EF001035F8
:10272C009305410313053000EF0050340325C1001D
:10273C0093058105EF009033130504009305C10741
:10274C00EF00D0320325C1008320C10A3305A44019
:10275C000324810A133515001301010B6780000057
:10276C0093F5F50013578500935605019357850192
:10277C006396050293F6F60F939787011375F50F81
:10278C0033E5A7001377F70F939706013365F50030
:10279C00131787003365E500678000001388F5FF89
:1027AC0013061000331606011376F60F1375F50F8A
:1027BC0093F6F60F3305C500B386C600B387C70082
:1027CC001377F70F3307C7003355B540B3D6B64070
:1027DC00B3D7B7403357B74093F6F60F93978701AB
:1027EC001375F50F33E5A7001377F70F93970601D1
:1027FC003365F500131787003365E500678000002B
:10280C00130101F52326110A2322910A2320210BFF
:10281C002324810AEF108050930405009394040143
:10282C00EF10C04FB3E4A400EF10404F13797500C4
:10283C0013D7040113D5840093D7840163120908BC
:10284C0093F6F40F1375F50F1377F70F13948701A5
:10285C003364D400931707013364F4001315850017
:10286C003364A400F787246B9305010113850400DE
:10287C002326F100EF00901F930541031305090077
:10288C00EF00D01E0325C10093058105EF00101E3B
:10289C00130504009305C107EF00501D0325C1006B
:1028AC008320C10A8324410A3305A4400324810AEE
:1028BC000329010A133515001301010B6780000071
:1028CC001306F9FF93061000B396C60013F4F40F29
:1028DC001375F50F1377F70F3304D4003305D500B8
:1028EC003307D700B387D7003354244133552541E0
:1028FC00335727419376F40F1375F50F1377F70FB2
:10290C00B3D727416FF09FF493F5F500135785006B
:10291C0093560501935785016396050293F6F60FBE
:10292C00939787011375F50F33E5A7001377F70F0E
:10293C00939706013365F500131787003365E5009F
:10294C00678000001388F5FF13061000331606018C
:10295C001376F60F1375F50F93F6F60F3305C500C6
:10296C00B386C600B387C7001377F70F3307C700CA
:10297C003355B540B3D6B640B3D7B7403357B7404D
:10298C0093F6F60F939787011375F50F33E5A700B0
:10299C001377F70F939706013365F500131787002C
:1029AC003365E50067800000130101F52326110A49
:1029BC002324810AEF10803613040500131404013C
:1029CC00EF10C0353365A40013548501135705016E
:1029DC009376F50F93578500130444001377F70F84
:1029EC0013543440938646001307470093F7F70FB0
:1029FC0093D63640131484011357374093874700FE
:102A0C003364D4001317070193D737403364E400C1
:102A1C00939787003364F400F707B57A93050101A7
:102A2C002326F100EF0090049305410313053000B9
:102A3C00EF00D0030325C10093058105EF001003BF
:102A4C00130504009305C107EF0050020325C100D4
:102A5C008320C10A3305A4400324810A13351500D1
:102A6C001301010B678000001357050193F5F50066
:102A7C00135685019376F70FB317B500B396B600CE
:102A8C00135785003316B6001375F70F131686010E
:102A9C001397060193F7F70FB706FF003377D700AC
:102AAC00B3E7C700B3E7E7003315B50037070100FC
:102ABC001307F7FF131585003375E50033E5A70001
:102ACC0067800000130101F52326110A2324810AD3
:102ADC002322910A2320210BEF104024930405009C
:102AEC0093940401EF108023B3E4A400EF100023AF
:102AFC001379750093D7040113D484013314240182
:102B0C003397240193F7F70FB39727011377F70F38
:102B1C001314840113D584003364E40093970701E4
:102B2C003707FF00B3F7E7001375F50F33152501D1
:102B3C003364F400B70701009387F7FF1315850082
:102B4C003375F5003364A400F787245D9305010108
:102B5C00138504002326F100EF0040719305410317
:102B6C0013050900EF0080700325C1009305810552
:102B7C00EF00C06F130504009305C107EF00006F51
:102B8C000325C1008320C10A8324410A3305A440D4
:102B9C000324810A0329010A133515001301010BC3
:102BAC00678000001357050193F5F5001356850156
:102BBC009376F70FB317B500B396B600135785008D
:102BCC003316B6001375F70F13168601139706010B
:102BDC0093F7F70FB706FF003377D700B3E7C700BB
:102BEC00B3E7E7003315B500370701001307F7FF0C
:102BFC00131585003375E50033E5A70067800000E9
:102C0C00130101F8232E1106232C8106EF1000115D
:102C1C001304050013140401EF1040103365A400D5
:102C2C00135485019317350093F7F70F1314B40160
:102C3C00131735003364F400B707F8003377F70047
:102C4C003364E4003707010093173500130707803E
:102C5C00B3F7E7003364F400F707357C93054100C4
:102C6C002320F100EF008060032501009305810211
:102C7C00EF00C05F130504009305C104EF00005F73
:102C8C00032501008320C1073305A44003248107D9
:102C9C00133515001301010867800000130101FEB4
:102CAC00232C810013040500131585012326310103
:102CBC001355854193F9F50033153501232E110079
:102CCC00232A91002328210123244101EF00806451
:102CDC00130A0500135584001315850113558541FE
:102CEC0033153501EF0000639304050013550401FF
:102CFC00131585011355854133153501EF0080619E
:102D0C00135484411309050033153401EF0080601E
:102D1C001379F90F8320C1010324810193178501D5
:102D2C0013190901B3E727011375FA0F93F4F40F84
:102D3C009394840033E5A700032901018329C10082
:102D4C00032A81003365950083244101130101029C
:102D5C0067800000130101F4232E110A232C810A31
:102D6C00232A910A2328210B2326310B2324410BE0
:102D7C002322510BEF00907A9304050093940401E5
:102D8C00EF00D079B3E4A400EF0050791379F5008B
:102D9C00139584011355854133152501EF00805798
:102DAC00930A050013D5840013158501135585412D
:102DBC0033152501EF0000569309050013D50401C6
:102DCC00131585011355854133152501EF008054EA
:102DDC0093D78441130A050033952701EF008053E4
:102DEC00137AFA0F13148501131A0A013364440180
:102DFC0093FAFA0F93F9F90F336454011395890080
:102E0C003364A400F787246D930501011385040036
:102E1C002326F100EF0080459305410313050900BB
:102E2C00EF00C0440325C10093058105EF00004469
:102E3C00130504009305C107EF0040430325C100AF
:102E4C008320C10B8324410B3305A4400324810B45
:102E5C000329010B8329C10A032A810A832A410A07
:102E6C00133515001301010C67800000130101FEDE
:102E7C00232C810013040500131585012326310131
:102E8C001355854193F9F50033153501232E1100A7
:102E9C00232A91002328210123244101EF0080479C
:102EAC00130A05001355840013158501135585412C
:102EBC0033153501EF00004693040500135504014A
:102ECC00131585011355854133153501EF008044E9
:102EDC00135484411309050033153401EF0080436A
:102EEC001379F90F8320C101032481019317850104
:102EFC0013190901B3E727011375FA0F93F4F40FB3
:102F0C009394840033E5A700032901018329C100B0
:102F1C00032A8100336595008324410113010102CA
:102F2C0067800000130101F7232611082324810870
:102F3C002322910823202109232E3107232C41071A
:102F4C00EF00D05D93040500EF00505D93178501F1
:102F5C0093D7874193940401B3E4A40013953700ED
:102F6C00EF00403B130A050013D5840013158501AF
:102F7C001355854113153500EF00C03913090500B1
:102F8C0013D504011315850113558541131535000F
:102F9C00EF00403893D7844193090500139537000F
:102FAC00EF00403793F9F90F131485019399090138
:102FBC0033643401137AFA0F1379F90F3364440133
:102FCC00131589003364A400F787B47C9305410082
:102FDC00138504002320F100EF0040290325010094
:102FEC0093058102EF008028130504009305C104AA
:102FFC00EF00C027032501008320C108832441086A
:10300C003305A44003248108032901088329C1073F
:10301C00032A81071335150013010109678000008D
:10302C0093061000B395B6009395050193D5050151
:10303C009387F5FF13970701B305B040931805016B
:10304C0013930501939707019395050193D80841B4
:10305C0013570741135E05011358054193D7070118
:10306C001353030193D50541635217032300D60074
:10307C001385070063540703130710009397070188
:10308C002300E60033E5A7006780000063D0B80496
:10309C002300D60013050300E34007FF635EB8006E
:1030AC00930710002300F600930703009397070182
:1030BC0033E5A7006780000093170E0193D7070133
:1030CC009397070133E5A7006780000013150501EE
:1030DC0023000600135505016FF0DFF9130101F30E
:1030EC002326110C2324810C2322910C232E310B2B
:1030FC00232C410B2324810B2320210D232A510B3C
:10310C002328610B2326710B130A0500EF001041D5
:10311C009304050093940401EF005040B3E4A40021
:10312C009319050113DC0441930700F893D9094165
:10313C00130400F86344FC0013040C0093170401FF
:10314C0093D707411307F0076354F7001304F007F4
:10315C00130700F8131404019387090063D4E900E2
:10316C00930700F813970701135707419306F007CD
:10317C0063D4E6009307F0079397070193D70701F1
:10318C003364F40077897484130B410393050B00AB
:10319C0013850400EF00800D9305810513050900CC
:1031AC00EF00C00C930AC10793850A0013050400B5
:1031BC00B30B8940EF00800B93BB1B0097D600002C
:1031CC009386C6D66306890097D60000938686D66A
:1031DC009317040193D70741130600F813570441C2
:1031EC002322C1022322F1001306F00793170901D1
:1031FC002320C102232E6101232C8101232A3101BA
:10320C0023289100232651012324E100232081004F
:10321C0093088105135809411307090093050A0007
:10322C0093D7074117D60000130646D117D50000D7
:10323C00130545D1EF00D0798320C10C0324810CF8
:10324C008324410C0329010C8329C10B032A810B14
:10325C00832A410B032B010B032C810A13850B00D2
:10326C00832BC10A1301010D6780000093860500B2
:10327C009307F00113061000130310031308F0FF5B
:10328C00930800033317F6003377A700631E07007B
:10329C00238016019387F7FF93861600E39407FFAC
:1032AC002380050267800000238066009387F7FF68
:1032BC0093861600E39807FD2380050267800000C3
:1032CC00B7070100B377F50063860700B707FEFF69
:1032DC003365F50067800000937705106384070061
:1032EC00136505E067800000B7870000635CF5009C
:1032FC00B787FFFF634CF500131505011355054106
:10330C00678000001385F7FF678000003785FFFF9B
:10331C00678000009307F00763CCA700930700F8C1
:10332C00634CF5001315850113558541678000002A
:10333C001305F00767800000130500F86780000094
:10334C00930E05001308000063C6051263DC06002B
:10335C00B337C000B306D0401348F8FFB386F6402D
:10336C003306C0409387060013030600138E0E002D
:10337C00938805006398060E63F0C51637070100A5
:10338C006360E624B7070001636AF644935686012E
:10339C0093078001370701801307C7243307D70031
:1033AC000347070093060002B307F7003387F64084
:1033BC00638CF600B395E500B3D7FE003313E6003B
:1033CC00B3E8B700339EEE0093550301B3D7B802B0
:1033DC00131603011356060113570E01B3F6B80268
:1033EC003305F60293960601B3E8E60063FCA800E9
:1033FC00B38868001387F7FF63E4680063ECA840A8
:10340C0093070700B388A840B3D6B802131E0E0169
:10341C00135E0E01B3F8B8023306D6029398080176
:10342C00B3E8C80163FEC800B30813011387F6FFA5
:10343C0063E668009386E6FF63E4C8009306070022
:10344C00139507013365D50093050000630A080046
:10345C00B337A000B305B040B385F5403305A040A9
:10346C006780000063F4D50293050000130500008B
:10347C006FF0DFFDB337A000B305B040B385F54066
:10348C00B30EA0401308F0FF6FF05FECB70701001C
:10349C0063E4F614B707000163E0F63213D5860136
:1034AC0013078001B70701809387C724B387A70050
:1034BC0083C8070093070002B388E80033831741E1
:1034CC006398171D63E2B63233B5CE001345150071
:1034DC00930500006FF09FF76316060013031000AE
:1034EC003353D302370701006360E30CB7070001C5
:1034FC006360F32E93568301930780013707018095
:10350C001307C7243307D7000347070093060002AD
:10351C00B307F7003387F640639AF60C131F0301C9
:10352C00B3866540935F0301135F0F019305100091
:10353C0013570E01B3D7F603B3F6F6033386E7033E
:10354C009396060133E7E600637CC70033076700F8
:10355C009386F7FF636467006364C72C9387060048
:10356C003307C740B356F703131E0E01135E0E014B
:10357C003377F703338FE603131707013367C7015C
:10358C00637EE7013307E3001386F6FF636667008B
:10359C009386E6FF6364E701930606001395070123
:1035AC003365D5006FF09FEA1307F00F9306030005
:1035BC00E37667F493568300930780006FF01FF453
:1035CC001307F00F93060600E376C7DC93568600CC
:1035DC00930780006FF01FDC9307F00F63F4D71E86
:1035EC0013D58600130780006FF0DFEB3313E30075
:1035FC0033D6F500935F0301B358F603B395E5009A
:10360C00B3D7FE00B3E6B700131F0301135F0F011E
:10361C0013D50601339EEE00B377F603B3051F03F3
:10362C0093970701B3E7A70063FEB700B387670062
:10363C001387F8FF63EC671C63FAB71C9388E8FFE9
:10364C00B3876700B387B74033D7F7039395060169
:10365C0093D50501B3F7F7033306EF0293960701F1
:10366C00B3E5B60063FEC500B38565009307F7FFAD
:10367C0063E6651863F4C5181307E7FFB3856500A7
:10368C0093980801B386C540B3E5E8006FF05FEA94
:10369C00B3571601B3966600B3E6D70033D71501BE
:1036AC0093DF0601335FF703139E0601135E0E01D1
:1036BC00B3956500B3D81E01B3E5B80093D70501E7
:1036CC00331666003377F7033305EE031317070140
:1036DC00B367F70063FEA700B387D7001307FFFF9C
:1036EC0063E2D71263F0A712130FEFFFB387D70073
:1036FC00B387A74033D7F7039395050193D50501FD
:10370C00B3F7F703B308EE0293970701B3E5B700DD
:10371C0063FE1501B385D5009307F7FF63ECD50C59
:10372C0063FA150D1307E7FFB385D50013150F01C9
:10373C00B70F01003365E5009387FFFF3377F50082
:10374C00135E0501B377F60013560601330FF7022B
:10375C00B38515413307C70293560F01B307FE0219
:10376C003307F7003387E6003306CE026374F700A5
:10377C003306F601135E07013306CE0063E8C5027B
:10378C006386C500930500006FF05FCCB70601009F
:10379C009386F6FF3377D70093170701337FDF004B
:1037AC00B39E6E00B387E701E3FEFEFC1305F5FF45
:1037BC00930500006FF09FC913D506011307000194
:1037CC006FF05FCE13850600130700006FF09FCDDE
:1037DC0093560301930700016FF05FD293560601D5
:1037EC00930700016FF01FBB930500001305100039
:1037FC006FF0DFC5138707006FF05FF313870700C7
:10380C006FF01FE8130F07006FF09FEE930807008F
:10381C006FF05FE39387E7FFB38868006FF09FBE9C
:10382C009387E7FF330767006FF09FD3138E060073
:10383C00930806001303050013880500639E060C0D
:10384C0063FAC512B7070100636AF620B7070001D7
:10385C006366F64213578601130E8001B707018089
:10386C009387C724B387E70083C7070013070002B9
:10387C00338EC701B307C741630CC7013398F500FA
:10388C00335EC501B318F60033680E013313F5002F
:10389C0093D508013355B8029396080193D60601C7
:1038AC00935703013377B8023386A6021317070127
:1038BC003368F700637CC800330818019307F5FFE1
:1038CC00636418016368C83E138507003308C84059
:1038DC003356B80213130301135303013378B802A0
:1038EC00B386C6021318080133686800637ED800DB
:1038FC00338808019307F6FF636618011306E6FF89
:10390C006364D80013860700131505013365C500E1
:10391C00930500006780000063F8D5009305000054
:10392C001305000067800000B707010063E4F6147C
:10393C00B707000163E2F63213D886011307800142
:10394C00B70701809387C724B387070103CE07000D
:10395C0093070002330EEE00B38EC7416398C71D68
:10396C0063E4B6323336C5001345160093050000E8
:10397C00678000006316060093071000B3D8C702D7
:10398C00B707010063E0F80CB707000163E2F82EFB
:10399C0013D78801130E8001B70701809387C724C2
:1039AC00B387E70083C6070093070002338EC60176
:1039BC00B382C741639AC70D139F08013387154122
:1039CC0093DF0801135F0F01930510009357030158
:1039DC003355F7033377F703B306E50313170701E2
:1039EC00B367F70063FCD700B38717011307F5FF24
:1039FC0063E4170163E6D72C13050700B387D740A0
:103A0C0033D6F7031313030113530301B3F7F7036F
:103A1C00330FE60393970701B3E7670063FEE701F3
:103A2C00B387F8001307F6FF63E617011306E6FFEA
:103A3C0063E4E70113060700131505013365C500A0
:103A4C00678000009307F00F13870800E3F617F563
:103A5C0013D78800130E80006FF01FF49307F00F3C
:103A6C0013070600E3FCC7DE13578600130E800015
:103A7C006FF0DFDE9307F00F63F6D71E13D88600C6
:103A8C00130780006FF0DFEBB398580033D6C501F5
:103A9C0093DF0801B35EF603139F0801135F0F0158
:103AAC0033975500335EC5013367EE00935507011C
:103ABC0033135500B376F603B307DF039396060171
:103ACC00B3E6B60063FEF600B38616011386FEFF5E
:103ADC0063EE161D63FCF61C938EEEFFB386160187
:103AEC00B386F640B3D7F603131E0701135E0E011F
:103AFC00B3F6F6033306FF02139706013367C701CB
:103B0C00637EC700330717019386F7FF63681719A5
:103B1C006376C7189387E7FF3307170193950E0158
:103B2C003307C740B3E5F5006FF05FEAB357C60142
:103B3C00B396D601B3E6D70033D3C50113DF060124
:103B4C00B358E30313970601135707013398D501B4
:103B5C00335EC50133680E01935708013316D60145
:103B6C003373E303B305170313130301B367F300B4
:103B7C0063FEB700B387D7001383F8FF63E4D71253
:103B8C0063F2B7129388E8FFB387D700B387B740C7
:103B9C0033D3E7031318080113580801B3F7E703ED
:103BAC00B30567029397070133E80701637EB800FA
:103BBC003308D8009307F3FF636ED80C637CB80C02
:103BCC001303E3FF3308D80093980801370F010063
:103BDC00B3E868009307FFFF33F7F80013D308012D
:103BEC00B377F60013560601330EF7023308B840CC
:103BFC003307C70293560E01B307F3023307F700DE
:103C0C003387E6003306C3026374F7003306E6011C
:103C1C00135307013306C300636AC8026308C80064
:103C2C00138508009305000067800000B7060100AB
:103C3C009386F6FF3377D70093170701337EDE00A8
:103C4C003315D501B387C701E37CF5FC1385F8FF69
:103C5C00930500006780000013D8060113070001CC
:103C6C006FF01FCE13880600130700006FF05FCDB6
:103C7C0013D70801130E00016FF01FD21357060162
:103C8C00130E00016FF09FBD93050000130510008B
:103C9C0067800000138307006FF01FF39387060003
:103CAC006FF0DFE7930803006FF05FEE930E0600F2
:103CBC006FF01FE31305E5FF330818016FF01FC108
:103CCC001305E5FFB38717016FF05FD3930505006C
:103CDC009306000013060000130500006F009050BF
:103CEC00130101FF930500002324810023261100FA
:103CFC0013040500EF00905883A741F36384070079
:103D0C00E780070013050400EFC05F8D83A741F225
:103D1C0023ACA70823AE07086780000003A841F274
:103D2C00B785954C9385D5F2832688090327C80956
:103D3C00B387B60213861700B337F600232CC808D6
:103D4C0037F651581306D6423386C6023307B702EC
:103D5C00B3B6B6023307C7003307D700B387E70003
:103D6C0013951700232EF8081355150067800000D3
:103D7C001305000067800000B785008037150180AF
:103D8C001386818293858579130585A96F0000358B
:103D9C00130101FF83254500232481002322910078
:103DAC0023261100138401F5930405006384850018
:103DBC00EF40D01D83A58400930784066386F5002D
:103DCC0013850400EF40901C83A5C4001304040D5C
:103DDC00638E8500032481008320C10013850400B9
:103DEC0083244100130101016F40501A8320C1004C
:103DFC00032481008324410013010101678000002A
:103E0C001305000067800000130101FE232C8100C4
:103E1C00B7470080138401F5938747D823AAF1F2A2
:103E2C001306800093074000930500001305C4059A
:103E3C00232E1100232A910023282101232631014E
:103E4C00232441012326F40023220406232004000A
:103E5C00232204002324040023280400232A040022
:103E6C00232C0400EF009021374A0080B7490080D2
:103E7C0037490080B7440080B7070100130A0A30A5
:103E8C00938949361309C93E938444459387970017
:103E9C0013068000930500001305440C23204403F3
:103EAC00232234032324240323269402232AF406F6
:103EBC00232E84002326040C232404062326040624
:103ECC0023280406232C0406232E0406232004088E
:103EDC00EF00D01A930784062322F408B7070200D8
:103EEC00938727011305C412130680009305000065
:103EFC00232444092326340923282409232A94083B
:103F0C00232EF40C232A04122328040C232A040C39
:103F1C00232C040C2320040E2322040E2324040E31
:103F2C00EF00D0159307040D2328440F232A340FD8
:103F3C00232C240F232E940E8320C1012326F40E50
:103F4C000324810183244101032901018329C10038
:103F5C00032A8100130101026780000083A741F34B
:103F6C00130101FE23263101232E1100232C810085
:103F7C00232A9100232821012324410193090500C0
:103F8C006388070E138981829304F0FF130A4000A3
:103F9C0083274900032489009387F7FF63D8070020
:103FAC006F00400813048406638E97060317C40041
:103FBC009387F7FFE31807FEB707FFFF93871700F8
:103FCC0023220406232004002322040023240400BB
:103FDC002326F40023280400232A0400232C0400A5
:103FEC0013068000930500001305C405EF001009AB
:103FFC0023280402232A0402232204042324040475
:10400C008320C10113050400032481018324410191
:10401C00032901018329C100032A81001301010234
:10402C0067800000032409006306040013090400E0
:10403C006FF01FF69305C01A13850900EF00D079B5
:10404C0013040500630A05021305C50023200400B0
:10405C00232244012324A4001306001A9305000014
:10406C00EF00D00123208900130904006FF05FF2E8
:10407C00EFF09FD96FF01FF1232009009307C000C8
:10408C0023A0F9006FF0DFF7832745036384070053
:10409C006780000003A741F3B74700809387C7D917
:1040AC00232AF502E31607FE6FF01FD66780000087
:1040BC0067800000B7450080138681829385C5D741
:1040CC00130500006F008001B745008013868182C4
:1040DC009385C5E0130500006F004000130101FD3E
:1040EC0023202103232E3101232C4101232A5101AA
:1040FC002328610123267101232611022324810226
:10410C0023229102930B0500138B0500930A0600E2
:10411C00130A0000930910001309F0FF83A44A004E
:10412C0003A48A009384F4FF63C804028357C40079
:10413C009384F4FF63FEF9008317E40093050400F5
:10414C0013850B0063862701E7000B00336AAA0076
:10415C0013048406E39C24FD83AA0A00E3900AFC62
:10416C008320C1020324810283244102032901021A
:10417C008329C101832A4101032B0101832BC10037
:10418C0013050A00032A8101130101036780000053
:10419C00130101FC2324C1022326D1022328E102AE
:1041AC00232AF102232C0103232E1103138605006D
:1041BC008325850093068102232E11002326D1002E
:1041CC00EF10805B8320C1011301010467800000A4
:1041DC0003A341F2130101FC2324C1022326D102C3
:1041EC002322B1022328E102232AF102232C01030A
:1041FC00232E110383258300930641021306050029
:10420C0013050300232E11002326D100EF10C056F6
:10421C008320C1011301010467800000130101FC1C
:10422C00232C81021304050013850500232A910217
:10423C00232E110293840500EF000072B707018052
:10424C009387C7342324F102930710002326F1022D
:10425C00032744039307010293061500232AF10058
:10426C0093072000232091022322A102232ED100A8
:10427C00232CF10083258400630E07048397C5006B
:10428C00139727016342070203A74506B7260000D0
:10429C00B3E7D700B7E6FFFF9386F6FF3377D70077
:1042AC002396F50023A2E50613064101130504002D
:1042BC00EF40500F8320C103032481033335A0004A
:1042CC003305A040832441031365A50013010104A9
:1042DC0067800000130504002326B100EFF0DFDA3D
:1042EC008325C1006FF09FF99305050003A541F2EA
:1042FC006FF0DFF2130101FF23248100138405000A
:10430C008395E50023261100EF00C03A63400502B7
:10431C00832704058320C100B387A7002328F40456
:10432C000324810013010101678000008357C4003E
:10433C0037F7FFFF1307F7FFB3F7E7008320C10040
:10434C002316F4000324810013010101678000008F
:10435C0013050000678000008397C500130101FE60
:10436C00232C8100232A91002328210123263101AB
:10437C00232E110013F70710138405009304050076
:10438C008395E5001309060093890600631E070256
:10439C0037F7FFFF1307F7FFB3F7E7002316F40017
:1043AC00032481018320C1019386090013060900AF
:1043BC008329C100032901011385040083244101D1
:1043CC00130101026F0080359306200013060000D4
:1043DC00EF00C0278317C4008315E4006FF05FFB68
:1043EC00130101FF23248100138405008395E5004C
:1043FC0023261100EF0080259307F0FF6304F502DC
:10440C008357C400371700008320C100B3E7E700CF
:10441C002328A4042316F4000324810013010101B2
:10442C00678000008357C40037F7FFFF1307F7FFBF
:10443C00B3F7E7008320C1002316F40003248100A6
:10444C0013010101678000008395E5006F000007F0
:10445C00130101FE232C81001304050003A541F276
:10446C001307F0FF9307F0FF1306000093050100FC
:10447C00232E11002320E1002322F100EF00C016AF
:10448C0063480502032701008327410063060400EB
:10449C002320E4002322F4008320C10103248101A2
:1044AC0013050700938507001301010267800000C4
:1044BC001307F0FF9307F0FF6FF05FFD130101FF8F
:1044CC002324810023229100130405001385050089
:1044DC002326110023AC01F2EFC0CF8E9307F0FF1F
:1044EC00630CF5008320C100032481008324410068
:1044FC00130101016780000083A781F3E38407FEA9
:10450C008320C1002320F400032481008324410074
:10451C00130101016780000083A741F26384A70C9B
:10452C0083254504130101FE232A9100232E11003B
:10453C00232C81002328210123263101930405001B
:10454C00638005041309000093090008B387250153
:10455C0003A40700630E0400930504000324040065
:10456C0013850400EF008076E31804FE83A5440451
:10457C0013094900E31C39FD13850400EF00007595
:10458C0083A584036386050013850400EF00007483
:10459C0083A5C4046386050013850400EF00007333
:1045AC0083A7440363820702032481018320C10192
:1045BC00032901018329C1001385040083244101CF
:1045CC0013010102678007008320C10103248101CC
:1045DC0083244101032901018329C1001301010234
:1045EC006780000067800000130101FF138705003E
:1045FC002324810023229100130405009305060057
:10460C00130507002326110023AC01F2EFC08F84A1
:10461C009307F0FF630CF5008320C1000324810095
:10462C0083244100130101016780000083A781F3FB
:10463C00E38407FE8320C1002320F40003248100BF
:10464C00832441001301010167800000130101FF65
:10465C001387050023248100232291009305060073
:10466C00130405001386060013050700232611000A
:10467C0023AC01F2EFC0CF819307F0FF630CF50080
:10468C008320C10003248100832441001301010114
:10469C006780000083A781F3E38407FE8320C100B9
:1046AC002320F40003248100832441001301010121
:1046BC0067800000130101FF13870500232481008C
:1046CC0023229100930506001304050013860600AF
:1046DC00130507002326110023AC01F2EFB05FFE97
:1046EC009307F0FF630CF5008320C10003248100C5
:1046FC0083244100130101016780000083A781F32B
:10470C00E38407FE8320C1002320F40003248100EE
:10471C00832441001301010167800000130101FF94
:10472C0013870500232481002322910093050600A2
:10473C001304050013860600130507002326110039
:10474C0023AC01F2EFB05FFD9307F0FF630CF500B3
:10475C008320C10003248100832441001301010143
:10476C006780000083A781F3E38407FE8320C100E8
:10477C002320F40003248100832441001301010150
:10478C0067800000130101FF2324810023202101F5
:10479C003714018037190180930704A6130909A661
:1047AC003309F94023261100232291001359294083
:1047BC0063000902130404A6930400008327040079
:1047CC009384140013044400E7800700E31899FE57
:1047DC003714018037190180930704A6130909A621
:1047EC003309F9401359294063000902130404A644
:1047FC0093040000832704009384140013044400E2
:10480C00E7800700E31899FE8320C1000324810090
:10481C00832441000329010013010101678000007A
:10482C00130101FF23248100B71701803714018085
:10483C00130404A6938707A6B3878740232291000D
:10484C002326110093D42740638004029387C7FF6B
:10485C0033848700832704009384F4FF1304C4FF7C
:10486C00E7800700E39804FE8320C1000324810045
:10487C008324410013010101678000001303F00041
:10488C0013070500637EC3029377F7006390070A52
:10489C0063920508937606FF1376F600B386E6005E
:1048AC002320B7002322B7002324B7002326B70008
:1048BC0013070701E366D7FE631406006780000048
:1048CC00B306C3409396260097020000B3865600A9
:1048DC006780C6002307B700A306B7002306B700FE
:1048EC00A305B7002305B700A304B7002304B70042
:1048FC00A303B7002303B700A302B7002302B7003A
:10490C00A301B7002301B700A300B7002300B70031
:10491C006780000093F5F50F93968500B3E5D500FD
:10492C0093960501B3E5D5006FF0DFF6939627005B
:10493C0097020000B386560093820000E78006FAC7
:10494C0093800200938707FF3307F7403306F60086
:10495C00E378C3F66FF0DFF39377350013070500A8
:10496C00639C0704B7867F7F9386F6F79305F0FF69
:10497C000326070013074700B377D600B387D70089
:10498C00B3E7C700B3E7D700E384B7FE8346C7FF9E
:10499C000346D7FF8347E7FF3307A740638006042E
:1049AC00630A06023335F0003305E5001305E5FF15
:1049BC0067800000E38806FA834707001307170097
:1049CC0093763700E39807FE3307A7401305F7FFEC
:1049DC00678000001305D7FF678000001305C7FF31
:1049EC006780000083A7C1F3638C070403A747000B
:1049FC001308F0016340E80813182700630605024A
:104A0C00338307012324C30883A8871813061000D7
:104A1C003316E600B3E8C80023A417192324D310D7
:104A2C00930620006306D5021307170023A2E700A4
:104A3C00B387070123A4B7001305000067800000AB
:104A4C001388810823AE01F3938781086FF01FFA56
:104A5C0083A6C7181307170023A2E70033E6C60086
:104A6C0023A6C718B387070123A4B70013050000BA
:104A7C00678000001305F0FF67800000130101FD43
:104A8C00232C41012320210303A9C1F32326110266
:104A9C002324810223229102232E3101232A510146
:104AAC002328610123267101232481016300090459
:104ABC00130B0500938B0500930A10009309F0FF6C
:104ACC00832449001384F4FF63420402939424006A
:104ADC00B304990063840B0483A7441063807705A7
:104AEC001304F4FF9384C4FFE31634FF8320C10244
:104AFC000324810283244102032901028329C10179
:104B0C00032A8101832A4101032B0101832BC1005C
:104B1C00032C8100130101036780000083274900E7
:104B2C0083A644009387F7FF638E870423A20400B7
:104B3C00E38806FA8327891833978A00032C4900E7
:104B4C00B377F70063920702E7800600032749005A
:104B5C0083A7C1F363148701E38427F9E38807F87B
:104B6C00138907006FF0DFF58327C91883A5440864
:104B7C003377F700631C070013050B00E780060072
:104B8C006FF0DFFC232289006FF09FFA138505007C
:104B9C00E78006006FF09FFB130101FE2326310115
:104BAC00B7190180232C8100232A9100232821018D
:104BBC0023244101232E1100138A0500130905003B
:104BCC00938989BBEF00D03A03A78900B71700007F
:104BDC001384F7FE832447003304444193F4C4FF49
:104BEC00330494001354C4001304F4FF1314C400CE
:104BFC00634EF4009305000013050900EF40D01438
:104C0C0083A78900B38797006308F5021305090091
:104C1C00EF0050368320C10103248101832441011C
:104C2C00032901018329C100032A81001305000017
:104C3C001301010267800000B305804013050900D1
:104C4C00EF4090109307F0FF6308F50493878121E0
:104C5C0003A7070083A68900B384844093E414005F
:104C6C00330487401305090023A2960023A0870074
:104C7C00EF0050308320C1010324810183244101C2
:104C8C00032901018329C100032A810013051000A7
:104C9C001301010267800000930500001305090051
:104CAC00EF40900A03A789009306F000B307E54094
:104CBC00E3DEF6F483A681F293E717002322F700D4
:104CCC003305D54023ACA1206FF05FF4638A051245
:104CDC00130101FF2324810023229100138405007A
:104CEC009304050023261100EF0090280328C4FF2D
:104CFC00130784FFB71501809377E8FF3306F7009D
:104D0C00938585BB8326460003A5850093F6C6FFD5
:104D1C00630AC51A2322D600137818003305D6006F
:104D2C006310080A032384FF03284500371501800C
:104D3C003307674083288700130505BCB3876700DA
:104D4C00137818006380A8140323C70023A66800F7
:104D5C00232413016300081E93E617002322D700B7
:104D6C002320F6009306F01F63E8F60A93F687FFFC
:104D7C009386860003A54500B386D50003A60600DE
:104D8C0013D8570093071000B3970701B3E7A70098
:104D9C00138586FF2326A7002324C70023A2F50032
:104DAC0023A0E6002326E600032481008320C10013
:104DBC001385040083244100130101016F00901B33
:104DCC000325450013751500631E05023715018078
:104DDC00B387D700130505BC8326860093E817001C
:104DEC003308F7006384A6160326C60023A6C60064
:104DFC002324D600232217012320F8006FF09FF6FE
:104E0C006780000093E61700232ED4FE2320F600C3
:104E1C009306F01FE3FCF6F493D6970013064000BC
:104E2C006368D60E93D667001388960313868603A1
:104E3C00131838003388050183260800130888FFEF
:104E4C006304D81203A646001376C6FF63F6C700A8
:104E5C0083A68600E318D8FE03A8C6002326070104
:104E6C002324D700032481008320C1002324E800DD
:104E7C00138504008324410023A6E60013010101DD
:104E8C006F00500F631208148325C600032686009A
:104E9C00B387F600032481002326B60023A4C500A3
:104EAC0093E617008320C1002322D700138504004A
:104EBC003307F700832441002320F700130101017D
:104ECC006F00500B13781800B387D70063100802DB
:104EDC00032584FF3307A7408326C70003268700DA
:104EEC00B387A7002326D60023A4C60013E6170019
:104EFC0083A6C1F22322C70023A4E500E3E6D7EA88
:104F0C0083A581F413850400EFF01FC96FF0DFE96E
:104F1C00130640016374D602130640056364D6067B
:104F2C0093D6C7001388F6061386E60613183800C6
:104F3C006FF05FF0B387D7006FF01FEA1388C605D8
:104F4C001386B605131838006FF0DFEE23AAE500C0
:104F5C0023A8E5002326A7002324A700232217015A
:104F6C002320F8006FF05FE403A54500135626409C
:104F7C00930710003396C7003366A60023A2C50022
:104F8C006FF0DFED13064015636CD60093D6F70077
:104F9C001388860713867607131838006FF09FE97D
:104FAC0013064055636CD60093D627011388D60799
:104FBC001386C607131838006FF0DFE71308803F1D
:104FCC001306E0076FF01FE793E617002322D700C4
:104FDC002320F6006FF05FDD130101FD232E31015C
:104FEC002326110223248102232291022320210350
:104FFC00232C4101232A510123286101232671010D
:10500C0023248101232291019387B50013076001AA
:10501C00930905006364F7069307000163E2B71E6A
:10502C00EF00007593040001930780011306200024
:10503C0013898195B307F90003A44700138787FFF1
:10504C006308E420832744008326C40003268400DD
:10505C0093F7C7FFB307F40003A747002326D60036
:10506C0023A4C600136717001385090023A2E700C9
:10507C00EF004070130584006F00401993F487FF14
:10508C0063C0071863EEB416EF00806E9307701FB1
:10509C0063FA974493D794006384071A130740006C
:1050AC006360F73C93D764001386970313858703DB
:1050BC009316360013898195B306D90003A44600D4
:1050CC00938686FF638686029305F0006F000001CD
:1050DC00635207320324C400638C86008327440088
:1050EC0093F7C7FF33879740E3D4E5FE130605001B
:1050FC00032409019308890063081417032544004D
:10510C009306F0001375C5FFB307954063C2F640D4
:10511C00232A19012328190163DC073C9307F01F8C
:10512C0063E0A72E937785FF93878700832549003B
:10513C00B307F90083A60700135555001307100099
:10514C003317A7003367B700938587FF2326B40076
:10515C002324D4002322E90023A0870023A6860061
:10516C009357264093051000B395F5006368B7106C
:10517C00B3F7E50063940702939515001376C6FF09
:10518C00B3F7E50013064600639A070093951500E4
:10519C00B3F7E50013064600E38A07FE1308F00098
:1051AC001313360033036900130503008327C5006E
:1051BC00130E06006308F52C03A7470013840700A1
:1051CC0083A7C7001377C7FFB30697406348D82C53
:1051DC00E3C206FE3307E40083264700032684005F
:1051EC001385090093E616002322D7002326F60028
:1051FC0023A4C700EF000058130584006F000001C2
:10520C009307C00023A0F900130500008320C102FE
:10521C000324810283244102032901028329C10151
:10522C00032A8101832A4101032B0101832BC10035
:10523C00032C8100832C41001301010367800000C3
:10524C0093060020130600041305F0036FF09FE68D
:10525C0003A4C70013062600E39687DE0324090186
:10526C0093088900E31C14E903274900935726404F
:10527C0093051000B395F500E37CB7EE0324890089
:10528C00832A440013FBCAFF63689B00B3079B404F
:10529C001307F000634CF71283AA81F403A781F281
:1052AC009307F0FF330A6401B38A54016304F734A3
:1052BC00B71700009387F700B38AFA00B7F7FFFF20
:1052CC00B3FAFA0093850A0013850900EF40C02752
:1052DC009307F0FF930B05006306F52863624529DD
:1052EC00138C812183250C00B385BA002320BC00CC
:1052FC0093870500630EAA3883A681F21307F0FF8B
:10530C006386E63A338A4B41B307FA002320FC004C
:10531C0093FC7B0063820C30B7170000B38B9B416E
:10532C0093858700938B8B00B3859541B38A5B0182
:10533C009387F7FFB385554133FAF50093050A00BF
:10534C0013850900EF4040209307F0FF630AF53AFC
:10535C0033057541B30A450183250C0023247901DB
:10536C0093EA1A00B305BA002320BC0023A25B0108
:10537C00630224359306F00063F26635032744007C
:10538C0093074BFF93F787FF137717003367F700EB
:10539C002322E400130650003307F4002322C70035
:1053AC002324C70063E8F63683AA4B0013840B0052
:1053BC0003A741F46374B70023A2B1F403A701F46B
:1053CC006376B71A23A0B1F46F00401A13E71400E8
:1053DC002322E400B30494002324990093E71700DC
:1053EC001385090023A2F400EF00C03813058400D4
:1053FC006FF0DFE18326C400032684006FF09FC5A5
:10540C0093579500130740006372F714130740017C
:10541C00636AF7229386C7059385B7059396360082
:10542C00B306D90083A70600938686FF6388F61C13
:10543C0003A747001377C7FF6376E50083A78700B0
:10544C00E398F6FE83A6C700032749002326D40061
:10545C002324F40023A4860023A687006FF05FD0DA
:10546C00130740016376F71213074005636AF71EB2
:10547C0093D7C4001386F7061385E70693163600F8
:10548C006FF05FC3130E1E0093773E00130585006B
:10549C00638E07108327C5006FF0DFD103268400CD
:1054AC0093E514002322B4002326F60023A4C7009E
:1054BC00B3049400232A99002328990093E716003B
:1054CC0023A6140123A4140123A2F4003307E4003F
:1054DC00138509002320D700EF00C0291305840091
:1054EC006FF0DFD213D63400938784006FF05FB473
:1054FC003307A400832747001385090093E717009F
:10550C002322F700EF000027130584006FF01FD053
:10551C0013E714002322E400B3049400232A990017
:10552C002328990013E7170023A6140123A41401C0
:10553C0023A2E4003305A4002320F5001385090001
:10554C00EF004023130584006FF05FCC9357650088
:10555C009386970393858703939636006FF05FECE1
:10556C00630E241103248900832A440093FACAFF92
:10557C00B3879A4063E69A001307F000E348F7E418
:10558C0013850900EF00001F130500006FF01FC802
:10559C001386C7051385B705931636006FF09FB1B8
:1055AC00832783001306F6FF6390671C93773600FE
:1055BC00130383FFE39607FE0327490093C7F5FF08
:1055CC00B3F7E7002322F90093951500E3E8B7CA77
:1055DC00E38605CA33F7F500631A070093951500A7
:1055EC0033F7F500130E4E00E30A07FE13060E0008
:1055FC006FF01FBB938A0A016FF0DFCC03254900C3
:10560C0093D52540130710003317B7003367A70055
:10561C002322E9006FF09FE3B3855B01B305B04033
:10562C009395450113DA450193050A00138509008A
:10563C00EF3090719307F0FFE31CF5D0130A0000D4
:10564C006FF09FD1130740056360F7089357C500AF
:10565C009386F7069385E706939636006FF05FDC2A
:10566C00130740156360F70893D7F4001386870778
:10567C0013857707931636006FF0DFA3138C812107
:10568C0083270C00B387FA002320FC006FF0DFC6E1
:10569C0013174A01E31207C603248900B30A5B01FE
:1056AC0093EA1A00232254016FF09FD023A471F3C4
:1056BC006FF01FC613840B006FF09FCF9307100081
:1056CC0023A2FB006FF0DFEB130740156362F706B4
:1056DC009357F50093868707938577079396360043
:1056EC006FF01FD4130740556362F70693D724015C
:1056FC001386D7071385C707931636006FF09F9B49
:10570C00938C8CFFB38A9A01B38A7A41130A0000F6
:10571C006FF09FC49305840013850900EFF00FDB35
:10572C000324890083250C00832A44006FF05FC892
:10573C00130740556364F702935725019386D707E7
:10574C009385C707939636006FF09FCD9306803FE5
:10575C001306F0071305E0076FF0DF959306803F03
:10576C009305E0076FF0DFCB832749006FF0DFE58F
:10577C006780000067800000130101ED23261112E1
:10578C002324811223202113232A5111138905006C
:10579C00130406002324D10023229112232E31114D
:1057AC00232C4111232861112326711123248111EB
:1057BC00232291112320A111232EB10F930A05004E
:1057CC00EF30905783270500138507002324F1023F
:1057DC00EFF08F982320A10263880A0083A74A0365
:1057EC00639407006F10C0680317C900B726000048
:1057FC009317070193D7070133F6D70063180602F6
:10580C0003264906B367D7009397070137E7FFFFD5
:10581C0093D707411307F7FF3377E6002316F900F8
:10582C00939707012322E90693D7070113F7870003
:10583C006300072E03270901630C072C93F7A701BC
:10584C001307A0006388E72E03A841ED83A701EDA1
:10585C00B70B01809309010B2328F102B7070180D4
:10586C00938747392326F10093878B4F130D040040
:10587C00232A0103232E31072322010823200108A8
:10588C00232A0100232C0100232E010023220102D4
:10589C00232C0102232201002320F1001384090090
:1058AC0083470D006388072093040D0013075002F3
:1058BC006382E72E83C7140093841400E39A07FED7
:1058CC00338AA4416388A41F032741088327010856
:1058DC002320A40133074701938717002322440197
:1058EC002322E1082320F10813077000130484001D
:1058FC00634AF72A0327410083C704003307470193
:10590C002322E1006388071A93871400A30F010474
:10591C009305000013050000930DF0FF93040000A5
:10592C00130F000093068005130690001308A002C5
:10593C0083CC0700138D170093870CFE63E4F604E9
:10594C000327C10093972700B387E70083A70700BD
:10595C00678007009304000013870CFD834C0D0037
:10596C0093972400B387970093971700B304F7001D
:10597C0013870CFD130D1D00E372E6FE93870CFEDE
:10598C00E3F0F6FC638405006F10407D63840C1219
:10599C0023049109A30F0104130B1000930B1000A7
:1059AC00130C8108130A0F00930D0000232801002B
:1059BC00937F2A0063840F00130B2B00137F4A087C
:1059CC008327410863160F00B3866441E34ED0442D
:1059DC000347F105630A0702032701089306F10543
:1059EC002320D40093871700930610001307170089
:1059FC002322D4002322F1082320E108930670000F
:105A0C001304840063C6E62C638A0F020327010883
:105A1C00930601062320D4009387270093062000C9
:105A2C00130717002322D4002322F1082320E108B6
:105A3C009306700013048400E3C2E65013070008B9
:105A4C00E304EF20B38D7D41E346B02F13770A10AA
:105A5C00E31C070C03270108B3877701232084017B
:105A6C0013071700232274012322F1082320E108D5
:105A7C009306700063C0E63813048400137A4A005E
:105A8C0063060A00338A64416346403963D4640177
:105A9C0093040B0003274100330797002322E100F6
:105AAC00E394073683470D00232001081384090073
:105ABC00E39C07DE83274108638407006F10806A2C
:105ACC008357C90093F70704638407006F10900A8B
